{
  "contracts/ForGreen.sol": {
    "ForGreen": {
      "abi": [
        {
          "inputs": [
            {
              "internalType": "uint256",
              "name": "BidId",
              "type": "uint256"
            }
          ],
          "name": "BidURI",
          "outputs": [
            {
              "internalType": "string",
              "name": "",
              "type": "string"
            }
          ],
          "stateMutability": "view",
          "type": "function"
        },
        {
          "inputs": [
            {
              "internalType": "uint256",
              "name": "ProjectId",
              "type": "uint256"
            },
            {
              "internalType": "uint256",
              "name": "GranttId",
              "type": "uint256"
            }
          ],
          "name": "CreateGrantProject",
          "outputs": [
            {
              "internalType": "uint256",
              "name": "",
              "type": "uint256"
            }
          ],
          "stateMutability": "nonpayable",
          "type": "function"
        },
        {
          "inputs": [],
          "name": "_EventTokenSearchIds",
          "outputs": [
            {
              "internalType": "uint256",
              "name": "",
              "type": "uint256"
            }
          ],
          "stateMutability": "view",
          "type": "function"
        },
        {
          "inputs": [],
          "name": "_GrantEventIds",
          "outputs": [
            {
              "internalType": "uint256",
              "name": "",
              "type": "uint256"
            }
          ],
          "stateMutability": "view",
          "type": "function"
        },
        {
          "inputs": [
            {
              "internalType": "uint256",
              "name": "",
              "type": "uint256"
            }
          ],
          "name": "_GrantEventURIs",
          "outputs": [
            {
              "internalType": "string",
              "name": "",
              "type": "string"
            }
          ],
          "stateMutability": "view",
          "type": "function"
        },
        {
          "inputs": [],
          "name": "_GrantProjectIds",
          "outputs": [
            {
              "internalType": "uint256",
              "name": "",
              "type": "uint256"
            }
          ],
          "stateMutability": "view",
          "type": "function"
        },
        {
          "inputs": [],
          "name": "_GrantVoteIds",
          "outputs": [
            {
              "internalType": "uint256",
              "name": "",
              "type": "uint256"
            }
          ],
          "stateMutability": "view",
          "type": "function"
        },
        {
          "inputs": [
            {
              "internalType": "uint256",
              "name": "",
              "type": "uint256"
            }
          ],
          "name": "_JudgerURIs",
          "outputs": [
            {
              "internalType": "string",
              "name": "",
              "type": "string"
            }
          ],
          "stateMutability": "view",
          "type": "function"
        },
        {
          "inputs": [
            {
              "internalType": "uint256",
              "name": "",
              "type": "uint256"
            },
            {
              "internalType": "uint256",
              "name": "",
              "type": "uint256"
            }
          ],
          "name": "_SearchedStore",
          "outputs": [
            {
              "internalType": "string",
              "name": "",
              "type": "string"
            }
          ],
          "stateMutability": "view",
          "type": "function"
        },
        {
          "inputs": [
            {
              "internalType": "uint256",
              "name": "_tokenId",
              "type": "uint256"
            }
          ],
          "name": "_getSearchedTokenURI",
          "outputs": [
            {
              "internalType": "string",
              "name": "",
              "type": "string"
            }
          ],
          "stateMutability": "view",
          "type": "function"
        },
        {
          "inputs": [
            {
              "internalType": "uint256",
              "name": "bidId",
              "type": "uint256"
            },
            {
              "internalType": "string",
              "name": "_bidURI",
              "type": "string"
            }
          ],
          "name": "_setBidURI",
          "outputs": [],
          "stateMutability": "nonpayable",
          "type": "function"
        },
        {
          "inputs": [
            {
              "internalType": "uint256",
              "name": "_eventId",
              "type": "uint256"
            },
            {
              "internalType": "string",
              "name": "_raised",
              "type": "string"
            }
          ],
          "name": "_setEventRaised",
          "outputs": [],
          "stateMutability": "nonpayable",
          "type": "function"
        },
        {
          "inputs": [
            {
              "internalType": "uint256",
              "name": "eventId",
              "type": "uint256"
            },
            {
              "internalType": "string",
              "name": "_eventWallet",
              "type": "string"
            },
            {
              "internalType": "string",
              "name": "_eventURI",
              "type": "string"
            }
          ],
          "name": "_setEventURI",
          "outputs": [],
          "stateMutability": "nonpayable",
          "type": "function"
        },
        {
          "inputs": [
            {
              "internalType": "uint256",
              "name": "eventId",
              "type": "uint256"
            },
            {
              "internalType": "string",
              "name": "_eventURI",
              "type": "string"
            }
          ],
          "name": "_setGrantEventURI",
          "outputs": [],
          "stateMutability": "nonpayable",
          "type": "function"
        },
        {
          "inputs": [
            {
              "internalType": "uint256",
              "name": "TokenBidId",
              "type": "uint256"
            },
            {
              "internalType": "uint256",
              "name": "TokenId",
              "type": "uint256"
            },
            {
              "internalType": "string",
              "name": "_BidURI",
              "type": "string"
            }
          ],
          "name": "_setTokenBid",
          "outputs": [],
          "stateMutability": "nonpayable",
          "type": "function"
        },
        {
          "inputs": [
            {
              "internalType": "uint256",
              "name": "EventTokenId",
              "type": "uint256"
            },
            {
              "internalType": "uint256",
              "name": "EventId",
              "type": "uint256"
            },
            {
              "internalType": "string",
              "name": "_tokenURI",
              "type": "string"
            }
          ],
          "name": "_setTokenEvent",
          "outputs": [],
          "stateMutability": "nonpayable",
          "type": "function"
        },
        {
          "inputs": [
            {
              "internalType": "uint256",
              "name": "tokenId",
              "type": "uint256"
            },
            {
              "internalType": "string",
              "name": "_tokenURI",
              "type": "string"
            }
          ],
          "name": "_setTokenURI",
          "outputs": [],
          "stateMutability": "nonpayable",
          "type": "function"
        },
        {
          "inputs": [
            {
              "internalType": "address",
              "name": "_claimer",
              "type": "address"
            },
            {
              "internalType": "string",
              "name": "_tokenURI",
              "type": "string"
            },
            {
              "internalType": "uint256",
              "name": "_eventid",
              "type": "uint256"
            }
          ],
          "name": "claimToken",
          "outputs": [
            {
              "internalType": "uint256",
              "name": "",
              "type": "uint256"
            }
          ],
          "stateMutability": "nonpayable",
          "type": "function"
        },
        {
          "inputs": [
            {
              "internalType": "uint256",
              "name": "_tokenId",
              "type": "uint256"
            },
            {
              "internalType": "string",
              "name": "_bidURI",
              "type": "string"
            },
            {
              "internalType": "string",
              "name": "_updatedURI",
              "type": "string"
            },
            {
              "internalType": "uint256",
              "name": "_eventid",
              "type": "uint256"
            },
            {
              "internalType": "string",
              "name": "_raised",
              "type": "string"
            }
          ],
          "name": "createBid",
          "outputs": [],
          "stateMutability": "nonpayable",
          "type": "function"
        },
        {
          "inputs": [
            {
              "internalType": "string",
              "name": "_eventWallet",
              "type": "string"
            },
            {
              "internalType": "string",
              "name": "_eventURI",
              "type": "string"
            }
          ],
          "name": "createEvent",
          "outputs": [
            {
              "internalType": "uint256",
              "name": "",
              "type": "uint256"
            }
          ],
          "stateMutability": "nonpayable",
          "type": "function"
        },
        {
          "inputs": [
            {
              "internalType": "string",
              "name": "_eventURI",
              "type": "string"
            }
          ],
          "name": "createGrantEvent",
          "outputs": [
            {
              "internalType": "uint256",
              "name": "",
              "type": "uint256"
            }
          ],
          "stateMutability": "nonpayable",
          "type": "function"
        },
        {
          "inputs": [
            {
              "internalType": "string",
              "name": "Wallet",
              "type": "string"
            },
            {
              "internalType": "uint256",
              "name": "ProjectId",
              "type": "uint256"
            },
            {
              "internalType": "uint256",
              "name": "GranttId",
              "type": "uint256"
            }
          ],
          "name": "createGrantVote",
          "outputs": [
            {
              "internalType": "uint256",
              "name": "",
              "type": "uint256"
            }
          ],
          "stateMutability": "nonpayable",
          "type": "function"
        },
        {
          "inputs": [
            {
              "internalType": "uint256",
              "name": "eventId",
              "type": "uint256"
            }
          ],
          "name": "eventURI",
          "outputs": [
            {
              "internalType": "string[2]",
              "name": "",
              "type": "string[2]"
            }
          ],
          "stateMutability": "view",
          "type": "function"
        },
        {
          "inputs": [
            {
              "internalType": "string",
              "name": "_bidURI",
              "type": "string"
            }
          ],
          "name": "getBidIdByUri",
          "outputs": [
            {
              "internalType": "uint256",
              "name": "",
              "type": "uint256"
            }
          ],
          "stateMutability": "view",
          "type": "function"
        },
        {
          "inputs": [
            {
              "internalType": "uint256",
              "name": "TokenID",
              "type": "uint256"
            }
          ],
          "name": "getBidsSearchToken",
          "outputs": [
            {
              "internalType": "string[]",
              "name": "",
              "type": "string[]"
            }
          ],
          "stateMutability": "view",
          "type": "function"
        },
        {
          "inputs": [
            {
              "internalType": "uint256",
              "name": "Grantid",
              "type": "uint256"
            },
            {
              "internalType": "uint256",
              "name": "ProjectId",
              "type": "uint256"
            }
          ],
          "name": "getCheckSubmittedProjectGrant",
          "outputs": [
            {
              "internalType": "bool",
              "name": "",
              "type": "bool"
            }
          ],
          "stateMutability": "view",
          "type": "function"
        },
        {
          "inputs": [
            {
              "internalType": "string",
              "name": "_eventURI",
              "type": "string"
            }
          ],
          "name": "getEventIdByURI",
          "outputs": [
            {
              "internalType": "uint256",
              "name": "",
              "type": "uint256"
            }
          ],
          "stateMutability": "view",
          "type": "function"
        },
        {
          "inputs": [
            {
              "internalType": "uint256",
              "name": "_eventId",
              "type": "uint256"
            }
          ],
          "name": "getEventRaised",
          "outputs": [
            {
              "internalType": "string",
              "name": "",
              "type": "string"
            }
          ],
          "stateMutability": "view",
          "type": "function"
        },
        {
          "inputs": [
            {
              "internalType": "uint256",
              "name": "EventId",
              "type": "uint256"
            },
            {
              "internalType": "string",
              "name": "_tokenURI",
              "type": "string"
            }
          ],
          "name": "getGetEventsTokenID",
          "outputs": [
            {
              "internalType": "uint256",
              "name": "",
              "type": "uint256"
            }
          ],
          "stateMutability": "view",
          "type": "function"
        },
        {
          "inputs": [
            {
              "internalType": "string",
              "name": "Wallet",
              "type": "string"
            }
          ],
          "name": "getSearchEventbyWallet",
          "outputs": [
            {
              "internalType": "string[]",
              "name": "",
              "type": "string[]"
            }
          ],
          "stateMutability": "view",
          "type": "function"
        },
        {
          "inputs": [
            {
              "internalType": "uint256",
              "name": "Grantid",
              "type": "uint256"
            },
            {
              "internalType": "uint256",
              "name": "ProjectId",
              "type": "uint256"
            }
          ],
          "name": "getSearchedGrantVoteProject",
          "outputs": [
            {
              "internalType": "string[]",
              "name": "",
              "type": "string[]"
            }
          ],
          "stateMutability": "view",
          "type": "function"
        },
        {
          "inputs": [
            {
              "internalType": "uint256",
              "name": "Grantid",
              "type": "uint256"
            }
          ],
          "name": "getSearchedProjectByGrantID",
          "outputs": [
            {
              "internalType": "uint256[]",
              "name": "",
              "type": "uint256[]"
            }
          ],
          "stateMutability": "view",
          "type": "function"
        },
        {
          "inputs": [
            {
              "internalType": "uint256",
              "name": "TokenID",
              "type": "uint256"
            }
          ],
          "name": "getTotalBid",
          "outputs": [
            {
              "internalType": "string[]",
              "name": "",
              "type": "string[]"
            }
          ],
          "stateMutability": "view",
          "type": "function"
        },
        {
          "inputs": [
            {
              "internalType": "string",
              "name": "_tokenURI",
              "type": "string"
            }
          ],
          "name": "gettokenIdByUri",
          "outputs": [
            {
              "internalType": "uint256",
              "name": "",
              "type": "uint256"
            }
          ],
          "stateMutability": "view",
          "type": "function"
        },
        {
          "inputs": [
            {
              "internalType": "uint256",
              "name": "EventID",
              "type": "uint256"
            }
          ],
          "name": "gettokenSearchEventTotal",
          "outputs": [
            {
              "internalType": "string[]",
              "name": "",
              "type": "string[]"
            }
          ],
          "stateMutability": "view",
          "type": "function"
        },
        {
          "inputs": [
            {
              "internalType": "uint256",
              "name": "GrantProjectId",
              "type": "uint256"
            },
            {
              "internalType": "uint256",
              "name": "ProjectId",
              "type": "uint256"
            },
            {
              "internalType": "uint256",
              "name": "GranttId",
              "type": "uint256"
            }
          ],
          "name": "setGrantProject",
          "outputs": [],
          "stateMutability": "nonpayable",
          "type": "function"
        },
        {
          "inputs": [
            {
              "internalType": "uint256",
              "name": "GrantVoteId",
              "type": "uint256"
            },
            {
              "internalType": "string",
              "name": "Wallet",
              "type": "string"
            },
            {
              "internalType": "string",
              "name": "ProjectId",
              "type": "string"
            },
            {
              "internalType": "string",
              "name": "GranttId",
              "type": "string"
            }
          ],
          "name": "setGrantVote",
          "outputs": [],
          "stateMutability": "nonpayable",
          "type": "function"
        },
        {
          "inputs": [
            {
              "internalType": "uint256",
              "name": "tokenId",
              "type": "uint256"
            }
          ],
          "name": "tokenURI",
          "outputs": [
            {
              "internalType": "string",
              "name": "",
              "type": "string"
            }
          ],
          "stateMutability": "view",
          "type": "function"
        },
        {
          "inputs": [],
          "name": "totalEvent",
          "outputs": [
            {
              "internalType": "uint256",
              "name": "",
              "type": "uint256"
            }
          ],
          "stateMutability": "view",
          "type": "function"
        },
        {
          "inputs": [],
          "name": "totalGrantEvent",
          "outputs": [
            {
              "internalType": "uint256",
              "name": "",
              "type": "uint256"
            }
          ],
          "stateMutability": "view",
          "type": "function"
        },
        {
          "inputs": [],
          "name": "totalSupply",
          "outputs": [
            {
              "internalType": "uint256",
              "name": "",
              "type": "uint256"
            }
          ],
          "stateMutability": "view",
          "type": "function"
        }
      ],
      "devdoc": {
        "kind": "dev",
        "methods": {},
        "version": 1
      },
      "evm": {
        "bytecode": {
          "linkReferences": {},
          "object": "608060405234801561001057600080fd5b506134b4806100206000396000f3fe608060405234801561001057600080fd5b50600436106102535760003560e01c80637eadfa6a11610146578063c87b56dd116100c3578063dfc5e16911610087578063dfc5e169146107dc578063e08033d31461080c578063e257a94c14610828578063eb1d234d14610858578063f327579414610888578063f880eb19146108a457610253565b8063c87b56dd14610724578063cef80b3a14610754578063d45fc51614610772578063d654e993146107a2578063dcbe2ed9146107be57610253565b8063a0fd0c6a1161010a578063a0fd0c6a14610646578063a99bee2e14610676578063aed4796114610694578063b10a5dfa146106c4578063c08e953d146106f457610253565b80637eadfa6a1461057c57806384eb8f681461059a578063912101cf146105b6578063932a196b146105e657806396d5a7391461061657610253565b80633592dd80116101d45780635154380a116101985780635154380a146104a057806352379627146104d057806353c227cc1461050057806361958158146105305780637cedbc1e1461054c57610253565b80633592dd80146103c457806339053271146103e0578063446a92e3146104105780634eb083ec146104405780634ef4e80f1461047057610253565b80631dacc07e1161021b5780631dacc07e146102e85780631e65e1171461030457806328520ab714610334578063304b16db1461036457806335011d901461039457610253565b806301538868146102585780630ae240cf14610274578063144cbca6146102905780631677bf08146102ae57806318160ddd146102ca575b600080fd5b610272600480360381019061026d91906126a1565b6108c2565b005b61028e600480360381019061028991906126fd565b6108e7565b005b61029861092a565b6040516102a591906127c7565b60405180910390f35b6102c860048036038101906102c391906126a1565b610930565b005b6102d2610955565b6040516102df91906127c7565b60405180910390f35b61030260048036038101906102fd91906127e2565b61095e565b005b61031e600480360381019061031991906128b1565b610a82565b60405161032b9190612a3b565b60405180910390f35b61034e600480360381019061034991906126a1565b610ca4565b60405161035b91906127c7565b60405180910390f35b61037e600480360381019061037991906128b1565b610d7d565b60405161038b91906127c7565b60405180910390f35b6103ae60048036038101906103a99190612abb565b610dff565b6040516103bb91906127c7565b60405180910390f35b6103de60048036038101906103d99190612b2a565b610e55565b005b6103fa60048036038101906103f59190612b99565b610e99565b6040516104079190612bf4565b60405180910390f35b61042a60048036038101906104259190612c0f565b610f35565b6040516104379190612c86565b60405180910390f35b61045a60048036038101906104559190612c0f565b610fda565b6040516104679190612c86565b60405180910390f35b61048a60048036038101906104859190612b99565b61107f565b60405161049791906127c7565b60405180910390f35b6104ba60048036038101906104b59190612c0f565b6110b1565b6040516104c79190612a3b565b60405180910390f35b6104ea60048036038101906104e591906128b1565b611260565b6040516104f791906127c7565b60405180910390f35b61051a60048036038101906105159190612c0f565b611290565b6040516105279190612c86565b60405180910390f35b61054a60048036038101906105459190612ca8565b611330565b005b61056660048036038101906105619190612c0f565b6113c2565b6040516105739190612c86565b60405180910390f35b61058461147b565b60405161059191906127c7565b60405180910390f35b6105b460048036038101906105af91906126a1565b611485565b005b6105d060048036038101906105cb9190612b99565b6114aa565b6040516105dd9190612a3b565b60405180910390f35b61060060048036038101906105fb91906128b1565b611789565b60405161060d91906127c7565b60405180910390f35b610630600480360381019061062b9190612c0f565b6117f7565b60405161063d9190612df1565b60405180910390f35b610660600480360381019061065b9190612c0f565b611957565b60405161066d9190612eb5565b60405180910390f35b61067e611a37565b60405161068b91906127c7565b60405180910390f35b6106ae60048036038101906106a99190612c0f565b611a3d565b6040516106bb9190612a3b565b60405180910390f35b6106de60048036038101906106d99190612b99565b611bec565b6040516106eb9190612c86565b60405180910390f35b61070e60048036038101906107099190612ed7565b611c9c565b60405161071b91906127c7565b60405180910390f35b61073e60048036038101906107399190612c0f565b611ce0565b60405161074b9190612c86565b60405180910390f35b61075c611d85565b60405161076991906127c7565b60405180910390f35b61078c600480360381019061078791906128b1565b611d8b565b60405161079991906127c7565b60405180910390f35b6107bc60048036038101906107b79190612b2a565b611df9565b005b6107c6611e3d565b6040516107d391906127c7565b60405180910390f35b6107f660048036038101906107f19190612c0f565b611e43565b6040516108039190612c86565b60405180910390f35b610826600480360381019061082191906126a1565b611ee3565b005b610842600480360381019061083d9190612f46565b611f08565b60405161084f91906127c7565b60405180910390f35b610872600480360381019061086d9190612c0f565b611f7b565b60405161087f9190612a3b565b60405180910390f35b6108a2600480360381019061089d9190612fbe565b61212a565b005b6108ac612166565b6040516108b991906127c7565b60405180910390f35b80600f600084815260200190815260200160002090816108e2919061321d565b505050565b604051806060016040528082815260200183815260200184815250600a6000868152602001908152602001600020906003610923929190612391565b5050505050565b60085481565b80601360008481526020019081526020016000209081610950919061321d565b505050565b60008054905090565b6000610a0583600f6000898152602001908152602001600020805461098290613040565b80601f01602080910402602001604051908101604052809291908181526020018280546109ae90613040565b80156109fb5780601f106109d0576101008083540402835291602001916109fb565b820191906000526020600020905b8154815290600101906020018083116109de57829003601f168201915b5050505050610ca4565b905083600f60008881526020019081526020016000209081610a27919061321d565b50610a33818486610e55565b610a3d8383610930565b610a4a6007548787611df9565b60076000815480929190610a5d9061331e565b919050555060016000815480929190610a759061331e565b9190505550505050505050565b606060008060005b600254811015610aff57848051906020012060106000838152602001908152602001600020600060028110610ac257610ac1613366565b5b01604051610ad09190613438565b604051809103902003610aec578280610ae89061331e565b9350505b8080610af79061331e565b915050610a8a565b5060008267ffffffffffffffff811115610b1c57610b1b612576565b5b604051908082528060200260200182016040528015610b4f57816020015b6060815260200190600190039081610b3a5790505b50905060005b600254811015610c9857858051906020012060106000838152602001908152602001600020600060028110610b8d57610b8c613366565b5b01604051610b9b9190613438565b604051809103902003610c855760106000828152602001908152602001600020600160028110610bce57610bcd613366565b5b018054610bda90613040565b80601f0160208091040260200160405190810160405280929190818152602001828054610c0690613040565b8015610c535780601f10610c2857610100808354040283529160200191610c53565b820191906000526020600020905b815481529060010190602001808311610c3657829003601f168201915b5050505050828481518110610c6b57610c6a613366565b5b60200260200101819052508280610c819061331e565b9350505b8080610c909061331e565b915050610b55565b50809350505050919050565b600080600090505b600654811015610d7157610cbf84612170565b8051906020012060096000838152602001908152602001600020600060028110610cec57610ceb613366565b5b01604051610cfa9190613438565b6040518091039020148015610d505750828051906020012060096000838152602001908152602001600020600160028110610d3857610d37613366565b5b01604051610d469190613438565b6040518091039020145b15610d5e5780915050610d77565b8080610d699061331e565b915050610cac565b50600090505b92915050565b600080600090505b600254811015610df457828051906020012060106000838152602001908152602001600020600160028110610dbd57610dbc613366565b5b01604051610dcb9190613438565b604051809103902003610de15780915050610dfa565b8080610dec9061331e565b915050610d85565b50600090505b919050565b6000610e0d600054846108c2565b610e1a6006548385610e55565b600080815480929190610e2c9061331e565b919050555060066000815480929190610e449061331e565b919050555060005490509392505050565b6040518060400160405280610e6984612170565b81526020018281525060096000858152602001908152602001600020906002610e939291906123dd565b50505050565b600080600090505b600454811015610f295783600b6000838152602001908152602001600020600060028110610ed257610ed1613366565b5b0154148015610f07575082600b6000838152602001908152602001600020600160028110610f0357610f02613366565b5b0154145b15610f16576001915050610f2f565b8080610f219061331e565b915050610ea1565b50600090505b92915050565b6060600e60008381526020019081526020016000208054610f5590613040565b80601f0160208091040260200160405190810160405280929190818152602001828054610f8190613040565b8015610fce5780601f10610fa357610100808354040283529160200191610fce565b820191906000526020600020905b815481529060010190602001808311610fb157829003601f168201915b50505050509050919050565b6060601360008381526020019081526020016000208054610ffa90613040565b80601f016020809104026020016040519081016040528092919081815260200182805461102690613040565b80156110735780601f1061104857610100808354040283529160200191611073565b820191906000526020600020905b81548152906001019060200180831161105657829003601f168201915b50505050509050919050565b600061108e600454848461212a565b600460008154809291906110a19061331e565b9190505550600454905092915050565b60606000600a67ffffffffffffffff8111156110d0576110cf612576565b5b60405190808252806020026020018201604052801561110357816020015b60608152602001906001900390816110ee5790505b5090506000805b6007548110156112555761111d85612170565b80519060200120600c600083815260200190815260200160002060006002811061114a57611149613366565b5b016040516111589190613438565b60405180910390200361124257600c600082815260200190815260200160002060016002811061118b5761118a613366565b5b01805461119790613040565b80601f01602080910402602001604051908101604052809291908181526020018280546111c390613040565b80156112105780601f106111e557610100808354040283529160200191611210565b820191906000526020600020905b8154815290600101906020018083116111f357829003601f168201915b505050505083838151811061122857611227613366565b5b6020026020010181905250818061123e9061331e565b9250505b808061124d9061331e565b91505061110a565b508192505050919050565b600061126e60035483611485565b600360008154809291906112819061331e565b91905055506003549050919050565b601260205280600052604060002060009150905080546112af90613040565b80601f01602080910402602001604051908101604052809291908181526020018280546112db90613040565b80156113285780601f106112fd57610100808354040283529160200191611328565b820191906000526020600020905b81548152906001019060200180831161130b57829003601f168201915b505050505081565b604051806040016040528083815260200182815250601060008581526020019081526020016000209060026113669291906123dd565b506040518060400160405280600181526020017f30000000000000000000000000000000000000000000000000000000000000008152506013600085815260200190815260200160002090816113bc919061321d565b50505050565b6060600d60008381526020019081526020016000206000600281106113ea576113e9613366565b5b0180546113f690613040565b80601f016020809104026020016040519081016040528092919081815260200182805461142290613040565b801561146f5780601f106114445761010080835404028352916020019161146f565b820191906000526020600020905b81548152906001019060200180831161145257829003601f168201915b50505050509050919050565b6000600254905090565b806011600084815260200190815260200160002090816114a5919061321d565b505050565b606060008060005b600554811015611585576114c586612170565b80519060200120600a60008381526020019081526020016000206000600381106114f2576114f1613366565b5b016040516115009190613438565b604051809103902014801561155e575061151985612170565b80519060200120600a600083815260200190815260200160002060016003811061154657611545613366565b5b016040516115549190613438565b6040518091039020145b1561157257828061156e9061331e565b9350505b808061157d9061331e565b9150506114b2565b5060008267ffffffffffffffff8111156115a2576115a1612576565b5b6040519080825280602002602001820160405280156115d557816020015b60608152602001906001900390816115c05790505b50905060005b60055481101561177c576115ee87612170565b80519060200120600a600083815260200190815260200160002060006003811061161b5761161a613366565b5b016040516116299190613438565b6040518091039020148015611687575061164286612170565b80519060200120600a600083815260200190815260200160002060016003811061166f5761166e613366565b5b0160405161167d9190613438565b6040518091039020145b1561176957600a60008281526020019081526020016000206002600381106116b2576116b1613366565b5b0180546116be90613040565b80601f01602080910402602001604051908101604052809291908181526020018280546116ea90613040565b80156117375780601f1061170c57610100808354040283529160200191611737565b820191906000526020600020905b81548152906001019060200180831161171a57829003601f168201915b505050505082848151811061174f5761174e613366565b5b602002602001018190525082806117659061331e565b9350505b80806117749061331e565b9150506115db565b5080935050505092915050565b600080600090505b6000548110156117ec578280519060200120600f60008381526020019081526020016000206040516117c39190613438565b6040518091039020036117d957809150506117f2565b80806117e49061331e565b915050611791565b50600090505b919050565b606060008060005b6004548110156118595784600b60008381526020019081526020016000206000600281106118305761182f613366565b5b0154036118465782806118429061331e565b9350505b80806118519061331e565b9150506117ff565b5060008267ffffffffffffffff81111561187657611875612576565b5b6040519080825280602002602001820160405280156118a45781602001602082028036833780820191505090505b50905060005b60045481101561194b5785600b60008381526020019081526020016000206000600281106118db576118da613366565b5b01540361193857600b600082815260200190815260200160002060016002811061190857611907613366565b5b015482848151811061191d5761191c613366565b5b60200260200101818152505082806119349061331e565b9350505b80806119439061331e565b9150506118aa565b50809350505050919050565b61195f612429565b60106000838152602001908152602001600020600280602002604051908101604052809291906000905b82821015611a2c57838201805461199f90613040565b80601f01602080910402602001604051908101604052809291908181526020018280546119cb90613040565b8015611a185780601f106119ed57610100808354040283529160200191611a18565b820191906000526020600020905b8154815290600101906020018083116119fb57829003601f168201915b505050505081526020019060010190611989565b505050509050919050565b60035481565b60606000600a67ffffffffffffffff811115611a5c57611a5b612576565b5b604051908082528060200260200182016040528015611a8f57816020015b6060815260200190600190039081611a7a5790505b5090506000805b600754811015611be157611aa985612170565b80519060200120600c6000838152602001908152602001600020600060028110611ad657611ad5613366565b5b01604051611ae49190613438565b604051809103902003611bce57600c6000828152602001908152602001600020600160028110611b1757611b16613366565b5b018054611b2390613040565b80601f0160208091040260200160405190810160405280929190818152602001828054611b4f90613040565b8015611b9c5780601f10611b7157610100808354040283529160200191611b9c565b820191906000526020600020905b815481529060010190602001808311611b7f57829003601f168201915b5050505050838381518110611bb457611bb3613366565b5b60200260200101819052508180611bca9061331e565b9250505b8080611bd99061331e565b915050611a96565b508192505050919050565b600d6020528160005260406000208160028110611c0857600080fd5b01600091509150508054611c1b90613040565b80601f0160208091040260200160405190810160405280929190818152602001828054611c4790613040565b8015611c945780601f10611c6957610100808354040283529160200191611c94565b820191906000526020600020905b815481529060010190602001808311611c7757829003601f168201915b505050505081565b6000611cbc60055485611cae86612170565b611cb786612170565b6108e7565b60056000815480929190611ccf9061331e565b919050555060055490509392505050565b6060600f60008381526020019081526020016000208054611d0090613040565b80601f0160208091040260200160405190810160405280929190818152602001828054611d2c90613040565b8015611d795780601f10611d4e57610100808354040283529160200191611d79565b820191906000526020600020905b815481529060010190602001808311611d5c57829003601f168201915b50505050509050919050565b60045481565b600080600090505b600154811015611dee578280519060200120600e6000838152602001908152602001600020604051611dc59190613438565b604051809103902003611ddb5780915050611df4565b8080611de69061331e565b915050611d93565b50600090505b919050565b6040518060400160405280611e0d84612170565b815260200182815250600c6000858152602001908152602001600020906002611e379291906123dd565b50505050565b60055481565b60116020528060005260406000206000915090508054611e6290613040565b80601f0160208091040260200160405190810160405280929190818152602001828054611e8e90613040565b8015611edb5780601f10611eb057610100808354040283529160200191611edb565b820191906000526020600020905b815481529060010190602001808311611ebe57829003601f168201915b505050505081565b80600e60008481526020019081526020016000209081611f03919061321d565b505050565b6000611f176002548484611330565b611f586002546040518060400160405280600181526020017f3000000000000000000000000000000000000000000000000000000000000000815250610930565b60026000815480929190611f6b9061331e565b9190505550600254905092915050565b60606000600a67ffffffffffffffff811115611f9a57611f99612576565b5b604051908082528060200260200182016040528015611fcd57816020015b6060815260200190600190039081611fb85790505b5090506000805b60065481101561211f57611fe785612170565b805190602001206009600083815260200190815260200160002060006002811061201457612013613366565b5b016040516120229190613438565b60405180910390200361210c576009600082815260200190815260200160002060016002811061205557612054613366565b5b01805461206190613040565b80601f016020809104026020016040519081016040528092919081815260200182805461208d90613040565b80156120da5780601f106120af576101008083540402835291602001916120da565b820191906000526020600020905b8154815290600101906020018083116120bd57829003601f168201915b50505050508383815181106120f2576120f1613366565b5b602002602001018190525081806121089061331e565b9250505b80806121179061331e565b915050611fd4565b508192505050919050565b604051806040016040528082815260200183815250600b6000858152602001908152602001600020906002612160929190612450565b50505050565b6000600454905090565b60606000600161217f8461223e565b01905060008167ffffffffffffffff81111561219e5761219d612576565b5b6040519080825280601f01601f1916602001820160405280156121d05781602001600182028036833780820191505090505b509050600082602001820190505b600115612233578080600190039150507f3031323334353637383961626364656600000000000000000000000000000000600a86061a8153600a85816122275761222661344f565b5b049450600085036121de575b819350505050919050565b600080600090507a184f03e93ff9f4daa797ed6e38ed64bf6a1f010000000000000000831061229c577a184f03e93ff9f4daa797ed6e38ed64bf6a1f01000000000000000083816122925761229161344f565b5b0492506040810190505b6d04ee2d6d415b85acef810000000083106122d9576d04ee2d6d415b85acef810000000083816122cf576122ce61344f565b5b0492506020810190505b662386f26fc10000831061230857662386f26fc1000083816122fe576122fd61344f565b5b0492506010810190505b6305f5e1008310612331576305f5e10083816123275761232661344f565b5b0492506008810190505b612710831061235657612710838161234c5761234b61344f565b5b0492506004810190505b60648310612379576064838161236f5761236e61344f565b5b0492506002810190505b600a8310612388576001810190505b80915050919050565b82600381019282156123cc579160200282015b828111156123cb5782518290816123bb919061321d565b50916020019190600101906123a4565b5b5090506123d99190612490565b5090565b8260028101928215612418579160200282015b82811115612417578251829081612407919061321d565b50916020019190600101906123f0565b5b5090506124259190612490565b5090565b60405180604001604052806002905b60608152602001906001900390816124385790505090565b826002810192821561247f579160200282015b8281111561247e578251825591602001919060010190612463565b5b50905061248c91906124b4565b5090565b5b808211156124b057600081816124a791906124d1565b50600101612491565b5090565b5b808211156124cd5760008160009055506001016124b5565b5090565b5080546124dd90613040565b6000825580601f106124ef575061250e565b601f01602090049060005260206000209081019061250d91906124b4565b5b50565b6000604051905090565b600080fd5b600080fd5b6000819050919050565b61253881612525565b811461254357600080fd5b50565b6000813590506125558161252f565b92915050565b600080fd5b600080fd5b6000601f19601f8301169050919050565b7f4e487b7100000000000000000000000000000000000000000000000000000000600052604160045260246000fd5b6125ae82612565565b810181811067ffffffffffffffff821117156125cd576125cc612576565b5b80604052505050565b60006125e0612511565b90506125ec82826125a5565b919050565b600067ffffffffffffffff82111561260c5761260b612576565b5b61261582612565565b9050602081019050919050565b82818337600083830152505050565b600061264461263f846125f1565b6125d6565b9050828152602081018484840111156126605761265f612560565b5b61266b848285612622565b509392505050565b600082601f8301126126885761268761255b565b5b8135612698848260208601612631565b91505092915050565b600080604083850312156126b8576126b761251b565b5b60006126c685828601612546565b925050602083013567ffffffffffffffff8111156126e7576126e6612520565b5b6126f385828601612673565b9150509250929050565b600080600080608085870312156127175761271661251b565b5b600061272587828801612546565b945050602085013567ffffffffffffffff81111561274657612745612520565b5b61275287828801612673565b935050604085013567ffffffffffffffff81111561277357612772612520565b5b61277f87828801612673565b925050606085013567ffffffffffffffff8111156127a05761279f612520565b5b6127ac87828801612673565b91505092959194509250565b6127c181612525565b82525050565b60006020820190506127dc60008301846127b8565b92915050565b600080600080600060a086880312156127fe576127fd61251b565b5b600061280c88828901612546565b955050602086013567ffffffffffffffff81111561282d5761282c612520565b5b61283988828901612673565b945050604086013567ffffffffffffffff81111561285a57612859612520565b5b61286688828901612673565b935050606061287788828901612546565b925050608086013567ffffffffffffffff81111561289857612897612520565b5b6128a488828901612673565b9150509295509295909350565b6000602082840312156128c7576128c661251b565b5b600082013567ffffffffffffffff8111156128e5576128e4612520565b5b6128f184828501612673565b91505092915050565b600081519050919050565b600082825260208201905092915050565b6000819050602082019050919050565b600081519050919050565b600082825260208201905092915050565b60005b83811015612960578082015181840152602081019050612945565b60008484015250505050565b600061297782612926565b6129818185612931565b9350612991818560208601612942565b61299a81612565565b840191505092915050565b60006129b1838361296c565b905092915050565b6000602082019050919050565b60006129d1826128fa565b6129db8185612905565b9350836020820285016129ed85612916565b8060005b85811015612a295784840389528151612a0a85826129a5565b9450612a15836129b9565b925060208a019950506001810190506129f1565b50829750879550505050505092915050565b60006020820190508181036000830152612a5581846129c6565b905092915050565b600073ffffffffffffffffffffffffffffffffffffffff82169050919050565b6000612a8882612a5d565b9050919050565b612a9881612a7d565b8114612aa357600080fd5b50565b600081359050612ab581612a8f565b92915050565b600080600060608486031215612ad457612ad361251b565b5b6000612ae286828701612aa6565b935050602084013567ffffffffffffffff811115612b0357612b02612520565b5b612b0f86828701612673565b9250506040612b2086828701612546565b9150509250925092565b600080600060608486031215612b4357612b4261251b565b5b6000612b5186828701612546565b9350506020612b6286828701612546565b925050604084013567ffffffffffffffff811115612b8357612b82612520565b5b612b8f86828701612673565b9150509250925092565b60008060408385031215612bb057612baf61251b565b5b6000612bbe85828601612546565b9250506020612bcf85828601612546565b9150509250929050565b60008115159050919050565b612bee81612bd9565b82525050565b6000602082019050612c096000830184612be5565b92915050565b600060208284031215612c2557612c2461251b565b5b6000612c3384828501612546565b91505092915050565b600082825260208201905092915050565b6000612c5882612926565b612c628185612c3c565b9350612c72818560208601612942565b612c7b81612565565b840191505092915050565b60006020820190508181036000830152612ca08184612c4d565b905092915050565b600080600060608486031215612cc157612cc061251b565b5b6000612ccf86828701612546565b935050602084013567ffffffffffffffff811115612cf057612cef612520565b5b612cfc86828701612673565b925050604084013567ffffffffffffffff811115612d1d57612d1c612520565b5b612d2986828701612673565b9150509250925092565b600081519050919050565b600082825260208201905092915050565b6000819050602082019050919050565b612d6881612525565b82525050565b6000612d7a8383612d5f565b60208301905092915050565b6000602082019050919050565b6000612d9e82612d33565b612da88185612d3e565b9350612db383612d4f565b8060005b83811015612de4578151612dcb8882612d6e565b9750612dd683612d86565b925050600181019050612db7565b5085935050505092915050565b60006020820190508181036000830152612e0b8184612d93565b905092915050565b600060029050919050565b600081905092915050565b6000819050919050565b6000602082019050919050565b6000612e4b82612e13565b612e558185612e1e565b935083602082028501612e6785612e29565b8060005b85811015612ea35784840389528151612e8485826129a5565b9450612e8f83612e33565b925060208a01995050600181019050612e6b565b50829750879550505050505092915050565b60006020820190508181036000830152612ecf8184612e40565b905092915050565b600080600060608486031215612ef057612eef61251b565b5b600084013567ffffffffffffffff811115612f0e57612f0d612520565b5b612f1a86828701612673565b9350506020612f2b86828701612546565b9250506040612f3c86828701612546565b9150509250925092565b60008060408385031215612f5d57612f5c61251b565b5b600083013567ffffffffffffffff811115612f7b57612f7a612520565b5b612f8785828601612673565b925050602083013567ffffffffffffffff811115612fa857612fa7612520565b5b612fb485828601612673565b9150509250929050565b600080600060608486031215612fd757612fd661251b565b5b6000612fe586828701612546565b9350506020612ff686828701612546565b925050604061300786828701612546565b9150509250925092565b7f4e487b7100000000000000000000000000000000000000000000000000000000600052602260045260246000fd5b6000600282049050600182168061305857607f821691505b60208210810361306b5761306a613011565b5b50919050565b60008190508160005260206000209050919050565b60006020601f8301049050919050565b600082821b905092915050565b6000600883026130d37fffffffffffffffffffffffffffffffffffffffffffffffffffffffffffffffff82613096565b6130dd8683613096565b95508019841693508086168417925050509392505050565b6000819050919050565b600061311a61311561311084612525565b6130f5565b612525565b9050919050565b6000819050919050565b613134836130ff565b61314861314082613121565b8484546130a3565b825550505050565b600090565b61315d613150565b61316881848461312b565b505050565b5b8181101561318c57613181600082613155565b60018101905061316e565b5050565b601f8211156131d1576131a281613071565b6131ab84613086565b810160208510156131ba578190505b6131ce6131c685613086565b83018261316d565b50505b505050565b600082821c905092915050565b60006131f4600019846008026131d6565b1980831691505092915050565b600061320d83836131e3565b9150826002028217905092915050565b61322682612926565b67ffffffffffffffff81111561323f5761323e612576565b5b6132498254613040565b613254828285613190565b600060209050601f8311600181146132875760008415613275578287015190505b61327f8582613201565b8655506132e7565b601f19841661329586613071565b60005b828110156132bd57848901518255600182019150602085019450602081019050613298565b868310156132da57848901516132d6601f8916826131e3565b8355505b6001600288020188555050505b505050505050565b7f4e487b7100000000000000000000000000000000000000000000000000000000600052601160045260246000fd5b600061332982612525565b91507fffffffffffffffffffffffffffffffffffffffffffffffffffffffffffffffff820361335b5761335a6132ef565b5b600182019050919050565b7f4e487b7100000000000000000000000000000000000000000000000000000000600052603260045260246000fd5b600081905092915050565b60008190508160005260206000209050919050565b600081546133c281613040565b6133cc8186613395565b945060018216600081146133e757600181146133fc5761342f565b60ff198316865281151582028601935061342f565b613405856133a0565b60005b8381101561342757815481890152600182019150602081019050613408565b838801955050505b50505092915050565b600061344482846133b5565b915081905092915050565b7f4e487b7100000000000000000000000000000000000000000000000000000000600052601260045260246000fdfea2646970667358221220c54835fe87bcc47cc8e4a9bbbc0aabe3655c5bebe40f6f8769ce17d22203442464736f6c63430008110033",
          "opcodes": "PUSH1 0x80 PUSH1 0x40 MSTORE CALLVALUE DUP1 ISZERO PUSH2 0x10 JUMPI PUSH1 0x0 DUP1 REVERT JUMPDEST POP PUSH2 0x34B4 DUP1 PUSH2 0x20 PUSH1 0x0 CODECOPY PUSH1 0x0 RETURN INVALID PUSH1 0x80 PUSH1 0x40 MSTORE CALLVALUE DUP1 ISZERO PUSH2 0x10 JUMPI PUSH1 0x0 DUP1 REVERT JUMPDEST POP PUSH1 0x4 CALLDATASIZE LT PUSH2 0x253 JUMPI PUSH1 0x0 CALLDATALOAD PUSH1 0xE0 SHR DUP1 PUSH4 0x7EADFA6A GT PUSH2 0x146 JUMPI DUP1 PUSH4 0xC87B56DD GT PUSH2 0xC3 JUMPI DUP1 PUSH4 0xDFC5E169 GT PUSH2 0x87 JUMPI DUP1 PUSH4 0xDFC5E169 EQ PUSH2 0x7DC JUMPI DUP1 PUSH4 0xE08033D3 EQ PUSH2 0x80C JUMPI DUP1 PUSH4 0xE257A94C EQ PUSH2 0x828 JUMPI DUP1 PUSH4 0xEB1D234D EQ PUSH2 0x858 JUMPI DUP1 PUSH4 0xF3275794 EQ PUSH2 0x888 JUMPI DUP1 PUSH4 0xF880EB19 EQ PUSH2 0x8A4 JUMPI PUSH2 0x253 JUMP JUMPDEST DUP1 PUSH4 0xC87B56DD EQ PUSH2 0x724 JUMPI DUP1 PUSH4 0xCEF80B3A EQ PUSH2 0x754 JUMPI DUP1 PUSH4 0xD45FC516 EQ PUSH2 0x772 JUMPI DUP1 PUSH4 0xD654E993 EQ PUSH2 0x7A2 JUMPI DUP1 PUSH4 0xDCBE2ED9 EQ PUSH2 0x7BE JUMPI PUSH2 0x253 JUMP JUMPDEST DUP1 PUSH4 0xA0FD0C6A GT PUSH2 0x10A JUMPI DUP1 PUSH4 0xA0FD0C6A EQ PUSH2 0x646 JUMPI DUP1 PUSH4 0xA99BEE2E EQ PUSH2 0x676 JUMPI DUP1 PUSH4 0xAED47961 EQ PUSH2 0x694 JUMPI DUP1 PUSH4 0xB10A5DFA EQ PUSH2 0x6C4 JUMPI DUP1 PUSH4 0xC08E953D EQ PUSH2 0x6F4 JUMPI PUSH2 0x253 JUMP JUMPDEST DUP1 PUSH4 0x7EADFA6A EQ PUSH2 0x57C JUMPI DUP1 PUSH4 0x84EB8F68 EQ PUSH2 0x59A JUMPI DUP1 PUSH4 0x912101CF EQ PUSH2 0x5B6 JUMPI DUP1 PUSH4 0x932A196B EQ PUSH2 0x5E6 JUMPI DUP1 PUSH4 0x96D5A739 EQ PUSH2 0x616 JUMPI PUSH2 0x253 JUMP JUMPDEST DUP1 PUSH4 0x3592DD80 GT PUSH2 0x1D4 JUMPI DUP1 PUSH4 0x5154380A GT PUSH2 0x198 JUMPI DUP1 PUSH4 0x5154380A EQ PUSH2 0x4A0 JUMPI DUP1 PUSH4 0x52379627 EQ PUSH2 0x4D0 JUMPI DUP1 PUSH4 0x53C227CC EQ PUSH2 0x500 JUMPI DUP1 PUSH4 0x61958158 EQ PUSH2 0x530 JUMPI DUP1 PUSH4 0x7CEDBC1E EQ PUSH2 0x54C JUMPI PUSH2 0x253 JUMP JUMPDEST DUP1 PUSH4 0x3592DD80 EQ PUSH2 0x3C4 JUMPI DUP1 PUSH4 0x39053271 EQ PUSH2 0x3E0 JUMPI DUP1 PUSH4 0x446A92E3 EQ PUSH2 0x410 JUMPI DUP1 PUSH4 0x4EB083EC EQ PUSH2 0x440 JUMPI DUP1 PUSH4 0x4EF4E80F EQ PUSH2 0x470 JUMPI PUSH2 0x253 JUMP JUMPDEST DUP1 PUSH4 0x1DACC07E GT PUSH2 0x21B JUMPI DUP1 PUSH4 0x1DACC07E EQ PUSH2 0x2E8 JUMPI DUP1 PUSH4 0x1E65E117 EQ PUSH2 0x304 JUMPI DUP1 PUSH4 0x28520AB7 EQ PUSH2 0x334 JUMPI DUP1 PUSH4 0x304B16DB EQ PUSH2 0x364 JUMPI DUP1 PUSH4 0x35011D90 EQ PUSH2 0x394 JUMPI PUSH2 0x253 JUMP JUMPDEST DUP1 PUSH4 0x1538868 EQ PUSH2 0x258 JUMPI DUP1 PUSH4 0xAE240CF EQ PUSH2 0x274 JUMPI DUP1 PUSH4 0x144CBCA6 EQ PUSH2 0x290 JUMPI DUP1 PUSH4 0x1677BF08 EQ PUSH2 0x2AE JUMPI DUP1 PUSH4 0x18160DDD EQ PUSH2 0x2CA JUMPI JUMPDEST PUSH1 0x0 DUP1 REVERT JUMPDEST PUSH2 0x272 PUSH1 0x4 DUP1 CALLDATASIZE SUB DUP2 ADD SWAP1 PUSH2 0x26D SWAP2 SWAP1 PUSH2 0x26A1 JUMP JUMPDEST PUSH2 0x8C2 JUMP JUMPDEST STOP JUMPDEST PUSH2 0x28E PUSH1 0x4 DUP1 CALLDATASIZE SUB DUP2 ADD SWAP1 PUSH2 0x289 SWAP2 SWAP1 PUSH2 0x26FD JUMP JUMPDEST PUSH2 0x8E7 JUMP JUMPDEST STOP JUMPDEST PUSH2 0x298 PUSH2 0x92A JUMP JUMPDEST PUSH1 0x40 MLOAD PUSH2 0x2A5 SWAP2 SWAP1 PUSH2 0x27C7 JUMP JUMPDEST PUSH1 0x40 MLOAD DUP1 SWAP2 SUB SWAP1 RETURN JUMPDEST PUSH2 0x2C8 PUSH1 0x4 DUP1 CALLDATASIZE SUB DUP2 ADD SWAP1 PUSH2 0x2C3 SWAP2 SWAP1 PUSH2 0x26A1 JUMP JUMPDEST PUSH2 0x930 JUMP JUMPDEST STOP JUMPDEST PUSH2 0x2D2 PUSH2 0x955 JUMP JUMPDEST PUSH1 0x40 MLOAD PUSH2 0x2DF SWAP2 SWAP1 PUSH2 0x27C7 JUMP JUMPDEST PUSH1 0x40 MLOAD DUP1 SWAP2 SUB SWAP1 RETURN JUMPDEST PUSH2 0x302 PUSH1 0x4 DUP1 CALLDATASIZE SUB DUP2 ADD SWAP1 PUSH2 0x2FD SWAP2 SWAP1 PUSH2 0x27E2 JUMP JUMPDEST PUSH2 0x95E JUMP JUMPDEST STOP JUMPDEST PUSH2 0x31E PUSH1 0x4 DUP1 CALLDATASIZE SUB DUP2 ADD SWAP1 PUSH2 0x319 SWAP2 SWAP1 PUSH2 0x28B1 JUMP JUMPDEST PUSH2 0xA82 JUMP JUMPDEST PUSH1 0x40 MLOAD PUSH2 0x32B SWAP2 SWAP1 PUSH2 0x2A3B JUMP JUMPDEST PUSH1 0x40 MLOAD DUP1 SWAP2 SUB SWAP1 RETURN JUMPDEST PUSH2 0x34E PUSH1 0x4 DUP1 CALLDATASIZE SUB DUP2 ADD SWAP1 PUSH2 0x349 SWAP2 SWAP1 PUSH2 0x26A1 JUMP JUMPDEST PUSH2 0xCA4 JUMP JUMPDEST PUSH1 0x40 MLOAD PUSH2 0x35B SWAP2 SWAP1 PUSH2 0x27C7 JUMP JUMPDEST PUSH1 0x40 MLOAD DUP1 SWAP2 SUB SWAP1 RETURN JUMPDEST PUSH2 0x37E PUSH1 0x4 DUP1 CALLDATASIZE SUB DUP2 ADD SWAP1 PUSH2 0x379 SWAP2 SWAP1 PUSH2 0x28B1 JUMP JUMPDEST PUSH2 0xD7D JUMP JUMPDEST PUSH1 0x40 MLOAD PUSH2 0x38B SWAP2 SWAP1 PUSH2 0x27C7 JUMP JUMPDEST PUSH1 0x40 MLOAD DUP1 SWAP2 SUB SWAP1 RETURN JUMPDEST PUSH2 0x3AE PUSH1 0x4 DUP1 CALLDATASIZE SUB DUP2 ADD SWAP1 PUSH2 0x3A9 SWAP2 SWAP1 PUSH2 0x2ABB JUMP JUMPDEST PUSH2 0xDFF JUMP JUMPDEST PUSH1 0x40 MLOAD PUSH2 0x3BB SWAP2 SWAP1 PUSH2 0x27C7 JUMP JUMPDEST PUSH1 0x40 MLOAD DUP1 SWAP2 SUB SWAP1 RETURN JUMPDEST PUSH2 0x3DE PUSH1 0x4 DUP1 CALLDATASIZE SUB DUP2 ADD SWAP1 PUSH2 0x3D9 SWAP2 SWAP1 PUSH2 0x2B2A JUMP JUMPDEST PUSH2 0xE55 JUMP JUMPDEST STOP JUMPDEST PUSH2 0x3FA PUSH1 0x4 DUP1 CALLDATASIZE SUB DUP2 ADD SWAP1 PUSH2 0x3F5 SWAP2 SWAP1 PUSH2 0x2B99 JUMP JUMPDEST PUSH2 0xE99 JUMP JUMPDEST PUSH1 0x40 MLOAD PUSH2 0x407 SWAP2 SWAP1 PUSH2 0x2BF4 JUMP JUMPDEST PUSH1 0x40 MLOAD DUP1 SWAP2 SUB SWAP1 RETURN JUMPDEST PUSH2 0x42A PUSH1 0x4 DUP1 CALLDATASIZE SUB DUP2 ADD SWAP1 PUSH2 0x425 SWAP2 SWAP1 PUSH2 0x2C0F JUMP JUMPDEST PUSH2 0xF35 JUMP JUMPDEST PUSH1 0x40 MLOAD PUSH2 0x437 SWAP2 SWAP1 PUSH2 0x2C86 JUMP JUMPDEST PUSH1 0x40 MLOAD DUP1 SWAP2 SUB SWAP1 RETURN JUMPDEST PUSH2 0x45A PUSH1 0x4 DUP1 CALLDATASIZE SUB DUP2 ADD SWAP1 PUSH2 0x455 SWAP2 SWAP1 PUSH2 0x2C0F JUMP JUMPDEST PUSH2 0xFDA JUMP JUMPDEST PUSH1 0x40 MLOAD PUSH2 0x467 SWAP2 SWAP1 PUSH2 0x2C86 JUMP JUMPDEST PUSH1 0x40 MLOAD DUP1 SWAP2 SUB SWAP1 RETURN JUMPDEST PUSH2 0x48A PUSH1 0x4 DUP1 CALLDATASIZE SUB DUP2 ADD SWAP1 PUSH2 0x485 SWAP2 SWAP1 PUSH2 0x2B99 JUMP JUMPDEST PUSH2 0x107F JUMP JUMPDEST PUSH1 0x40 MLOAD PUSH2 0x497 SWAP2 SWAP1 PUSH2 0x27C7 JUMP JUMPDEST PUSH1 0x40 MLOAD DUP1 SWAP2 SUB SWAP1 RETURN JUMPDEST PUSH2 0x4BA PUSH1 0x4 DUP1 CALLDATASIZE SUB DUP2 ADD SWAP1 PUSH2 0x4B5 SWAP2 SWAP1 PUSH2 0x2C0F JUMP JUMPDEST PUSH2 0x10B1 JUMP JUMPDEST PUSH1 0x40 MLOAD PUSH2 0x4C7 SWAP2 SWAP1 PUSH2 0x2A3B JUMP JUMPDEST PUSH1 0x40 MLOAD DUP1 SWAP2 SUB SWAP1 RETURN JUMPDEST PUSH2 0x4EA PUSH1 0x4 DUP1 CALLDATASIZE SUB DUP2 ADD SWAP1 PUSH2 0x4E5 SWAP2 SWAP1 PUSH2 0x28B1 JUMP JUMPDEST PUSH2 0x1260 JUMP JUMPDEST PUSH1 0x40 MLOAD PUSH2 0x4F7 SWAP2 SWAP1 PUSH2 0x27C7 JUMP JUMPDEST PUSH1 0x40 MLOAD DUP1 SWAP2 SUB SWAP1 RETURN JUMPDEST PUSH2 0x51A PUSH1 0x4 DUP1 CALLDATASIZE SUB DUP2 ADD SWAP1 PUSH2 0x515 SWAP2 SWAP1 PUSH2 0x2C0F JUMP JUMPDEST PUSH2 0x1290 JUMP JUMPDEST PUSH1 0x40 MLOAD PUSH2 0x527 SWAP2 SWAP1 PUSH2 0x2C86 JUMP JUMPDEST PUSH1 0x40 MLOAD DUP1 SWAP2 SUB SWAP1 RETURN JUMPDEST PUSH2 0x54A PUSH1 0x4 DUP1 CALLDATASIZE SUB DUP2 ADD SWAP1 PUSH2 0x545 SWAP2 SWAP1 PUSH2 0x2CA8 JUMP JUMPDEST PUSH2 0x1330 JUMP JUMPDEST STOP JUMPDEST PUSH2 0x566 PUSH1 0x4 DUP1 CALLDATASIZE SUB DUP2 ADD SWAP1 PUSH2 0x561 SWAP2 SWAP1 PUSH2 0x2C0F JUMP JUMPDEST PUSH2 0x13C2 JUMP JUMPDEST PUSH1 0x40 MLOAD PUSH2 0x573 SWAP2 SWAP1 PUSH2 0x2C86 JUMP JUMPDEST PUSH1 0x40 MLOAD DUP1 SWAP2 SUB SWAP1 RETURN JUMPDEST PUSH2 0x584 PUSH2 0x147B JUMP JUMPDEST PUSH1 0x40 MLOAD PUSH2 0x591 SWAP2 SWAP1 PUSH2 0x27C7 JUMP JUMPDEST PUSH1 0x40 MLOAD DUP1 SWAP2 SUB SWAP1 RETURN JUMPDEST PUSH2 0x5B4 PUSH1 0x4 DUP1 CALLDATASIZE SUB DUP2 ADD SWAP1 PUSH2 0x5AF SWAP2 SWAP1 PUSH2 0x26A1 JUMP JUMPDEST PUSH2 0x1485 JUMP JUMPDEST STOP JUMPDEST PUSH2 0x5D0 PUSH1 0x4 DUP1 CALLDATASIZE SUB DUP2 ADD SWAP1 PUSH2 0x5CB SWAP2 SWAP1 PUSH2 0x2B99 JUMP JUMPDEST PUSH2 0x14AA JUMP JUMPDEST PUSH1 0x40 MLOAD PUSH2 0x5DD SWAP2 SWAP1 PUSH2 0x2A3B JUMP JUMPDEST PUSH1 0x40 MLOAD DUP1 SWAP2 SUB SWAP1 RETURN JUMPDEST PUSH2 0x600 PUSH1 0x4 DUP1 CALLDATASIZE SUB DUP2 ADD SWAP1 PUSH2 0x5FB SWAP2 SWAP1 PUSH2 0x28B1 JUMP JUMPDEST PUSH2 0x1789 JUMP JUMPDEST PUSH1 0x40 MLOAD PUSH2 0x60D SWAP2 SWAP1 PUSH2 0x27C7 JUMP JUMPDEST PUSH1 0x40 MLOAD DUP1 SWAP2 SUB SWAP1 RETURN JUMPDEST PUSH2 0x630 PUSH1 0x4 DUP1 CALLDATASIZE SUB DUP2 ADD SWAP1 PUSH2 0x62B SWAP2 SWAP1 PUSH2 0x2C0F JUMP JUMPDEST PUSH2 0x17F7 JUMP JUMPDEST PUSH1 0x40 MLOAD PUSH2 0x63D SWAP2 SWAP1 PUSH2 0x2DF1 JUMP JUMPDEST PUSH1 0x40 MLOAD DUP1 SWAP2 SUB SWAP1 RETURN JUMPDEST PUSH2 0x660 PUSH1 0x4 DUP1 CALLDATASIZE SUB DUP2 ADD SWAP1 PUSH2 0x65B SWAP2 SWAP1 PUSH2 0x2C0F JUMP JUMPDEST PUSH2 0x1957 JUMP JUMPDEST PUSH1 0x40 MLOAD PUSH2 0x66D SWAP2 SWAP1 PUSH2 0x2EB5 JUMP JUMPDEST PUSH1 0x40 MLOAD DUP1 SWAP2 SUB SWAP1 RETURN JUMPDEST PUSH2 0x67E PUSH2 0x1A37 JUMP JUMPDEST PUSH1 0x40 MLOAD PUSH2 0x68B SWAP2 SWAP1 PUSH2 0x27C7 JUMP JUMPDEST PUSH1 0x40 MLOAD DUP1 SWAP2 SUB SWAP1 RETURN JUMPDEST PUSH2 0x6AE PUSH1 0x4 DUP1 CALLDATASIZE SUB DUP2 ADD SWAP1 PUSH2 0x6A9 SWAP2 SWAP1 PUSH2 0x2C0F JUMP JUMPDEST PUSH2 0x1A3D JUMP JUMPDEST PUSH1 0x40 MLOAD PUSH2 0x6BB SWAP2 SWAP1 PUSH2 0x2A3B JUMP JUMPDEST PUSH1 0x40 MLOAD DUP1 SWAP2 SUB SWAP1 RETURN JUMPDEST PUSH2 0x6DE PUSH1 0x4 DUP1 CALLDATASIZE SUB DUP2 ADD SWAP1 PUSH2 0x6D9 SWAP2 SWAP1 PUSH2 0x2B99 JUMP JUMPDEST PUSH2 0x1BEC JUMP JUMPDEST PUSH1 0x40 MLOAD PUSH2 0x6EB SWAP2 SWAP1 PUSH2 0x2C86 JUMP JUMPDEST PUSH1 0x40 MLOAD DUP1 SWAP2 SUB SWAP1 RETURN JUMPDEST PUSH2 0x70E PUSH1 0x4 DUP1 CALLDATASIZE SUB DUP2 ADD SWAP1 PUSH2 0x709 SWAP2 SWAP1 PUSH2 0x2ED7 JUMP JUMPDEST PUSH2 0x1C9C JUMP JUMPDEST PUSH1 0x40 MLOAD PUSH2 0x71B SWAP2 SWAP1 PUSH2 0x27C7 JUMP JUMPDEST PUSH1 0x40 MLOAD DUP1 SWAP2 SUB SWAP1 RETURN JUMPDEST PUSH2 0x73E PUSH1 0x4 DUP1 CALLDATASIZE SUB DUP2 ADD SWAP1 PUSH2 0x739 SWAP2 SWAP1 PUSH2 0x2C0F JUMP JUMPDEST PUSH2 0x1CE0 JUMP JUMPDEST PUSH1 0x40 MLOAD PUSH2 0x74B SWAP2 SWAP1 PUSH2 0x2C86 JUMP JUMPDEST PUSH1 0x40 MLOAD DUP1 SWAP2 SUB SWAP1 RETURN JUMPDEST PUSH2 0x75C PUSH2 0x1D85 JUMP JUMPDEST PUSH1 0x40 MLOAD PUSH2 0x769 SWAP2 SWAP1 PUSH2 0x27C7 JUMP JUMPDEST PUSH1 0x40 MLOAD DUP1 SWAP2 SUB SWAP1 RETURN JUMPDEST PUSH2 0x78C PUSH1 0x4 DUP1 CALLDATASIZE SUB DUP2 ADD SWAP1 PUSH2 0x787 SWAP2 SWAP1 PUSH2 0x28B1 JUMP JUMPDEST PUSH2 0x1D8B JUMP JUMPDEST PUSH1 0x40 MLOAD PUSH2 0x799 SWAP2 SWAP1 PUSH2 0x27C7 JUMP JUMPDEST PUSH1 0x40 MLOAD DUP1 SWAP2 SUB SWAP1 RETURN JUMPDEST PUSH2 0x7BC PUSH1 0x4 DUP1 CALLDATASIZE SUB DUP2 ADD SWAP1 PUSH2 0x7B7 SWAP2 SWAP1 PUSH2 0x2B2A JUMP JUMPDEST PUSH2 0x1DF9 JUMP JUMPDEST STOP JUMPDEST PUSH2 0x7C6 PUSH2 0x1E3D JUMP JUMPDEST PUSH1 0x40 MLOAD PUSH2 0x7D3 SWAP2 SWAP1 PUSH2 0x27C7 JUMP JUMPDEST PUSH1 0x40 MLOAD DUP1 SWAP2 SUB SWAP1 RETURN JUMPDEST PUSH2 0x7F6 PUSH1 0x4 DUP1 CALLDATASIZE SUB DUP2 ADD SWAP1 PUSH2 0x7F1 SWAP2 SWAP1 PUSH2 0x2C0F JUMP JUMPDEST PUSH2 0x1E43 JUMP JUMPDEST PUSH1 0x40 MLOAD PUSH2 0x803 SWAP2 SWAP1 PUSH2 0x2C86 JUMP JUMPDEST PUSH1 0x40 MLOAD DUP1 SWAP2 SUB SWAP1 RETURN JUMPDEST PUSH2 0x826 PUSH1 0x4 DUP1 CALLDATASIZE SUB DUP2 ADD SWAP1 PUSH2 0x821 SWAP2 SWAP1 PUSH2 0x26A1 JUMP JUMPDEST PUSH2 0x1EE3 JUMP JUMPDEST STOP JUMPDEST PUSH2 0x842 PUSH1 0x4 DUP1 CALLDATASIZE SUB DUP2 ADD SWAP1 PUSH2 0x83D SWAP2 SWAP1 PUSH2 0x2F46 JUMP JUMPDEST PUSH2 0x1F08 JUMP JUMPDEST PUSH1 0x40 MLOAD PUSH2 0x84F SWAP2 SWAP1 PUSH2 0x27C7 JUMP JUMPDEST PUSH1 0x40 MLOAD DUP1 SWAP2 SUB SWAP1 RETURN JUMPDEST PUSH2 0x872 PUSH1 0x4 DUP1 CALLDATASIZE SUB DUP2 ADD SWAP1 PUSH2 0x86D SWAP2 SWAP1 PUSH2 0x2C0F JUMP JUMPDEST PUSH2 0x1F7B JUMP JUMPDEST PUSH1 0x40 MLOAD PUSH2 0x87F SWAP2 SWAP1 PUSH2 0x2A3B JUMP JUMPDEST PUSH1 0x40 MLOAD DUP1 SWAP2 SUB SWAP1 RETURN JUMPDEST PUSH2 0x8A2 PUSH1 0x4 DUP1 CALLDATASIZE SUB DUP2 ADD SWAP1 PUSH2 0x89D SWAP2 SWAP1 PUSH2 0x2FBE JUMP JUMPDEST PUSH2 0x212A JUMP JUMPDEST STOP JUMPDEST PUSH2 0x8AC PUSH2 0x2166 JUMP JUMPDEST PUSH1 0x40 MLOAD PUSH2 0x8B9 SWAP2 SWAP1 PUSH2 0x27C7 JUMP JUMPDEST PUSH1 0x40 MLOAD DUP1 SWAP2 SUB SWAP1 RETURN JUMPDEST DUP1 PUSH1 0xF PUSH1 0x0 DUP5 DUP2 MSTORE PUSH1 0x20 ADD SWAP1 DUP2 MSTORE PUSH1 0x20 ADD PUSH1 0x0 KECCAK256 SWAP1 DUP2 PUSH2 0x8E2 SWAP2 SWAP1 PUSH2 0x321D JUMP JUMPDEST POP POP POP JUMP JUMPDEST PUSH1 0x40 MLOAD DUP1 PUSH1 0x60 ADD PUSH1 0x40 MSTORE DUP1 DUP3 DUP2 MSTORE PUSH1 0x20 ADD DUP4 DUP2 MSTORE PUSH1 0x20 ADD DUP5 DUP2 MSTORE POP PUSH1 0xA PUSH1 0x0 DUP7 DUP2 MSTORE PUSH1 0x20 ADD SWAP1 DUP2 MSTORE PUSH1 0x20 ADD PUSH1 0x0 KECCAK256 SWAP1 PUSH1 0x3 PUSH2 0x923 SWAP3 SWAP2 SWAP1 PUSH2 0x2391 JUMP JUMPDEST POP POP POP POP POP JUMP JUMPDEST PUSH1 0x8 SLOAD DUP2 JUMP JUMPDEST DUP1 PUSH1 0x13 PUSH1 0x0 DUP5 DUP2 MSTORE PUSH1 0x20 ADD SWAP1 DUP2 MSTORE PUSH1 0x20 ADD PUSH1 0x0 KECCAK256 SWAP1 DUP2 PUSH2 0x950 SWAP2 SWAP1 PUSH2 0x321D JUMP JUMPDEST POP POP POP JUMP JUMPDEST PUSH1 0x0 DUP1 SLOAD SWAP1 POP SWAP1 JUMP JUMPDEST PUSH1 0x0 PUSH2 0xA05 DUP4 PUSH1 0xF PUSH1 0x0 DUP10 DUP2 MSTORE PUSH1 0x20 ADD SWAP1 DUP2 MSTORE PUSH1 0x20 ADD PUSH1 0x0 KECCAK256 DUP1 SLOAD PUSH2 0x982 SWAP1 PUSH2 0x3040 JUMP JUMPDEST DUP1 PUSH1 0x1F ADD PUSH1 0x20 DUP1 SWAP2 DIV MUL PUSH1 0x20 ADD PUSH1 0x40 MLOAD SWAP1 DUP2 ADD PUSH1 0x40 MSTORE DUP1 SWAP3 SWAP2 SWAP1 DUP2 DUP2 MSTORE PUSH1 0x20 ADD DUP3 DUP1 SLOAD PUSH2 0x9AE SWAP1 PUSH2 0x3040 JUMP JUMPDEST DUP1 ISZERO PUSH2 0x9FB JUMPI DUP1 PUSH1 0x1F LT PUSH2 0x9D0 JUMPI PUSH2 0x100 DUP1 DUP4 SLOAD DIV MUL DUP4 MSTORE SWAP2 PUSH1 0x20 ADD SWAP2 PUSH2 0x9FB JUMP JUMPDEST DUP3 ADD SWAP2 SWAP1 PUSH1 0x0 MSTORE PUSH1 0x20 PUSH1 0x0 KECCAK256 SWAP1 JUMPDEST DUP2 SLOAD DUP2 MSTORE SWAP1 PUSH1 0x1 ADD SWAP1 PUSH1 0x20 ADD DUP1 DUP4 GT PUSH2 0x9DE JUMPI DUP3 SWAP1 SUB PUSH1 0x1F AND DUP3 ADD SWAP2 JUMPDEST POP POP POP POP POP PUSH2 0xCA4 JUMP JUMPDEST SWAP1 POP DUP4 PUSH1 0xF PUSH1 0x0 DUP9 DUP2 MSTORE PUSH1 0x20 ADD SWAP1 DUP2 MSTORE PUSH1 0x20 ADD PUSH1 0x0 KECCAK256 SWAP1 DUP2 PUSH2 0xA27 SWAP2 SWAP1 PUSH2 0x321D JUMP JUMPDEST POP PUSH2 0xA33 DUP2 DUP5 DUP7 PUSH2 0xE55 JUMP JUMPDEST PUSH2 0xA3D DUP4 DUP4 PUSH2 0x930 JUMP JUMPDEST PUSH2 0xA4A PUSH1 0x7 SLOAD DUP8 DUP8 PUSH2 0x1DF9 JUMP JUMPDEST PUSH1 0x7 PUSH1 0x0 DUP2 SLOAD DUP1 SWAP3 SWAP2 SWAP1 PUSH2 0xA5D SWAP1 PUSH2 0x331E JUMP JUMPDEST SWAP2 SWAP1 POP SSTORE POP PUSH1 0x1 PUSH1 0x0 DUP2 SLOAD DUP1 SWAP3 SWAP2 SWAP1 PUSH2 0xA75 SWAP1 PUSH2 0x331E JUMP JUMPDEST SWAP2 SWAP1 POP SSTORE POP POP POP POP POP POP POP JUMP JUMPDEST PUSH1 0x60 PUSH1 0x0 DUP1 PUSH1 0x0 JUMPDEST PUSH1 0x2 SLOAD DUP2 LT ISZERO PUSH2 0xAFF JUMPI DUP5 DUP1 MLOAD SWAP1 PUSH1 0x20 ADD KECCAK256 PUSH1 0x10 PUSH1 0x0 DUP4 DUP2 MSTORE PUSH1 0x20 ADD SWAP1 DUP2 MSTORE PUSH1 0x20 ADD PUSH1 0x0 KECCAK256 PUSH1 0x0 PUSH1 0x2 DUP2 LT PUSH2 0xAC2 JUMPI PUSH2 0xAC1 PUSH2 0x3366 JUMP JUMPDEST JUMPDEST ADD PUSH1 0x40 MLOAD PUSH2 0xAD0 SWAP2 SWAP1 PUSH2 0x3438 JUMP JUMPDEST PUSH1 0x40 MLOAD DUP1 SWAP2 SUB SWAP1 KECCAK256 SUB PUSH2 0xAEC JUMPI DUP3 DUP1 PUSH2 0xAE8 SWAP1 PUSH2 0x331E JUMP JUMPDEST SWAP4 POP POP JUMPDEST DUP1 DUP1 PUSH2 0xAF7 SWAP1 PUSH2 0x331E JUMP JUMPDEST SWAP2 POP POP PUSH2 0xA8A JUMP JUMPDEST POP PUSH1 0x0 DUP3 PUSH8 0xFFFFFFFFFFFFFFFF DUP2 GT ISZERO PUSH2 0xB1C JUMPI PUSH2 0xB1B PUSH2 0x2576 JUMP JUMPDEST JUMPDEST PUSH1 0x40 MLOAD SWAP1 DUP1 DUP3 MSTORE DUP1 PUSH1 0x20 MUL PUSH1 0x20 ADD DUP3 ADD PUSH1 0x40 MSTORE DUP1 ISZERO PUSH2 0xB4F JUMPI DUP2 PUSH1 0x20 ADD JUMPDEST PUSH1 0x60 DUP2 MSTORE PUSH1 0x20 ADD SWAP1 PUSH1 0x1 SWAP1 SUB SWAP1 DUP2 PUSH2 0xB3A JUMPI SWAP1 POP JUMPDEST POP SWAP1 POP PUSH1 0x0 JUMPDEST PUSH1 0x2 SLOAD DUP2 LT ISZERO PUSH2 0xC98 JUMPI DUP6 DUP1 MLOAD SWAP1 PUSH1 0x20 ADD KECCAK256 PUSH1 0x10 PUSH1 0x0 DUP4 DUP2 MSTORE PUSH1 0x20 ADD SWAP1 DUP2 MSTORE PUSH1 0x20 ADD PUSH1 0x0 KECCAK256 PUSH1 0x0 PUSH1 0x2 DUP2 LT PUSH2 0xB8D JUMPI PUSH2 0xB8C PUSH2 0x3366 JUMP JUMPDEST JUMPDEST ADD PUSH1 0x40 MLOAD PUSH2 0xB9B SWAP2 SWAP1 PUSH2 0x3438 JUMP JUMPDEST PUSH1 0x40 MLOAD DUP1 SWAP2 SUB SWAP1 KECCAK256 SUB PUSH2 0xC85 JUMPI PUSH1 0x10 PUSH1 0x0 DUP3 DUP2 MSTORE PUSH1 0x20 ADD SWAP1 DUP2 MSTORE PUSH1 0x20 ADD PUSH1 0x0 KECCAK256 PUSH1 0x1 PUSH1 0x2 DUP2 LT PUSH2 0xBCE JUMPI PUSH2 0xBCD PUSH2 0x3366 JUMP JUMPDEST JUMPDEST ADD DUP1 SLOAD PUSH2 0xBDA SWAP1 PUSH2 0x3040 JUMP JUMPDEST DUP1 PUSH1 0x1F ADD PUSH1 0x20 DUP1 SWAP2 DIV MUL PUSH1 0x20 ADD PUSH1 0x40 MLOAD SWAP1 DUP2 ADD PUSH1 0x40 MSTORE DUP1 SWAP3 SWAP2 SWAP1 DUP2 DUP2 MSTORE PUSH1 0x20 ADD DUP3 DUP1 SLOAD PUSH2 0xC06 SWAP1 PUSH2 0x3040 JUMP JUMPDEST DUP1 ISZERO PUSH2 0xC53 JUMPI DUP1 PUSH1 0x1F LT PUSH2 0xC28 JUMPI PUSH2 0x100 DUP1 DUP4 SLOAD DIV MUL DUP4 MSTORE SWAP2 PUSH1 0x20 ADD SWAP2 PUSH2 0xC53 JUMP JUMPDEST DUP3 ADD SWAP2 SWAP1 PUSH1 0x0 MSTORE PUSH1 0x20 PUSH1 0x0 KECCAK256 SWAP1 JUMPDEST DUP2 SLOAD DUP2 MSTORE SWAP1 PUSH1 0x1 ADD SWAP1 PUSH1 0x20 ADD DUP1 DUP4 GT PUSH2 0xC36 JUMPI DUP3 SWAP1 SUB PUSH1 0x1F AND DUP3 ADD SWAP2 JUMPDEST POP POP POP POP POP DUP3 DUP5 DUP2 MLOAD DUP2 LT PUSH2 0xC6B JUMPI PUSH2 0xC6A PUSH2 0x3366 JUMP JUMPDEST JUMPDEST PUSH1 0x20 MUL PUSH1 0x20 ADD ADD DUP2 SWAP1 MSTORE POP DUP3 DUP1 PUSH2 0xC81 SWAP1 PUSH2 0x331E JUMP JUMPDEST SWAP4 POP POP JUMPDEST DUP1 DUP1 PUSH2 0xC90 SWAP1 PUSH2 0x331E JUMP JUMPDEST SWAP2 POP POP PUSH2 0xB55 JUMP JUMPDEST POP DUP1 SWAP4 POP POP POP POP SWAP2 SWAP1 POP JUMP JUMPDEST PUSH1 0x0 DUP1 PUSH1 0x0 SWAP1 POP JUMPDEST PUSH1 0x6 SLOAD DUP2 LT ISZERO PUSH2 0xD71 JUMPI PUSH2 0xCBF DUP5 PUSH2 0x2170 JUMP JUMPDEST DUP1 MLOAD SWAP1 PUSH1 0x20 ADD KECCAK256 PUSH1 0x9 PUSH1 0x0 DUP4 DUP2 MSTORE PUSH1 0x20 ADD SWAP1 DUP2 MSTORE PUSH1 0x20 ADD PUSH1 0x0 KECCAK256 PUSH1 0x0 PUSH1 0x2 DUP2 LT PUSH2 0xCEC JUMPI PUSH2 0xCEB PUSH2 0x3366 JUMP JUMPDEST JUMPDEST ADD PUSH1 0x40 MLOAD PUSH2 0xCFA SWAP2 SWAP1 PUSH2 0x3438 JUMP JUMPDEST PUSH1 0x40 MLOAD DUP1 SWAP2 SUB SWAP1 KECCAK256 EQ DUP1 ISZERO PUSH2 0xD50 JUMPI POP DUP3 DUP1 MLOAD SWAP1 PUSH1 0x20 ADD KECCAK256 PUSH1 0x9 PUSH1 0x0 DUP4 DUP2 MSTORE PUSH1 0x20 ADD SWAP1 DUP2 MSTORE PUSH1 0x20 ADD PUSH1 0x0 KECCAK256 PUSH1 0x1 PUSH1 0x2 DUP2 LT PUSH2 0xD38 JUMPI PUSH2 0xD37 PUSH2 0x3366 JUMP JUMPDEST JUMPDEST ADD PUSH1 0x40 MLOAD PUSH2 0xD46 SWAP2 SWAP1 PUSH2 0x3438 JUMP JUMPDEST PUSH1 0x40 MLOAD DUP1 SWAP2 SUB SWAP1 KECCAK256 EQ JUMPDEST ISZERO PUSH2 0xD5E JUMPI DUP1 SWAP2 POP POP PUSH2 0xD77 JUMP JUMPDEST DUP1 DUP1 PUSH2 0xD69 SWAP1 PUSH2 0x331E JUMP JUMPDEST SWAP2 POP POP PUSH2 0xCAC JUMP JUMPDEST POP PUSH1 0x0 SWAP1 POP JUMPDEST SWAP3 SWAP2 POP POP JUMP JUMPDEST PUSH1 0x0 DUP1 PUSH1 0x0 SWAP1 POP JUMPDEST PUSH1 0x2 SLOAD DUP2 LT ISZERO PUSH2 0xDF4 JUMPI DUP3 DUP1 MLOAD SWAP1 PUSH1 0x20 ADD KECCAK256 PUSH1 0x10 PUSH1 0x0 DUP4 DUP2 MSTORE PUSH1 0x20 ADD SWAP1 DUP2 MSTORE PUSH1 0x20 ADD PUSH1 0x0 KECCAK256 PUSH1 0x1 PUSH1 0x2 DUP2 LT PUSH2 0xDBD JUMPI PUSH2 0xDBC PUSH2 0x3366 JUMP JUMPDEST JUMPDEST ADD PUSH1 0x40 MLOAD PUSH2 0xDCB SWAP2 SWAP1 PUSH2 0x3438 JUMP JUMPDEST PUSH1 0x40 MLOAD DUP1 SWAP2 SUB SWAP1 KECCAK256 SUB PUSH2 0xDE1 JUMPI DUP1 SWAP2 POP POP PUSH2 0xDFA JUMP JUMPDEST DUP1 DUP1 PUSH2 0xDEC SWAP1 PUSH2 0x331E JUMP JUMPDEST SWAP2 POP POP PUSH2 0xD85 JUMP JUMPDEST POP PUSH1 0x0 SWAP1 POP JUMPDEST SWAP2 SWAP1 POP JUMP JUMPDEST PUSH1 0x0 PUSH2 0xE0D PUSH1 0x0 SLOAD DUP5 PUSH2 0x8C2 JUMP JUMPDEST PUSH2 0xE1A PUSH1 0x6 SLOAD DUP4 DUP6 PUSH2 0xE55 JUMP JUMPDEST PUSH1 0x0 DUP1 DUP2 SLOAD DUP1 SWAP3 SWAP2 SWAP1 PUSH2 0xE2C SWAP1 PUSH2 0x331E JUMP JUMPDEST SWAP2 SWAP1 POP SSTORE POP PUSH1 0x6 PUSH1 0x0 DUP2 SLOAD DUP1 SWAP3 SWAP2 SWAP1 PUSH2 0xE44 SWAP1 PUSH2 0x331E JUMP JUMPDEST SWAP2 SWAP1 POP SSTORE POP PUSH1 0x0 SLOAD SWAP1 POP SWAP4 SWAP3 POP POP POP JUMP JUMPDEST PUSH1 0x40 MLOAD DUP1 PUSH1 0x40 ADD PUSH1 0x40 MSTORE DUP1 PUSH2 0xE69 DUP5 PUSH2 0x2170 JUMP JUMPDEST DUP2 MSTORE PUSH1 0x20 ADD DUP3 DUP2 MSTORE POP PUSH1 0x9 PUSH1 0x0 DUP6 DUP2 MSTORE PUSH1 0x20 ADD SWAP1 DUP2 MSTORE PUSH1 0x20 ADD PUSH1 0x0 KECCAK256 SWAP1 PUSH1 0x2 PUSH2 0xE93 SWAP3 SWAP2 SWAP1 PUSH2 0x23DD JUMP JUMPDEST POP POP POP POP JUMP JUMPDEST PUSH1 0x0 DUP1 PUSH1 0x0 SWAP1 POP JUMPDEST PUSH1 0x4 SLOAD DUP2 LT ISZERO PUSH2 0xF29 JUMPI DUP4 PUSH1 0xB PUSH1 0x0 DUP4 DUP2 MSTORE PUSH1 0x20 ADD SWAP1 DUP2 MSTORE PUSH1 0x20 ADD PUSH1 0x0 KECCAK256 PUSH1 0x0 PUSH1 0x2 DUP2 LT PUSH2 0xED2 JUMPI PUSH2 0xED1 PUSH2 0x3366 JUMP JUMPDEST JUMPDEST ADD SLOAD EQ DUP1 ISZERO PUSH2 0xF07 JUMPI POP DUP3 PUSH1 0xB PUSH1 0x0 DUP4 DUP2 MSTORE PUSH1 0x20 ADD SWAP1 DUP2 MSTORE PUSH1 0x20 ADD PUSH1 0x0 KECCAK256 PUSH1 0x1 PUSH1 0x2 DUP2 LT PUSH2 0xF03 JUMPI PUSH2 0xF02 PUSH2 0x3366 JUMP JUMPDEST JUMPDEST ADD SLOAD EQ JUMPDEST ISZERO PUSH2 0xF16 JUMPI PUSH1 0x1 SWAP2 POP POP PUSH2 0xF2F JUMP JUMPDEST DUP1 DUP1 PUSH2 0xF21 SWAP1 PUSH2 0x331E JUMP JUMPDEST SWAP2 POP POP PUSH2 0xEA1 JUMP JUMPDEST POP PUSH1 0x0 SWAP1 POP JUMPDEST SWAP3 SWAP2 POP POP JUMP JUMPDEST PUSH1 0x60 PUSH1 0xE PUSH1 0x0 DUP4 DUP2 MSTORE PUSH1 0x20 ADD SWAP1 DUP2 MSTORE PUSH1 0x20 ADD PUSH1 0x0 KECCAK256 DUP1 SLOAD PUSH2 0xF55 SWAP1 PUSH2 0x3040 JUMP JUMPDEST DUP1 PUSH1 0x1F ADD PUSH1 0x20 DUP1 SWAP2 DIV MUL PUSH1 0x20 ADD PUSH1 0x40 MLOAD SWAP1 DUP2 ADD PUSH1 0x40 MSTORE DUP1 SWAP3 SWAP2 SWAP1 DUP2 DUP2 MSTORE PUSH1 0x20 ADD DUP3 DUP1 SLOAD PUSH2 0xF81 SWAP1 PUSH2 0x3040 JUMP JUMPDEST DUP1 ISZERO PUSH2 0xFCE JUMPI DUP1 PUSH1 0x1F LT PUSH2 0xFA3 JUMPI PUSH2 0x100 DUP1 DUP4 SLOAD DIV MUL DUP4 MSTORE SWAP2 PUSH1 0x20 ADD SWAP2 PUSH2 0xFCE JUMP JUMPDEST DUP3 ADD SWAP2 SWAP1 PUSH1 0x0 MSTORE PUSH1 0x20 PUSH1 0x0 KECCAK256 SWAP1 JUMPDEST DUP2 SLOAD DUP2 MSTORE SWAP1 PUSH1 0x1 ADD SWAP1 PUSH1 0x20 ADD DUP1 DUP4 GT PUSH2 0xFB1 JUMPI DUP3 SWAP1 SUB PUSH1 0x1F AND DUP3 ADD SWAP2 JUMPDEST POP POP POP POP POP SWAP1 POP SWAP2 SWAP1 POP JUMP JUMPDEST PUSH1 0x60 PUSH1 0x13 PUSH1 0x0 DUP4 DUP2 MSTORE PUSH1 0x20 ADD SWAP1 DUP2 MSTORE PUSH1 0x20 ADD PUSH1 0x0 KECCAK256 DUP1 SLOAD PUSH2 0xFFA SWAP1 PUSH2 0x3040 JUMP JUMPDEST DUP1 PUSH1 0x1F ADD PUSH1 0x20 DUP1 SWAP2 DIV MUL PUSH1 0x20 ADD PUSH1 0x40 MLOAD SWAP1 DUP2 ADD PUSH1 0x40 MSTORE DUP1 SWAP3 SWAP2 SWAP1 DUP2 DUP2 MSTORE PUSH1 0x20 ADD DUP3 DUP1 SLOAD PUSH2 0x1026 SWAP1 PUSH2 0x3040 JUMP JUMPDEST DUP1 ISZERO PUSH2 0x1073 JUMPI DUP1 PUSH1 0x1F LT PUSH2 0x1048 JUMPI PUSH2 0x100 DUP1 DUP4 SLOAD DIV MUL DUP4 MSTORE SWAP2 PUSH1 0x20 ADD SWAP2 PUSH2 0x1073 JUMP JUMPDEST DUP3 ADD SWAP2 SWAP1 PUSH1 0x0 MSTORE PUSH1 0x20 PUSH1 0x0 KECCAK256 SWAP1 JUMPDEST DUP2 SLOAD DUP2 MSTORE SWAP1 PUSH1 0x1 ADD SWAP1 PUSH1 0x20 ADD DUP1 DUP4 GT PUSH2 0x1056 JUMPI DUP3 SWAP1 SUB PUSH1 0x1F AND DUP3 ADD SWAP2 JUMPDEST POP POP POP POP POP SWAP1 POP SWAP2 SWAP1 POP JUMP JUMPDEST PUSH1 0x0 PUSH2 0x108E PUSH1 0x4 SLOAD DUP5 DUP5 PUSH2 0x212A JUMP JUMPDEST PUSH1 0x4 PUSH1 0x0 DUP2 SLOAD DUP1 SWAP3 SWAP2 SWAP1 PUSH2 0x10A1 SWAP1 PUSH2 0x331E JUMP JUMPDEST SWAP2 SWAP1 POP SSTORE POP PUSH1 0x4 SLOAD SWAP1 POP SWAP3 SWAP2 POP POP JUMP JUMPDEST PUSH1 0x60 PUSH1 0x0 PUSH1 0xA PUSH8 0xFFFFFFFFFFFFFFFF DUP2 GT ISZERO PUSH2 0x10D0 JUMPI PUSH2 0x10CF PUSH2 0x2576 JUMP JUMPDEST JUMPDEST PUSH1 0x40 MLOAD SWAP1 DUP1 DUP3 MSTORE DUP1 PUSH1 0x20 MUL PUSH1 0x20 ADD DUP3 ADD PUSH1 0x40 MSTORE DUP1 ISZERO PUSH2 0x1103 JUMPI DUP2 PUSH1 0x20 ADD JUMPDEST PUSH1 0x60 DUP2 MSTORE PUSH1 0x20 ADD SWAP1 PUSH1 0x1 SWAP1 SUB SWAP1 DUP2 PUSH2 0x10EE JUMPI SWAP1 POP JUMPDEST POP SWAP1 POP PUSH1 0x0 DUP1 JUMPDEST PUSH1 0x7 SLOAD DUP2 LT ISZERO PUSH2 0x1255 JUMPI PUSH2 0x111D DUP6 PUSH2 0x2170 JUMP JUMPDEST DUP1 MLOAD SWAP1 PUSH1 0x20 ADD KECCAK256 PUSH1 0xC PUSH1 0x0 DUP4 DUP2 MSTORE PUSH1 0x20 ADD SWAP1 DUP2 MSTORE PUSH1 0x20 ADD PUSH1 0x0 KECCAK256 PUSH1 0x0 PUSH1 0x2 DUP2 LT PUSH2 0x114A JUMPI PUSH2 0x1149 PUSH2 0x3366 JUMP JUMPDEST JUMPDEST ADD PUSH1 0x40 MLOAD PUSH2 0x1158 SWAP2 SWAP1 PUSH2 0x3438 JUMP JUMPDEST PUSH1 0x40 MLOAD DUP1 SWAP2 SUB SWAP1 KECCAK256 SUB PUSH2 0x1242 JUMPI PUSH1 0xC PUSH1 0x0 DUP3 DUP2 MSTORE PUSH1 0x20 ADD SWAP1 DUP2 MSTORE PUSH1 0x20 ADD PUSH1 0x0 KECCAK256 PUSH1 0x1 PUSH1 0x2 DUP2 LT PUSH2 0x118B JUMPI PUSH2 0x118A PUSH2 0x3366 JUMP JUMPDEST JUMPDEST ADD DUP1 SLOAD PUSH2 0x1197 SWAP1 PUSH2 0x3040 JUMP JUMPDEST DUP1 PUSH1 0x1F ADD PUSH1 0x20 DUP1 SWAP2 DIV MUL PUSH1 0x20 ADD PUSH1 0x40 MLOAD SWAP1 DUP2 ADD PUSH1 0x40 MSTORE DUP1 SWAP3 SWAP2 SWAP1 DUP2 DUP2 MSTORE PUSH1 0x20 ADD DUP3 DUP1 SLOAD PUSH2 0x11C3 SWAP1 PUSH2 0x3040 JUMP JUMPDEST DUP1 ISZERO PUSH2 0x1210 JUMPI DUP1 PUSH1 0x1F LT PUSH2 0x11E5 JUMPI PUSH2 0x100 DUP1 DUP4 SLOAD DIV MUL DUP4 MSTORE SWAP2 PUSH1 0x20 ADD SWAP2 PUSH2 0x1210 JUMP JUMPDEST DUP3 ADD SWAP2 SWAP1 PUSH1 0x0 MSTORE PUSH1 0x20 PUSH1 0x0 KECCAK256 SWAP1 JUMPDEST DUP2 SLOAD DUP2 MSTORE SWAP1 PUSH1 0x1 ADD SWAP1 PUSH1 0x20 ADD DUP1 DUP4 GT PUSH2 0x11F3 JUMPI DUP3 SWAP1 SUB PUSH1 0x1F AND DUP3 ADD SWAP2 JUMPDEST POP POP POP POP POP DUP4 DUP4 DUP2 MLOAD DUP2 LT PUSH2 0x1228 JUMPI PUSH2 0x1227 PUSH2 0x3366 JUMP JUMPDEST JUMPDEST PUSH1 0x20 MUL PUSH1 0x20 ADD ADD DUP2 SWAP1 MSTORE POP DUP2 DUP1 PUSH2 0x123E SWAP1 PUSH2 0x331E JUMP JUMPDEST SWAP3 POP POP JUMPDEST DUP1 DUP1 PUSH2 0x124D SWAP1 PUSH2 0x331E JUMP JUMPDEST SWAP2 POP POP PUSH2 0x110A JUMP JUMPDEST POP DUP2 SWAP3 POP POP POP SWAP2 SWAP1 POP JUMP JUMPDEST PUSH1 0x0 PUSH2 0x126E PUSH1 0x3 SLOAD DUP4 PUSH2 0x1485 JUMP JUMPDEST PUSH1 0x3 PUSH1 0x0 DUP2 SLOAD DUP1 SWAP3 SWAP2 SWAP1 PUSH2 0x1281 SWAP1 PUSH2 0x331E JUMP JUMPDEST SWAP2 SWAP1 POP SSTORE POP PUSH1 0x3 SLOAD SWAP1 POP SWAP2 SWAP1 POP JUMP JUMPDEST PUSH1 0x12 PUSH1 0x20 MSTORE DUP1 PUSH1 0x0 MSTORE PUSH1 0x40 PUSH1 0x0 KECCAK256 PUSH1 0x0 SWAP2 POP SWAP1 POP DUP1 SLOAD PUSH2 0x12AF SWAP1 PUSH2 0x3040 JUMP JUMPDEST DUP1 PUSH1 0x1F ADD PUSH1 0x20 DUP1 SWAP2 DIV MUL PUSH1 0x20 ADD PUSH1 0x40 MLOAD SWAP1 DUP2 ADD PUSH1 0x40 MSTORE DUP1 SWAP3 SWAP2 SWAP1 DUP2 DUP2 MSTORE PUSH1 0x20 ADD DUP3 DUP1 SLOAD PUSH2 0x12DB SWAP1 PUSH2 0x3040 JUMP JUMPDEST DUP1 ISZERO PUSH2 0x1328 JUMPI DUP1 PUSH1 0x1F LT PUSH2 0x12FD JUMPI PUSH2 0x100 DUP1 DUP4 SLOAD DIV MUL DUP4 MSTORE SWAP2 PUSH1 0x20 ADD SWAP2 PUSH2 0x1328 JUMP JUMPDEST DUP3 ADD SWAP2 SWAP1 PUSH1 0x0 MSTORE PUSH1 0x20 PUSH1 0x0 KECCAK256 SWAP1 JUMPDEST DUP2 SLOAD DUP2 MSTORE SWAP1 PUSH1 0x1 ADD SWAP1 PUSH1 0x20 ADD DUP1 DUP4 GT PUSH2 0x130B JUMPI DUP3 SWAP1 SUB PUSH1 0x1F AND DUP3 ADD SWAP2 JUMPDEST POP POP POP POP POP DUP2 JUMP JUMPDEST PUSH1 0x40 MLOAD DUP1 PUSH1 0x40 ADD PUSH1 0x40 MSTORE DUP1 DUP4 DUP2 MSTORE PUSH1 0x20 ADD DUP3 DUP2 MSTORE POP PUSH1 0x10 PUSH1 0x0 DUP6 DUP2 MSTORE PUSH1 0x20 ADD SWAP1 DUP2 MSTORE PUSH1 0x20 ADD PUSH1 0x0 KECCAK256 SWAP1 PUSH1 0x2 PUSH2 0x1366 SWAP3 SWAP2 SWAP1 PUSH2 0x23DD JUMP JUMPDEST POP PUSH1 0x40 MLOAD DUP1 PUSH1 0x40 ADD PUSH1 0x40 MSTORE DUP1 PUSH1 0x1 DUP2 MSTORE PUSH1 0x20 ADD PUSH32 0x3000000000000000000000000000000000000000000000000000000000000000 DUP2 MSTORE POP PUSH1 0x13 PUSH1 0x0 DUP6 DUP2 MSTORE PUSH1 0x20 ADD SWAP1 DUP2 MSTORE PUSH1 0x20 ADD PUSH1 0x0 KECCAK256 SWAP1 DUP2 PUSH2 0x13BC SWAP2 SWAP1 PUSH2 0x321D JUMP JUMPDEST POP POP POP POP JUMP JUMPDEST PUSH1 0x60 PUSH1 0xD PUSH1 0x0 DUP4 DUP2 MSTORE PUSH1 0x20 ADD SWAP1 DUP2 MSTORE PUSH1 0x20 ADD PUSH1 0x0 KECCAK256 PUSH1 0x0 PUSH1 0x2 DUP2 LT PUSH2 0x13EA JUMPI PUSH2 0x13E9 PUSH2 0x3366 JUMP JUMPDEST JUMPDEST ADD DUP1 SLOAD PUSH2 0x13F6 SWAP1 PUSH2 0x3040 JUMP JUMPDEST DUP1 PUSH1 0x1F ADD PUSH1 0x20 DUP1 SWAP2 DIV MUL PUSH1 0x20 ADD PUSH1 0x40 MLOAD SWAP1 DUP2 ADD PUSH1 0x40 MSTORE DUP1 SWAP3 SWAP2 SWAP1 DUP2 DUP2 MSTORE PUSH1 0x20 ADD DUP3 DUP1 SLOAD PUSH2 0x1422 SWAP1 PUSH2 0x3040 JUMP JUMPDEST DUP1 ISZERO PUSH2 0x146F JUMPI DUP1 PUSH1 0x1F LT PUSH2 0x1444 JUMPI PUSH2 0x100 DUP1 DUP4 SLOAD DIV MUL DUP4 MSTORE SWAP2 PUSH1 0x20 ADD SWAP2 PUSH2 0x146F JUMP JUMPDEST DUP3 ADD SWAP2 SWAP1 PUSH1 0x0 MSTORE PUSH1 0x20 PUSH1 0x0 KECCAK256 SWAP1 JUMPDEST DUP2 SLOAD DUP2 MSTORE SWAP1 PUSH1 0x1 ADD SWAP1 PUSH1 0x20 ADD DUP1 DUP4 GT PUSH2 0x1452 JUMPI DUP3 SWAP1 SUB PUSH1 0x1F AND DUP3 ADD SWAP2 JUMPDEST POP POP POP POP POP SWAP1 POP SWAP2 SWAP1 POP JUMP JUMPDEST PUSH1 0x0 PUSH1 0x2 SLOAD SWAP1 POP SWAP1 JUMP JUMPDEST DUP1 PUSH1 0x11 PUSH1 0x0 DUP5 DUP2 MSTORE PUSH1 0x20 ADD SWAP1 DUP2 MSTORE PUSH1 0x20 ADD PUSH1 0x0 KECCAK256 SWAP1 DUP2 PUSH2 0x14A5 SWAP2 SWAP1 PUSH2 0x321D JUMP JUMPDEST POP POP POP JUMP JUMPDEST PUSH1 0x60 PUSH1 0x0 DUP1 PUSH1 0x0 JUMPDEST PUSH1 0x5 SLOAD DUP2 LT ISZERO PUSH2 0x1585 JUMPI PUSH2 0x14C5 DUP7 PUSH2 0x2170 JUMP JUMPDEST DUP1 MLOAD SWAP1 PUSH1 0x20 ADD KECCAK256 PUSH1 0xA PUSH1 0x0 DUP4 DUP2 MSTORE PUSH1 0x20 ADD SWAP1 DUP2 MSTORE PUSH1 0x20 ADD PUSH1 0x0 KECCAK256 PUSH1 0x0 PUSH1 0x3 DUP2 LT PUSH2 0x14F2 JUMPI PUSH2 0x14F1 PUSH2 0x3366 JUMP JUMPDEST JUMPDEST ADD PUSH1 0x40 MLOAD PUSH2 0x1500 SWAP2 SWAP1 PUSH2 0x3438 JUMP JUMPDEST PUSH1 0x40 MLOAD DUP1 SWAP2 SUB SWAP1 KECCAK256 EQ DUP1 ISZERO PUSH2 0x155E JUMPI POP PUSH2 0x1519 DUP6 PUSH2 0x2170 JUMP JUMPDEST DUP1 MLOAD SWAP1 PUSH1 0x20 ADD KECCAK256 PUSH1 0xA PUSH1 0x0 DUP4 DUP2 MSTORE PUSH1 0x20 ADD SWAP1 DUP2 MSTORE PUSH1 0x20 ADD PUSH1 0x0 KECCAK256 PUSH1 0x1 PUSH1 0x3 DUP2 LT PUSH2 0x1546 JUMPI PUSH2 0x1545 PUSH2 0x3366 JUMP JUMPDEST JUMPDEST ADD PUSH1 0x40 MLOAD PUSH2 0x1554 SWAP2 SWAP1 PUSH2 0x3438 JUMP JUMPDEST PUSH1 0x40 MLOAD DUP1 SWAP2 SUB SWAP1 KECCAK256 EQ JUMPDEST ISZERO PUSH2 0x1572 JUMPI DUP3 DUP1 PUSH2 0x156E SWAP1 PUSH2 0x331E JUMP JUMPDEST SWAP4 POP POP JUMPDEST DUP1 DUP1 PUSH2 0x157D SWAP1 PUSH2 0x331E JUMP JUMPDEST SWAP2 POP POP PUSH2 0x14B2 JUMP JUMPDEST POP PUSH1 0x0 DUP3 PUSH8 0xFFFFFFFFFFFFFFFF DUP2 GT ISZERO PUSH2 0x15A2 JUMPI PUSH2 0x15A1 PUSH2 0x2576 JUMP JUMPDEST JUMPDEST PUSH1 0x40 MLOAD SWAP1 DUP1 DUP3 MSTORE DUP1 PUSH1 0x20 MUL PUSH1 0x20 ADD DUP3 ADD PUSH1 0x40 MSTORE DUP1 ISZERO PUSH2 0x15D5 JUMPI DUP2 PUSH1 0x20 ADD JUMPDEST PUSH1 0x60 DUP2 MSTORE PUSH1 0x20 ADD SWAP1 PUSH1 0x1 SWAP1 SUB SWAP1 DUP2 PUSH2 0x15C0 JUMPI SWAP1 POP JUMPDEST POP SWAP1 POP PUSH1 0x0 JUMPDEST PUSH1 0x5 SLOAD DUP2 LT ISZERO PUSH2 0x177C JUMPI PUSH2 0x15EE DUP8 PUSH2 0x2170 JUMP JUMPDEST DUP1 MLOAD SWAP1 PUSH1 0x20 ADD KECCAK256 PUSH1 0xA PUSH1 0x0 DUP4 DUP2 MSTORE PUSH1 0x20 ADD SWAP1 DUP2 MSTORE PUSH1 0x20 ADD PUSH1 0x0 KECCAK256 PUSH1 0x0 PUSH1 0x3 DUP2 LT PUSH2 0x161B JUMPI PUSH2 0x161A PUSH2 0x3366 JUMP JUMPDEST JUMPDEST ADD PUSH1 0x40 MLOAD PUSH2 0x1629 SWAP2 SWAP1 PUSH2 0x3438 JUMP JUMPDEST PUSH1 0x40 MLOAD DUP1 SWAP2 SUB SWAP1 KECCAK256 EQ DUP1 ISZERO PUSH2 0x1687 JUMPI POP PUSH2 0x1642 DUP7 PUSH2 0x2170 JUMP JUMPDEST DUP1 MLOAD SWAP1 PUSH1 0x20 ADD KECCAK256 PUSH1 0xA PUSH1 0x0 DUP4 DUP2 MSTORE PUSH1 0x20 ADD SWAP1 DUP2 MSTORE PUSH1 0x20 ADD PUSH1 0x0 KECCAK256 PUSH1 0x1 PUSH1 0x3 DUP2 LT PUSH2 0x166F JUMPI PUSH2 0x166E PUSH2 0x3366 JUMP JUMPDEST JUMPDEST ADD PUSH1 0x40 MLOAD PUSH2 0x167D SWAP2 SWAP1 PUSH2 0x3438 JUMP JUMPDEST PUSH1 0x40 MLOAD DUP1 SWAP2 SUB SWAP1 KECCAK256 EQ JUMPDEST ISZERO PUSH2 0x1769 JUMPI PUSH1 0xA PUSH1 0x0 DUP3 DUP2 MSTORE PUSH1 0x20 ADD SWAP1 DUP2 MSTORE PUSH1 0x20 ADD PUSH1 0x0 KECCAK256 PUSH1 0x2 PUSH1 0x3 DUP2 LT PUSH2 0x16B2 JUMPI PUSH2 0x16B1 PUSH2 0x3366 JUMP JUMPDEST JUMPDEST ADD DUP1 SLOAD PUSH2 0x16BE SWAP1 PUSH2 0x3040 JUMP JUMPDEST DUP1 PUSH1 0x1F ADD PUSH1 0x20 DUP1 SWAP2 DIV MUL PUSH1 0x20 ADD PUSH1 0x40 MLOAD SWAP1 DUP2 ADD PUSH1 0x40 MSTORE DUP1 SWAP3 SWAP2 SWAP1 DUP2 DUP2 MSTORE PUSH1 0x20 ADD DUP3 DUP1 SLOAD PUSH2 0x16EA SWAP1 PUSH2 0x3040 JUMP JUMPDEST DUP1 ISZERO PUSH2 0x1737 JUMPI DUP1 PUSH1 0x1F LT PUSH2 0x170C JUMPI PUSH2 0x100 DUP1 DUP4 SLOAD DIV MUL DUP4 MSTORE SWAP2 PUSH1 0x20 ADD SWAP2 PUSH2 0x1737 JUMP JUMPDEST DUP3 ADD SWAP2 SWAP1 PUSH1 0x0 MSTORE PUSH1 0x20 PUSH1 0x0 KECCAK256 SWAP1 JUMPDEST DUP2 SLOAD DUP2 MSTORE SWAP1 PUSH1 0x1 ADD SWAP1 PUSH1 0x20 ADD DUP1 DUP4 GT PUSH2 0x171A JUMPI DUP3 SWAP1 SUB PUSH1 0x1F AND DUP3 ADD SWAP2 JUMPDEST POP POP POP POP POP DUP3 DUP5 DUP2 MLOAD DUP2 LT PUSH2 0x174F JUMPI PUSH2 0x174E PUSH2 0x3366 JUMP JUMPDEST JUMPDEST PUSH1 0x20 MUL PUSH1 0x20 ADD ADD DUP2 SWAP1 MSTORE POP DUP3 DUP1 PUSH2 0x1765 SWAP1 PUSH2 0x331E JUMP JUMPDEST SWAP4 POP POP JUMPDEST DUP1 DUP1 PUSH2 0x1774 SWAP1 PUSH2 0x331E JUMP JUMPDEST SWAP2 POP POP PUSH2 0x15DB JUMP JUMPDEST POP DUP1 SWAP4 POP POP POP POP SWAP3 SWAP2 POP POP JUMP JUMPDEST PUSH1 0x0 DUP1 PUSH1 0x0 SWAP1 POP JUMPDEST PUSH1 0x0 SLOAD DUP2 LT ISZERO PUSH2 0x17EC JUMPI DUP3 DUP1 MLOAD SWAP1 PUSH1 0x20 ADD KECCAK256 PUSH1 0xF PUSH1 0x0 DUP4 DUP2 MSTORE PUSH1 0x20 ADD SWAP1 DUP2 MSTORE PUSH1 0x20 ADD PUSH1 0x0 KECCAK256 PUSH1 0x40 MLOAD PUSH2 0x17C3 SWAP2 SWAP1 PUSH2 0x3438 JUMP JUMPDEST PUSH1 0x40 MLOAD DUP1 SWAP2 SUB SWAP1 KECCAK256 SUB PUSH2 0x17D9 JUMPI DUP1 SWAP2 POP POP PUSH2 0x17F2 JUMP JUMPDEST DUP1 DUP1 PUSH2 0x17E4 SWAP1 PUSH2 0x331E JUMP JUMPDEST SWAP2 POP POP PUSH2 0x1791 JUMP JUMPDEST POP PUSH1 0x0 SWAP1 POP JUMPDEST SWAP2 SWAP1 POP JUMP JUMPDEST PUSH1 0x60 PUSH1 0x0 DUP1 PUSH1 0x0 JUMPDEST PUSH1 0x4 SLOAD DUP2 LT ISZERO PUSH2 0x1859 JUMPI DUP5 PUSH1 0xB PUSH1 0x0 DUP4 DUP2 MSTORE PUSH1 0x20 ADD SWAP1 DUP2 MSTORE PUSH1 0x20 ADD PUSH1 0x0 KECCAK256 PUSH1 0x0 PUSH1 0x2 DUP2 LT PUSH2 0x1830 JUMPI PUSH2 0x182F PUSH2 0x3366 JUMP JUMPDEST JUMPDEST ADD SLOAD SUB PUSH2 0x1846 JUMPI DUP3 DUP1 PUSH2 0x1842 SWAP1 PUSH2 0x331E JUMP JUMPDEST SWAP4 POP POP JUMPDEST DUP1 DUP1 PUSH2 0x1851 SWAP1 PUSH2 0x331E JUMP JUMPDEST SWAP2 POP POP PUSH2 0x17FF JUMP JUMPDEST POP PUSH1 0x0 DUP3 PUSH8 0xFFFFFFFFFFFFFFFF DUP2 GT ISZERO PUSH2 0x1876 JUMPI PUSH2 0x1875 PUSH2 0x2576 JUMP JUMPDEST JUMPDEST PUSH1 0x40 MLOAD SWAP1 DUP1 DUP3 MSTORE DUP1 PUSH1 0x20 MUL PUSH1 0x20 ADD DUP3 ADD PUSH1 0x40 MSTORE DUP1 ISZERO PUSH2 0x18A4 JUMPI DUP2 PUSH1 0x20 ADD PUSH1 0x20 DUP3 MUL DUP1 CALLDATASIZE DUP4 CALLDATACOPY DUP1 DUP3 ADD SWAP2 POP POP SWAP1 POP JUMPDEST POP SWAP1 POP PUSH1 0x0 JUMPDEST PUSH1 0x4 SLOAD DUP2 LT ISZERO PUSH2 0x194B JUMPI DUP6 PUSH1 0xB PUSH1 0x0 DUP4 DUP2 MSTORE PUSH1 0x20 ADD SWAP1 DUP2 MSTORE PUSH1 0x20 ADD PUSH1 0x0 KECCAK256 PUSH1 0x0 PUSH1 0x2 DUP2 LT PUSH2 0x18DB JUMPI PUSH2 0x18DA PUSH2 0x3366 JUMP JUMPDEST JUMPDEST ADD SLOAD SUB PUSH2 0x1938 JUMPI PUSH1 0xB PUSH1 0x0 DUP3 DUP2 MSTORE PUSH1 0x20 ADD SWAP1 DUP2 MSTORE PUSH1 0x20 ADD PUSH1 0x0 KECCAK256 PUSH1 0x1 PUSH1 0x2 DUP2 LT PUSH2 0x1908 JUMPI PUSH2 0x1907 PUSH2 0x3366 JUMP JUMPDEST JUMPDEST ADD SLOAD DUP3 DUP5 DUP2 MLOAD DUP2 LT PUSH2 0x191D JUMPI PUSH2 0x191C PUSH2 0x3366 JUMP JUMPDEST JUMPDEST PUSH1 0x20 MUL PUSH1 0x20 ADD ADD DUP2 DUP2 MSTORE POP POP DUP3 DUP1 PUSH2 0x1934 SWAP1 PUSH2 0x331E JUMP JUMPDEST SWAP4 POP POP JUMPDEST DUP1 DUP1 PUSH2 0x1943 SWAP1 PUSH2 0x331E JUMP JUMPDEST SWAP2 POP POP PUSH2 0x18AA JUMP JUMPDEST POP DUP1 SWAP4 POP POP POP POP SWAP2 SWAP1 POP JUMP JUMPDEST PUSH2 0x195F PUSH2 0x2429 JUMP JUMPDEST PUSH1 0x10 PUSH1 0x0 DUP4 DUP2 MSTORE PUSH1 0x20 ADD SWAP1 DUP2 MSTORE PUSH1 0x20 ADD PUSH1 0x0 KECCAK256 PUSH1 0x2 DUP1 PUSH1 0x20 MUL PUSH1 0x40 MLOAD SWAP1 DUP2 ADD PUSH1 0x40 MSTORE DUP1 SWAP3 SWAP2 SWAP1 PUSH1 0x0 SWAP1 JUMPDEST DUP3 DUP3 LT ISZERO PUSH2 0x1A2C JUMPI DUP4 DUP3 ADD DUP1 SLOAD PUSH2 0x199F SWAP1 PUSH2 0x3040 JUMP JUMPDEST DUP1 PUSH1 0x1F ADD PUSH1 0x20 DUP1 SWAP2 DIV MUL PUSH1 0x20 ADD PUSH1 0x40 MLOAD SWAP1 DUP2 ADD PUSH1 0x40 MSTORE DUP1 SWAP3 SWAP2 SWAP1 DUP2 DUP2 MSTORE PUSH1 0x20 ADD DUP3 DUP1 SLOAD PUSH2 0x19CB SWAP1 PUSH2 0x3040 JUMP JUMPDEST DUP1 ISZERO PUSH2 0x1A18 JUMPI DUP1 PUSH1 0x1F LT PUSH2 0x19ED JUMPI PUSH2 0x100 DUP1 DUP4 SLOAD DIV MUL DUP4 MSTORE SWAP2 PUSH1 0x20 ADD SWAP2 PUSH2 0x1A18 JUMP JUMPDEST DUP3 ADD SWAP2 SWAP1 PUSH1 0x0 MSTORE PUSH1 0x20 PUSH1 0x0 KECCAK256 SWAP1 JUMPDEST DUP2 SLOAD DUP2 MSTORE SWAP1 PUSH1 0x1 ADD SWAP1 PUSH1 0x20 ADD DUP1 DUP4 GT PUSH2 0x19FB JUMPI DUP3 SWAP1 SUB PUSH1 0x1F AND DUP3 ADD SWAP2 JUMPDEST POP POP POP POP POP DUP2 MSTORE PUSH1 0x20 ADD SWAP1 PUSH1 0x1 ADD SWAP1 PUSH2 0x1989 JUMP JUMPDEST POP POP POP POP SWAP1 POP SWAP2 SWAP1 POP JUMP JUMPDEST PUSH1 0x3 SLOAD DUP2 JUMP JUMPDEST PUSH1 0x60 PUSH1 0x0 PUSH1 0xA PUSH8 0xFFFFFFFFFFFFFFFF DUP2 GT ISZERO PUSH2 0x1A5C JUMPI PUSH2 0x1A5B PUSH2 0x2576 JUMP JUMPDEST JUMPDEST PUSH1 0x40 MLOAD SWAP1 DUP1 DUP3 MSTORE DUP1 PUSH1 0x20 MUL PUSH1 0x20 ADD DUP3 ADD PUSH1 0x40 MSTORE DUP1 ISZERO PUSH2 0x1A8F JUMPI DUP2 PUSH1 0x20 ADD JUMPDEST PUSH1 0x60 DUP2 MSTORE PUSH1 0x20 ADD SWAP1 PUSH1 0x1 SWAP1 SUB SWAP1 DUP2 PUSH2 0x1A7A JUMPI SWAP1 POP JUMPDEST POP SWAP1 POP PUSH1 0x0 DUP1 JUMPDEST PUSH1 0x7 SLOAD DUP2 LT ISZERO PUSH2 0x1BE1 JUMPI PUSH2 0x1AA9 DUP6 PUSH2 0x2170 JUMP JUMPDEST DUP1 MLOAD SWAP1 PUSH1 0x20 ADD KECCAK256 PUSH1 0xC PUSH1 0x0 DUP4 DUP2 MSTORE PUSH1 0x20 ADD SWAP1 DUP2 MSTORE PUSH1 0x20 ADD PUSH1 0x0 KECCAK256 PUSH1 0x0 PUSH1 0x2 DUP2 LT PUSH2 0x1AD6 JUMPI PUSH2 0x1AD5 PUSH2 0x3366 JUMP JUMPDEST JUMPDEST ADD PUSH1 0x40 MLOAD PUSH2 0x1AE4 SWAP2 SWAP1 PUSH2 0x3438 JUMP JUMPDEST PUSH1 0x40 MLOAD DUP1 SWAP2 SUB SWAP1 KECCAK256 SUB PUSH2 0x1BCE JUMPI PUSH1 0xC PUSH1 0x0 DUP3 DUP2 MSTORE PUSH1 0x20 ADD SWAP1 DUP2 MSTORE PUSH1 0x20 ADD PUSH1 0x0 KECCAK256 PUSH1 0x1 PUSH1 0x2 DUP2 LT PUSH2 0x1B17 JUMPI PUSH2 0x1B16 PUSH2 0x3366 JUMP JUMPDEST JUMPDEST ADD DUP1 SLOAD PUSH2 0x1B23 SWAP1 PUSH2 0x3040 JUMP JUMPDEST DUP1 PUSH1 0x1F ADD PUSH1 0x20 DUP1 SWAP2 DIV MUL PUSH1 0x20 ADD PUSH1 0x40 MLOAD SWAP1 DUP2 ADD PUSH1 0x40 MSTORE DUP1 SWAP3 SWAP2 SWAP1 DUP2 DUP2 MSTORE PUSH1 0x20 ADD DUP3 DUP1 SLOAD PUSH2 0x1B4F SWAP1 PUSH2 0x3040 JUMP JUMPDEST DUP1 ISZERO PUSH2 0x1B9C JUMPI DUP1 PUSH1 0x1F LT PUSH2 0x1B71 JUMPI PUSH2 0x100 DUP1 DUP4 SLOAD DIV MUL DUP4 MSTORE SWAP2 PUSH1 0x20 ADD SWAP2 PUSH2 0x1B9C JUMP JUMPDEST DUP3 ADD SWAP2 SWAP1 PUSH1 0x0 MSTORE PUSH1 0x20 PUSH1 0x0 KECCAK256 SWAP1 JUMPDEST DUP2 SLOAD DUP2 MSTORE SWAP1 PUSH1 0x1 ADD SWAP1 PUSH1 0x20 ADD DUP1 DUP4 GT PUSH2 0x1B7F JUMPI DUP3 SWAP1 SUB PUSH1 0x1F AND DUP3 ADD SWAP2 JUMPDEST POP POP POP POP POP DUP4 DUP4 DUP2 MLOAD DUP2 LT PUSH2 0x1BB4 JUMPI PUSH2 0x1BB3 PUSH2 0x3366 JUMP JUMPDEST JUMPDEST PUSH1 0x20 MUL PUSH1 0x20 ADD ADD DUP2 SWAP1 MSTORE POP DUP2 DUP1 PUSH2 0x1BCA SWAP1 PUSH2 0x331E JUMP JUMPDEST SWAP3 POP POP JUMPDEST DUP1 DUP1 PUSH2 0x1BD9 SWAP1 PUSH2 0x331E JUMP JUMPDEST SWAP2 POP POP PUSH2 0x1A96 JUMP JUMPDEST POP DUP2 SWAP3 POP POP POP SWAP2 SWAP1 POP JUMP JUMPDEST PUSH1 0xD PUSH1 0x20 MSTORE DUP2 PUSH1 0x0 MSTORE PUSH1 0x40 PUSH1 0x0 KECCAK256 DUP2 PUSH1 0x2 DUP2 LT PUSH2 0x1C08 JUMPI PUSH1 0x0 DUP1 REVERT JUMPDEST ADD PUSH1 0x0 SWAP2 POP SWAP2 POP POP DUP1 SLOAD PUSH2 0x1C1B SWAP1 PUSH2 0x3040 JUMP JUMPDEST DUP1 PUSH1 0x1F ADD PUSH1 0x20 DUP1 SWAP2 DIV MUL PUSH1 0x20 ADD PUSH1 0x40 MLOAD SWAP1 DUP2 ADD PUSH1 0x40 MSTORE DUP1 SWAP3 SWAP2 SWAP1 DUP2 DUP2 MSTORE PUSH1 0x20 ADD DUP3 DUP1 SLOAD PUSH2 0x1C47 SWAP1 PUSH2 0x3040 JUMP JUMPDEST DUP1 ISZERO PUSH2 0x1C94 JUMPI DUP1 PUSH1 0x1F LT PUSH2 0x1C69 JUMPI PUSH2 0x100 DUP1 DUP4 SLOAD DIV MUL DUP4 MSTORE SWAP2 PUSH1 0x20 ADD SWAP2 PUSH2 0x1C94 JUMP JUMPDEST DUP3 ADD SWAP2 SWAP1 PUSH1 0x0 MSTORE PUSH1 0x20 PUSH1 0x0 KECCAK256 SWAP1 JUMPDEST DUP2 SLOAD DUP2 MSTORE SWAP1 PUSH1 0x1 ADD SWAP1 PUSH1 0x20 ADD DUP1 DUP4 GT PUSH2 0x1C77 JUMPI DUP3 SWAP1 SUB PUSH1 0x1F AND DUP3 ADD SWAP2 JUMPDEST POP POP POP POP POP DUP2 JUMP JUMPDEST PUSH1 0x0 PUSH2 0x1CBC PUSH1 0x5 SLOAD DUP6 PUSH2 0x1CAE DUP7 PUSH2 0x2170 JUMP JUMPDEST PUSH2 0x1CB7 DUP7 PUSH2 0x2170 JUMP JUMPDEST PUSH2 0x8E7 JUMP JUMPDEST PUSH1 0x5 PUSH1 0x0 DUP2 SLOAD DUP1 SWAP3 SWAP2 SWAP1 PUSH2 0x1CCF SWAP1 PUSH2 0x331E JUMP JUMPDEST SWAP2 SWAP1 POP SSTORE POP PUSH1 0x5 SLOAD SWAP1 POP SWAP4 SWAP3 POP POP POP JUMP JUMPDEST PUSH1 0x60 PUSH1 0xF PUSH1 0x0 DUP4 DUP2 MSTORE PUSH1 0x20 ADD SWAP1 DUP2 MSTORE PUSH1 0x20 ADD PUSH1 0x0 KECCAK256 DUP1 SLOAD PUSH2 0x1D00 SWAP1 PUSH2 0x3040 JUMP JUMPDEST DUP1 PUSH1 0x1F ADD PUSH1 0x20 DUP1 SWAP2 DIV MUL PUSH1 0x20 ADD PUSH1 0x40 MLOAD SWAP1 DUP2 ADD PUSH1 0x40 MSTORE DUP1 SWAP3 SWAP2 SWAP1 DUP2 DUP2 MSTORE PUSH1 0x20 ADD DUP3 DUP1 SLOAD PUSH2 0x1D2C SWAP1 PUSH2 0x3040 JUMP JUMPDEST DUP1 ISZERO PUSH2 0x1D79 JUMPI DUP1 PUSH1 0x1F LT PUSH2 0x1D4E JUMPI PUSH2 0x100 DUP1 DUP4 SLOAD DIV MUL DUP4 MSTORE SWAP2 PUSH1 0x20 ADD SWAP2 PUSH2 0x1D79 JUMP JUMPDEST DUP3 ADD SWAP2 SWAP1 PUSH1 0x0 MSTORE PUSH1 0x20 PUSH1 0x0 KECCAK256 SWAP1 JUMPDEST DUP2 SLOAD DUP2 MSTORE SWAP1 PUSH1 0x1 ADD SWAP1 PUSH1 0x20 ADD DUP1 DUP4 GT PUSH2 0x1D5C JUMPI DUP3 SWAP1 SUB PUSH1 0x1F AND DUP3 ADD SWAP2 JUMPDEST POP POP POP POP POP SWAP1 POP SWAP2 SWAP1 POP JUMP JUMPDEST PUSH1 0x4 SLOAD DUP2 JUMP JUMPDEST PUSH1 0x0 DUP1 PUSH1 0x0 SWAP1 POP JUMPDEST PUSH1 0x1 SLOAD DUP2 LT ISZERO PUSH2 0x1DEE JUMPI DUP3 DUP1 MLOAD SWAP1 PUSH1 0x20 ADD KECCAK256 PUSH1 0xE PUSH1 0x0 DUP4 DUP2 MSTORE PUSH1 0x20 ADD SWAP1 DUP2 MSTORE PUSH1 0x20 ADD PUSH1 0x0 KECCAK256 PUSH1 0x40 MLOAD PUSH2 0x1DC5 SWAP2 SWAP1 PUSH2 0x3438 JUMP JUMPDEST PUSH1 0x40 MLOAD DUP1 SWAP2 SUB SWAP1 KECCAK256 SUB PUSH2 0x1DDB JUMPI DUP1 SWAP2 POP POP PUSH2 0x1DF4 JUMP JUMPDEST DUP1 DUP1 PUSH2 0x1DE6 SWAP1 PUSH2 0x331E JUMP JUMPDEST SWAP2 POP POP PUSH2 0x1D93 JUMP JUMPDEST POP PUSH1 0x0 SWAP1 POP JUMPDEST SWAP2 SWAP1 POP JUMP JUMPDEST PUSH1 0x40 MLOAD DUP1 PUSH1 0x40 ADD PUSH1 0x40 MSTORE DUP1 PUSH2 0x1E0D DUP5 PUSH2 0x2170 JUMP JUMPDEST DUP2 MSTORE PUSH1 0x20 ADD DUP3 DUP2 MSTORE POP PUSH1 0xC PUSH1 0x0 DUP6 DUP2 MSTORE PUSH1 0x20 ADD SWAP1 DUP2 MSTORE PUSH1 0x20 ADD PUSH1 0x0 KECCAK256 SWAP1 PUSH1 0x2 PUSH2 0x1E37 SWAP3 SWAP2 SWAP1 PUSH2 0x23DD JUMP JUMPDEST POP POP POP POP JUMP JUMPDEST PUSH1 0x5 SLOAD DUP2 JUMP JUMPDEST PUSH1 0x11 PUSH1 0x20 MSTORE DUP1 PUSH1 0x0 MSTORE PUSH1 0x40 PUSH1 0x0 KECCAK256 PUSH1 0x0 SWAP2 POP SWAP1 POP DUP1 SLOAD PUSH2 0x1E62 SWAP1 PUSH2 0x3040 JUMP JUMPDEST DUP1 PUSH1 0x1F ADD PUSH1 0x20 DUP1 SWAP2 DIV MUL PUSH1 0x20 ADD PUSH1 0x40 MLOAD SWAP1 DUP2 ADD PUSH1 0x40 MSTORE DUP1 SWAP3 SWAP2 SWAP1 DUP2 DUP2 MSTORE PUSH1 0x20 ADD DUP3 DUP1 SLOAD PUSH2 0x1E8E SWAP1 PUSH2 0x3040 JUMP JUMPDEST DUP1 ISZERO PUSH2 0x1EDB JUMPI DUP1 PUSH1 0x1F LT PUSH2 0x1EB0 JUMPI PUSH2 0x100 DUP1 DUP4 SLOAD DIV MUL DUP4 MSTORE SWAP2 PUSH1 0x20 ADD SWAP2 PUSH2 0x1EDB JUMP JUMPDEST DUP3 ADD SWAP2 SWAP1 PUSH1 0x0 MSTORE PUSH1 0x20 PUSH1 0x0 KECCAK256 SWAP1 JUMPDEST DUP2 SLOAD DUP2 MSTORE SWAP1 PUSH1 0x1 ADD SWAP1 PUSH1 0x20 ADD DUP1 DUP4 GT PUSH2 0x1EBE JUMPI DUP3 SWAP1 SUB PUSH1 0x1F AND DUP3 ADD SWAP2 JUMPDEST POP POP POP POP POP DUP2 JUMP JUMPDEST DUP1 PUSH1 0xE PUSH1 0x0 DUP5 DUP2 MSTORE PUSH1 0x20 ADD SWAP1 DUP2 MSTORE PUSH1 0x20 ADD PUSH1 0x0 KECCAK256 SWAP1 DUP2 PUSH2 0x1F03 SWAP2 SWAP1 PUSH2 0x321D JUMP JUMPDEST POP POP POP JUMP JUMPDEST PUSH1 0x0 PUSH2 0x1F17 PUSH1 0x2 SLOAD DUP5 DUP5 PUSH2 0x1330 JUMP JUMPDEST PUSH2 0x1F58 PUSH1 0x2 SLOAD PUSH1 0x40 MLOAD DUP1 PUSH1 0x40 ADD PUSH1 0x40 MSTORE DUP1 PUSH1 0x1 DUP2 MSTORE PUSH1 0x20 ADD PUSH32 0x3000000000000000000000000000000000000000000000000000000000000000 DUP2 MSTORE POP PUSH2 0x930 JUMP JUMPDEST PUSH1 0x2 PUSH1 0x0 DUP2 SLOAD DUP1 SWAP3 SWAP2 SWAP1 PUSH2 0x1F6B SWAP1 PUSH2 0x331E JUMP JUMPDEST SWAP2 SWAP1 POP SSTORE POP PUSH1 0x2 SLOAD SWAP1 POP SWAP3 SWAP2 POP POP JUMP JUMPDEST PUSH1 0x60 PUSH1 0x0 PUSH1 0xA PUSH8 0xFFFFFFFFFFFFFFFF DUP2 GT ISZERO PUSH2 0x1F9A JUMPI PUSH2 0x1F99 PUSH2 0x2576 JUMP JUMPDEST JUMPDEST PUSH1 0x40 MLOAD SWAP1 DUP1 DUP3 MSTORE DUP1 PUSH1 0x20 MUL PUSH1 0x20 ADD DUP3 ADD PUSH1 0x40 MSTORE DUP1 ISZERO PUSH2 0x1FCD JUMPI DUP2 PUSH1 0x20 ADD JUMPDEST PUSH1 0x60 DUP2 MSTORE PUSH1 0x20 ADD SWAP1 PUSH1 0x1 SWAP1 SUB SWAP1 DUP2 PUSH2 0x1FB8 JUMPI SWAP1 POP JUMPDEST POP SWAP1 POP PUSH1 0x0 DUP1 JUMPDEST PUSH1 0x6 SLOAD DUP2 LT ISZERO PUSH2 0x211F JUMPI PUSH2 0x1FE7 DUP6 PUSH2 0x2170 JUMP JUMPDEST DUP1 MLOAD SWAP1 PUSH1 0x20 ADD KECCAK256 PUSH1 0x9 PUSH1 0x0 DUP4 DUP2 MSTORE PUSH1 0x20 ADD SWAP1 DUP2 MSTORE PUSH1 0x20 ADD PUSH1 0x0 KECCAK256 PUSH1 0x0 PUSH1 0x2 DUP2 LT PUSH2 0x2014 JUMPI PUSH2 0x2013 PUSH2 0x3366 JUMP JUMPDEST JUMPDEST ADD PUSH1 0x40 MLOAD PUSH2 0x2022 SWAP2 SWAP1 PUSH2 0x3438 JUMP JUMPDEST PUSH1 0x40 MLOAD DUP1 SWAP2 SUB SWAP1 KECCAK256 SUB PUSH2 0x210C JUMPI PUSH1 0x9 PUSH1 0x0 DUP3 DUP2 MSTORE PUSH1 0x20 ADD SWAP1 DUP2 MSTORE PUSH1 0x20 ADD PUSH1 0x0 KECCAK256 PUSH1 0x1 PUSH1 0x2 DUP2 LT PUSH2 0x2055 JUMPI PUSH2 0x2054 PUSH2 0x3366 JUMP JUMPDEST JUMPDEST ADD DUP1 SLOAD PUSH2 0x2061 SWAP1 PUSH2 0x3040 JUMP JUMPDEST DUP1 PUSH1 0x1F ADD PUSH1 0x20 DUP1 SWAP2 DIV MUL PUSH1 0x20 ADD PUSH1 0x40 MLOAD SWAP1 DUP2 ADD PUSH1 0x40 MSTORE DUP1 SWAP3 SWAP2 SWAP1 DUP2 DUP2 MSTORE PUSH1 0x20 ADD DUP3 DUP1 SLOAD PUSH2 0x208D SWAP1 PUSH2 0x3040 JUMP JUMPDEST DUP1 ISZERO PUSH2 0x20DA JUMPI DUP1 PUSH1 0x1F LT PUSH2 0x20AF JUMPI PUSH2 0x100 DUP1 DUP4 SLOAD DIV MUL DUP4 MSTORE SWAP2 PUSH1 0x20 ADD SWAP2 PUSH2 0x20DA JUMP JUMPDEST DUP3 ADD SWAP2 SWAP1 PUSH1 0x0 MSTORE PUSH1 0x20 PUSH1 0x0 KECCAK256 SWAP1 JUMPDEST DUP2 SLOAD DUP2 MSTORE SWAP1 PUSH1 0x1 ADD SWAP1 PUSH1 0x20 ADD DUP1 DUP4 GT PUSH2 0x20BD JUMPI DUP3 SWAP1 SUB PUSH1 0x1F AND DUP3 ADD SWAP2 JUMPDEST POP POP POP POP POP DUP4 DUP4 DUP2 MLOAD DUP2 LT PUSH2 0x20F2 JUMPI PUSH2 0x20F1 PUSH2 0x3366 JUMP JUMPDEST JUMPDEST PUSH1 0x20 MUL PUSH1 0x20 ADD ADD DUP2 SWAP1 MSTORE POP DUP2 DUP1 PUSH2 0x2108 SWAP1 PUSH2 0x331E JUMP JUMPDEST SWAP3 POP POP JUMPDEST DUP1 DUP1 PUSH2 0x2117 SWAP1 PUSH2 0x331E JUMP JUMPDEST SWAP2 POP POP PUSH2 0x1FD4 JUMP JUMPDEST POP DUP2 SWAP3 POP POP POP SWAP2 SWAP1 POP JUMP JUMPDEST PUSH1 0x40 MLOAD DUP1 PUSH1 0x40 ADD PUSH1 0x40 MSTORE DUP1 DUP3 DUP2 MSTORE PUSH1 0x20 ADD DUP4 DUP2 MSTORE POP PUSH1 0xB PUSH1 0x0 DUP6 DUP2 MSTORE PUSH1 0x20 ADD SWAP1 DUP2 MSTORE PUSH1 0x20 ADD PUSH1 0x0 KECCAK256 SWAP1 PUSH1 0x2 PUSH2 0x2160 SWAP3 SWAP2 SWAP1 PUSH2 0x2450 JUMP JUMPDEST POP POP POP POP JUMP JUMPDEST PUSH1 0x0 PUSH1 0x4 SLOAD SWAP1 POP SWAP1 JUMP JUMPDEST PUSH1 0x60 PUSH1 0x0 PUSH1 0x1 PUSH2 0x217F DUP5 PUSH2 0x223E JUMP JUMPDEST ADD SWAP1 POP PUSH1 0x0 DUP2 PUSH8 0xFFFFFFFFFFFFFFFF DUP2 GT ISZERO PUSH2 0x219E JUMPI PUSH2 0x219D PUSH2 0x2576 JUMP JUMPDEST JUMPDEST PUSH1 0x40 MLOAD SWAP1 DUP1 DUP3 MSTORE DUP1 PUSH1 0x1F ADD PUSH1 0x1F NOT AND PUSH1 0x20 ADD DUP3 ADD PUSH1 0x40 MSTORE DUP1 ISZERO PUSH2 0x21D0 JUMPI DUP2 PUSH1 0x20 ADD PUSH1 0x1 DUP3 MUL DUP1 CALLDATASIZE DUP4 CALLDATACOPY DUP1 DUP3 ADD SWAP2 POP POP SWAP1 POP JUMPDEST POP SWAP1 POP PUSH1 0x0 DUP3 PUSH1 0x20 ADD DUP3 ADD SWAP1 POP JUMPDEST PUSH1 0x1 ISZERO PUSH2 0x2233 JUMPI DUP1 DUP1 PUSH1 0x1 SWAP1 SUB SWAP2 POP POP PUSH32 0x3031323334353637383961626364656600000000000000000000000000000000 PUSH1 0xA DUP7 MOD BYTE DUP2 MSTORE8 PUSH1 0xA DUP6 DUP2 PUSH2 0x2227 JUMPI PUSH2 0x2226 PUSH2 0x344F JUMP JUMPDEST JUMPDEST DIV SWAP5 POP PUSH1 0x0 DUP6 SUB PUSH2 0x21DE JUMPI JUMPDEST DUP2 SWAP4 POP POP POP POP SWAP2 SWAP1 POP JUMP JUMPDEST PUSH1 0x0 DUP1 PUSH1 0x0 SWAP1 POP PUSH27 0x184F03E93FF9F4DAA797ED6E38ED64BF6A1F010000000000000000 DUP4 LT PUSH2 0x229C JUMPI PUSH27 0x184F03E93FF9F4DAA797ED6E38ED64BF6A1F010000000000000000 DUP4 DUP2 PUSH2 0x2292 JUMPI PUSH2 0x2291 PUSH2 0x344F JUMP JUMPDEST JUMPDEST DIV SWAP3 POP PUSH1 0x40 DUP2 ADD SWAP1 POP JUMPDEST PUSH14 0x4EE2D6D415B85ACEF8100000000 DUP4 LT PUSH2 0x22D9 JUMPI PUSH14 0x4EE2D6D415B85ACEF8100000000 DUP4 DUP2 PUSH2 0x22CF JUMPI PUSH2 0x22CE PUSH2 0x344F JUMP JUMPDEST JUMPDEST DIV SWAP3 POP PUSH1 0x20 DUP2 ADD SWAP1 POP JUMPDEST PUSH7 0x2386F26FC10000 DUP4 LT PUSH2 0x2308 JUMPI PUSH7 0x2386F26FC10000 DUP4 DUP2 PUSH2 0x22FE JUMPI PUSH2 0x22FD PUSH2 0x344F JUMP JUMPDEST JUMPDEST DIV SWAP3 POP PUSH1 0x10 DUP2 ADD SWAP1 POP JUMPDEST PUSH4 0x5F5E100 DUP4 LT PUSH2 0x2331 JUMPI PUSH4 0x5F5E100 DUP4 DUP2 PUSH2 0x2327 JUMPI PUSH2 0x2326 PUSH2 0x344F JUMP JUMPDEST JUMPDEST DIV SWAP3 POP PUSH1 0x8 DUP2 ADD SWAP1 POP JUMPDEST PUSH2 0x2710 DUP4 LT PUSH2 0x2356 JUMPI PUSH2 0x2710 DUP4 DUP2 PUSH2 0x234C JUMPI PUSH2 0x234B PUSH2 0x344F JUMP JUMPDEST JUMPDEST DIV SWAP3 POP PUSH1 0x4 DUP2 ADD SWAP1 POP JUMPDEST PUSH1 0x64 DUP4 LT PUSH2 0x2379 JUMPI PUSH1 0x64 DUP4 DUP2 PUSH2 0x236F JUMPI PUSH2 0x236E PUSH2 0x344F JUMP JUMPDEST JUMPDEST DIV SWAP3 POP PUSH1 0x2 DUP2 ADD SWAP1 POP JUMPDEST PUSH1 0xA DUP4 LT PUSH2 0x2388 JUMPI PUSH1 0x1 DUP2 ADD SWAP1 POP JUMPDEST DUP1 SWAP2 POP POP SWAP2 SWAP1 POP JUMP JUMPDEST DUP3 PUSH1 0x3 DUP2 ADD SWAP3 DUP3 ISZERO PUSH2 0x23CC JUMPI SWAP2 PUSH1 0x20 MUL DUP3 ADD JUMPDEST DUP3 DUP2 GT ISZERO PUSH2 0x23CB JUMPI DUP3 MLOAD DUP3 SWAP1 DUP2 PUSH2 0x23BB SWAP2 SWAP1 PUSH2 0x321D JUMP JUMPDEST POP SWAP2 PUSH1 0x20 ADD SWAP2 SWAP1 PUSH1 0x1 ADD SWAP1 PUSH2 0x23A4 JUMP JUMPDEST JUMPDEST POP SWAP1 POP PUSH2 0x23D9 SWAP2 SWAP1 PUSH2 0x2490 JUMP JUMPDEST POP SWAP1 JUMP JUMPDEST DUP3 PUSH1 0x2 DUP2 ADD SWAP3 DUP3 ISZERO PUSH2 0x2418 JUMPI SWAP2 PUSH1 0x20 MUL DUP3 ADD JUMPDEST DUP3 DUP2 GT ISZERO PUSH2 0x2417 JUMPI DUP3 MLOAD DUP3 SWAP1 DUP2 PUSH2 0x2407 SWAP2 SWAP1 PUSH2 0x321D JUMP JUMPDEST POP SWAP2 PUSH1 0x20 ADD SWAP2 SWAP1 PUSH1 0x1 ADD SWAP1 PUSH2 0x23F0 JUMP JUMPDEST JUMPDEST POP SWAP1 POP PUSH2 0x2425 SWAP2 SWAP1 PUSH2 0x2490 JUMP JUMPDEST POP SWAP1 JUMP JUMPDEST PUSH1 0x40 MLOAD DUP1 PUSH1 0x40 ADD PUSH1 0x40 MSTORE DUP1 PUSH1 0x2 SWAP1 JUMPDEST PUSH1 0x60 DUP2 MSTORE PUSH1 0x20 ADD SWAP1 PUSH1 0x1 SWAP1 SUB SWAP1 DUP2 PUSH2 0x2438 JUMPI SWAP1 POP POP SWAP1 JUMP JUMPDEST DUP3 PUSH1 0x2 DUP2 ADD SWAP3 DUP3 ISZERO PUSH2 0x247F JUMPI SWAP2 PUSH1 0x20 MUL DUP3 ADD JUMPDEST DUP3 DUP2 GT ISZERO PUSH2 0x247E JUMPI DUP3 MLOAD DUP3 SSTORE SWAP2 PUSH1 0x20 ADD SWAP2 SWAP1 PUSH1 0x1 ADD SWAP1 PUSH2 0x2463 JUMP JUMPDEST JUMPDEST POP SWAP1 POP PUSH2 0x248C SWAP2 SWAP1 PUSH2 0x24B4 JUMP JUMPDEST POP SWAP1 JUMP JUMPDEST JUMPDEST DUP1 DUP3 GT ISZERO PUSH2 0x24B0 JUMPI PUSH1 0x0 DUP2 DUP2 PUSH2 0x24A7 SWAP2 SWAP1 PUSH2 0x24D1 JUMP JUMPDEST POP PUSH1 0x1 ADD PUSH2 0x2491 JUMP JUMPDEST POP SWAP1 JUMP JUMPDEST JUMPDEST DUP1 DUP3 GT ISZERO PUSH2 0x24CD JUMPI PUSH1 0x0 DUP2 PUSH1 0x0 SWAP1 SSTORE POP PUSH1 0x1 ADD PUSH2 0x24B5 JUMP JUMPDEST POP SWAP1 JUMP JUMPDEST POP DUP1 SLOAD PUSH2 0x24DD SWAP1 PUSH2 0x3040 JUMP JUMPDEST PUSH1 0x0 DUP3 SSTORE DUP1 PUSH1 0x1F LT PUSH2 0x24EF JUMPI POP PUSH2 0x250E JUMP JUMPDEST PUSH1 0x1F ADD PUSH1 0x20 SWAP1 DIV SWAP1 PUSH1 0x0 MSTORE PUSH1 0x20 PUSH1 0x0 KECCAK256 SWAP1 DUP2 ADD SWAP1 PUSH2 0x250D SWAP2 SWAP1 PUSH2 0x24B4 JUMP JUMPDEST JUMPDEST POP JUMP JUMPDEST PUSH1 0x0 PUSH1 0x40 MLOAD SWAP1 POP SWAP1 JUMP JUMPDEST PUSH1 0x0 DUP1 REVERT JUMPDEST PUSH1 0x0 DUP1 REVERT JUMPDEST PUSH1 0x0 DUP2 SWAP1 POP SWAP2 SWAP1 POP JUMP JUMPDEST PUSH2 0x2538 DUP2 PUSH2 0x2525 JUMP JUMPDEST DUP2 EQ PUSH2 0x2543 JUMPI PUSH1 0x0 DUP1 REVERT JUMPDEST POP JUMP JUMPDEST PUSH1 0x0 DUP2 CALLDATALOAD SWAP1 POP PUSH2 0x2555 DUP2 PUSH2 0x252F JUMP JUMPDEST SWAP3 SWAP2 POP POP JUMP JUMPDEST PUSH1 0x0 DUP1 REVERT JUMPDEST PUSH1 0x0 DUP1 REVERT JUMPDEST PUSH1 0x0 PUSH1 0x1F NOT PUSH1 0x1F DUP4 ADD AND SWAP1 POP SWAP2 SWAP1 POP JUMP JUMPDEST PUSH32 0x4E487B7100000000000000000000000000000000000000000000000000000000 PUSH1 0x0 MSTORE PUSH1 0x41 PUSH1 0x4 MSTORE PUSH1 0x24 PUSH1 0x0 REVERT JUMPDEST PUSH2 0x25AE DUP3 PUSH2 0x2565 JUMP JUMPDEST DUP2 ADD DUP2 DUP2 LT PUSH8 0xFFFFFFFFFFFFFFFF DUP3 GT OR ISZERO PUSH2 0x25CD JUMPI PUSH2 0x25CC PUSH2 0x2576 JUMP JUMPDEST JUMPDEST DUP1 PUSH1 0x40 MSTORE POP POP POP JUMP JUMPDEST PUSH1 0x0 PUSH2 0x25E0 PUSH2 0x2511 JUMP JUMPDEST SWAP1 POP PUSH2 0x25EC DUP3 DUP3 PUSH2 0x25A5 JUMP JUMPDEST SWAP2 SWAP1 POP JUMP JUMPDEST PUSH1 0x0 PUSH8 0xFFFFFFFFFFFFFFFF DUP3 GT ISZERO PUSH2 0x260C JUMPI PUSH2 0x260B PUSH2 0x2576 JUMP JUMPDEST JUMPDEST PUSH2 0x2615 DUP3 PUSH2 0x2565 JUMP JUMPDEST SWAP1 POP PUSH1 0x20 DUP2 ADD SWAP1 POP SWAP2 SWAP1 POP JUMP JUMPDEST DUP3 DUP2 DUP4 CALLDATACOPY PUSH1 0x0 DUP4 DUP4 ADD MSTORE POP POP POP JUMP JUMPDEST PUSH1 0x0 PUSH2 0x2644 PUSH2 0x263F DUP5 PUSH2 0x25F1 JUMP JUMPDEST PUSH2 0x25D6 JUMP JUMPDEST SWAP1 POP DUP3 DUP2 MSTORE PUSH1 0x20 DUP2 ADD DUP5 DUP5 DUP5 ADD GT ISZERO PUSH2 0x2660 JUMPI PUSH2 0x265F PUSH2 0x2560 JUMP JUMPDEST JUMPDEST PUSH2 0x266B DUP5 DUP3 DUP6 PUSH2 0x2622 JUMP JUMPDEST POP SWAP4 SWAP3 POP POP POP JUMP JUMPDEST PUSH1 0x0 DUP3 PUSH1 0x1F DUP4 ADD SLT PUSH2 0x2688 JUMPI PUSH2 0x2687 PUSH2 0x255B JUMP JUMPDEST JUMPDEST DUP2 CALLDATALOAD PUSH2 0x2698 DUP5 DUP3 PUSH1 0x20 DUP7 ADD PUSH2 0x2631 JUMP JUMPDEST SWAP2 POP POP SWAP3 SWAP2 POP POP JUMP JUMPDEST PUSH1 0x0 DUP1 PUSH1 0x40 DUP4 DUP6 SUB SLT ISZERO PUSH2 0x26B8 JUMPI PUSH2 0x26B7 PUSH2 0x251B JUMP JUMPDEST JUMPDEST PUSH1 0x0 PUSH2 0x26C6 DUP6 DUP3 DUP7 ADD PUSH2 0x2546 JUMP JUMPDEST SWAP3 POP POP PUSH1 0x20 DUP4 ADD CALLDATALOAD PUSH8 0xFFFFFFFFFFFFFFFF DUP2 GT ISZERO PUSH2 0x26E7 JUMPI PUSH2 0x26E6 PUSH2 0x2520 JUMP JUMPDEST JUMPDEST PUSH2 0x26F3 DUP6 DUP3 DUP7 ADD PUSH2 0x2673 JUMP JUMPDEST SWAP2 POP POP SWAP3 POP SWAP3 SWAP1 POP JUMP JUMPDEST PUSH1 0x0 DUP1 PUSH1 0x0 DUP1 PUSH1 0x80 DUP6 DUP8 SUB SLT ISZERO PUSH2 0x2717 JUMPI PUSH2 0x2716 PUSH2 0x251B JUMP JUMPDEST JUMPDEST PUSH1 0x0 PUSH2 0x2725 DUP8 DUP3 DUP9 ADD PUSH2 0x2546 JUMP JUMPDEST SWAP5 POP POP PUSH1 0x20 DUP6 ADD CALLDATALOAD PUSH8 0xFFFFFFFFFFFFFFFF DUP2 GT ISZERO PUSH2 0x2746 JUMPI PUSH2 0x2745 PUSH2 0x2520 JUMP JUMPDEST JUMPDEST PUSH2 0x2752 DUP8 DUP3 DUP9 ADD PUSH2 0x2673 JUMP JUMPDEST SWAP4 POP POP PUSH1 0x40 DUP6 ADD CALLDATALOAD PUSH8 0xFFFFFFFFFFFFFFFF DUP2 GT ISZERO PUSH2 0x2773 JUMPI PUSH2 0x2772 PUSH2 0x2520 JUMP JUMPDEST JUMPDEST PUSH2 0x277F DUP8 DUP3 DUP9 ADD PUSH2 0x2673 JUMP JUMPDEST SWAP3 POP POP PUSH1 0x60 DUP6 ADD CALLDATALOAD PUSH8 0xFFFFFFFFFFFFFFFF DUP2 GT ISZERO PUSH2 0x27A0 JUMPI PUSH2 0x279F PUSH2 0x2520 JUMP JUMPDEST JUMPDEST PUSH2 0x27AC DUP8 DUP3 DUP9 ADD PUSH2 0x2673 JUMP JUMPDEST SWAP2 POP POP SWAP3 SWAP6 SWAP2 SWAP5 POP SWAP3 POP JUMP JUMPDEST PUSH2 0x27C1 DUP2 PUSH2 0x2525 JUMP JUMPDEST DUP3 MSTORE POP POP JUMP JUMPDEST PUSH1 0x0 PUSH1 0x20 DUP3 ADD SWAP1 POP PUSH2 0x27DC PUSH1 0x0 DUP4 ADD DUP5 PUSH2 0x27B8 JUMP JUMPDEST SWAP3 SWAP2 POP POP JUMP JUMPDEST PUSH1 0x0 DUP1 PUSH1 0x0 DUP1 PUSH1 0x0 PUSH1 0xA0 DUP7 DUP9 SUB SLT ISZERO PUSH2 0x27FE JUMPI PUSH2 0x27FD PUSH2 0x251B JUMP JUMPDEST JUMPDEST PUSH1 0x0 PUSH2 0x280C DUP9 DUP3 DUP10 ADD PUSH2 0x2546 JUMP JUMPDEST SWAP6 POP POP PUSH1 0x20 DUP7 ADD CALLDATALOAD PUSH8 0xFFFFFFFFFFFFFFFF DUP2 GT ISZERO PUSH2 0x282D JUMPI PUSH2 0x282C PUSH2 0x2520 JUMP JUMPDEST JUMPDEST PUSH2 0x2839 DUP9 DUP3 DUP10 ADD PUSH2 0x2673 JUMP JUMPDEST SWAP5 POP POP PUSH1 0x40 DUP7 ADD CALLDATALOAD PUSH8 0xFFFFFFFFFFFFFFFF DUP2 GT ISZERO PUSH2 0x285A JUMPI PUSH2 0x2859 PUSH2 0x2520 JUMP JUMPDEST JUMPDEST PUSH2 0x2866 DUP9 DUP3 DUP10 ADD PUSH2 0x2673 JUMP JUMPDEST SWAP4 POP POP PUSH1 0x60 PUSH2 0x2877 DUP9 DUP3 DUP10 ADD PUSH2 0x2546 JUMP JUMPDEST SWAP3 POP POP PUSH1 0x80 DUP7 ADD CALLDATALOAD PUSH8 0xFFFFFFFFFFFFFFFF DUP2 GT ISZERO PUSH2 0x2898 JUMPI PUSH2 0x2897 PUSH2 0x2520 JUMP JUMPDEST JUMPDEST PUSH2 0x28A4 DUP9 DUP3 DUP10 ADD PUSH2 0x2673 JUMP JUMPDEST SWAP2 POP POP SWAP3 SWAP6 POP SWAP3 SWAP6 SWAP1 SWAP4 POP JUMP JUMPDEST PUSH1 0x0 PUSH1 0x20 DUP3 DUP5 SUB SLT ISZERO PUSH2 0x28C7 JUMPI PUSH2 0x28C6 PUSH2 0x251B JUMP JUMPDEST JUMPDEST PUSH1 0x0 DUP3 ADD CALLDATALOAD PUSH8 0xFFFFFFFFFFFFFFFF DUP2 GT ISZERO PUSH2 0x28E5 JUMPI PUSH2 0x28E4 PUSH2 0x2520 JUMP JUMPDEST JUMPDEST PUSH2 0x28F1 DUP5 DUP3 DUP6 ADD PUSH2 0x2673 JUMP JUMPDEST SWAP2 POP POP SWAP3 SWAP2 POP POP JUMP JUMPDEST PUSH1 0x0 DUP2 MLOAD SWAP1 POP SWAP2 SWAP1 POP JUMP JUMPDEST PUSH1 0x0 DUP3 DUP3 MSTORE PUSH1 0x20 DUP3 ADD SWAP1 POP SWAP3 SWAP2 POP POP JUMP JUMPDEST PUSH1 0x0 DUP2 SWAP1 POP PUSH1 0x20 DUP3 ADD SWAP1 POP SWAP2 SWAP1 POP JUMP JUMPDEST PUSH1 0x0 DUP2 MLOAD SWAP1 POP SWAP2 SWAP1 POP JUMP JUMPDEST PUSH1 0x0 DUP3 DUP3 MSTORE PUSH1 0x20 DUP3 ADD SWAP1 POP SWAP3 SWAP2 POP POP JUMP JUMPDEST PUSH1 0x0 JUMPDEST DUP4 DUP2 LT ISZERO PUSH2 0x2960 JUMPI DUP1 DUP3 ADD MLOAD DUP2 DUP5 ADD MSTORE PUSH1 0x20 DUP2 ADD SWAP1 POP PUSH2 0x2945 JUMP JUMPDEST PUSH1 0x0 DUP5 DUP5 ADD MSTORE POP POP POP POP JUMP JUMPDEST PUSH1 0x0 PUSH2 0x2977 DUP3 PUSH2 0x2926 JUMP JUMPDEST PUSH2 0x2981 DUP2 DUP6 PUSH2 0x2931 JUMP JUMPDEST SWAP4 POP PUSH2 0x2991 DUP2 DUP6 PUSH1 0x20 DUP7 ADD PUSH2 0x2942 JUMP JUMPDEST PUSH2 0x299A DUP2 PUSH2 0x2565 JUMP JUMPDEST DUP5 ADD SWAP2 POP POP SWAP3 SWAP2 POP POP JUMP JUMPDEST PUSH1 0x0 PUSH2 0x29B1 DUP4 DUP4 PUSH2 0x296C JUMP JUMPDEST SWAP1 POP SWAP3 SWAP2 POP POP JUMP JUMPDEST PUSH1 0x0 PUSH1 0x20 DUP3 ADD SWAP1 POP SWAP2 SWAP1 POP JUMP JUMPDEST PUSH1 0x0 PUSH2 0x29D1 DUP3 PUSH2 0x28FA JUMP JUMPDEST PUSH2 0x29DB DUP2 DUP6 PUSH2 0x2905 JUMP JUMPDEST SWAP4 POP DUP4 PUSH1 0x20 DUP3 MUL DUP6 ADD PUSH2 0x29ED DUP6 PUSH2 0x2916 JUMP JUMPDEST DUP1 PUSH1 0x0 JUMPDEST DUP6 DUP2 LT ISZERO PUSH2 0x2A29 JUMPI DUP5 DUP5 SUB DUP10 MSTORE DUP2 MLOAD PUSH2 0x2A0A DUP6 DUP3 PUSH2 0x29A5 JUMP JUMPDEST SWAP5 POP PUSH2 0x2A15 DUP4 PUSH2 0x29B9 JUMP JUMPDEST SWAP3 POP PUSH1 0x20 DUP11 ADD SWAP10 POP POP PUSH1 0x1 DUP2 ADD SWAP1 POP PUSH2 0x29F1 JUMP JUMPDEST POP DUP3 SWAP8 POP DUP8 SWAP6 POP POP POP POP POP POP SWAP3 SWAP2 POP POP JUMP JUMPDEST PUSH1 0x0 PUSH1 0x20 DUP3 ADD SWAP1 POP DUP2 DUP2 SUB PUSH1 0x0 DUP4 ADD MSTORE PUSH2 0x2A55 DUP2 DUP5 PUSH2 0x29C6 JUMP JUMPDEST SWAP1 POP SWAP3 SWAP2 POP POP JUMP JUMPDEST PUSH1 0x0 PUSH20 0xFFFFFFFFFFFFFFFFFFFFFFFFFFFFFFFFFFFFFFFF DUP3 AND SWAP1 POP SWAP2 SWAP1 POP JUMP JUMPDEST PUSH1 0x0 PUSH2 0x2A88 DUP3 PUSH2 0x2A5D JUMP JUMPDEST SWAP1 POP SWAP2 SWAP1 POP JUMP JUMPDEST PUSH2 0x2A98 DUP2 PUSH2 0x2A7D JUMP JUMPDEST DUP2 EQ PUSH2 0x2AA3 JUMPI PUSH1 0x0 DUP1 REVERT JUMPDEST POP JUMP JUMPDEST PUSH1 0x0 DUP2 CALLDATALOAD SWAP1 POP PUSH2 0x2AB5 DUP2 PUSH2 0x2A8F JUMP JUMPDEST SWAP3 SWAP2 POP POP JUMP JUMPDEST PUSH1 0x0 DUP1 PUSH1 0x0 PUSH1 0x60 DUP5 DUP7 SUB SLT ISZERO PUSH2 0x2AD4 JUMPI PUSH2 0x2AD3 PUSH2 0x251B JUMP JUMPDEST JUMPDEST PUSH1 0x0 PUSH2 0x2AE2 DUP7 DUP3 DUP8 ADD PUSH2 0x2AA6 JUMP JUMPDEST SWAP4 POP POP PUSH1 0x20 DUP5 ADD CALLDATALOAD PUSH8 0xFFFFFFFFFFFFFFFF DUP2 GT ISZERO PUSH2 0x2B03 JUMPI PUSH2 0x2B02 PUSH2 0x2520 JUMP JUMPDEST JUMPDEST PUSH2 0x2B0F DUP7 DUP3 DUP8 ADD PUSH2 0x2673 JUMP JUMPDEST SWAP3 POP POP PUSH1 0x40 PUSH2 0x2B20 DUP7 DUP3 DUP8 ADD PUSH2 0x2546 JUMP JUMPDEST SWAP2 POP POP SWAP3 POP SWAP3 POP SWAP3 JUMP JUMPDEST PUSH1 0x0 DUP1 PUSH1 0x0 PUSH1 0x60 DUP5 DUP7 SUB SLT ISZERO PUSH2 0x2B43 JUMPI PUSH2 0x2B42 PUSH2 0x251B JUMP JUMPDEST JUMPDEST PUSH1 0x0 PUSH2 0x2B51 DUP7 DUP3 DUP8 ADD PUSH2 0x2546 JUMP JUMPDEST SWAP4 POP POP PUSH1 0x20 PUSH2 0x2B62 DUP7 DUP3 DUP8 ADD PUSH2 0x2546 JUMP JUMPDEST SWAP3 POP POP PUSH1 0x40 DUP5 ADD CALLDATALOAD PUSH8 0xFFFFFFFFFFFFFFFF DUP2 GT ISZERO PUSH2 0x2B83 JUMPI PUSH2 0x2B82 PUSH2 0x2520 JUMP JUMPDEST JUMPDEST PUSH2 0x2B8F DUP7 DUP3 DUP8 ADD PUSH2 0x2673 JUMP JUMPDEST SWAP2 POP POP SWAP3 POP SWAP3 POP SWAP3 JUMP JUMPDEST PUSH1 0x0 DUP1 PUSH1 0x40 DUP4 DUP6 SUB SLT ISZERO PUSH2 0x2BB0 JUMPI PUSH2 0x2BAF PUSH2 0x251B JUMP JUMPDEST JUMPDEST PUSH1 0x0 PUSH2 0x2BBE DUP6 DUP3 DUP7 ADD PUSH2 0x2546 JUMP JUMPDEST SWAP3 POP POP PUSH1 0x20 PUSH2 0x2BCF DUP6 DUP3 DUP7 ADD PUSH2 0x2546 JUMP JUMPDEST SWAP2 POP POP SWAP3 POP SWAP3 SWAP1 POP JUMP JUMPDEST PUSH1 0x0 DUP2 ISZERO ISZERO SWAP1 POP SWAP2 SWAP1 POP JUMP JUMPDEST PUSH2 0x2BEE DUP2 PUSH2 0x2BD9 JUMP JUMPDEST DUP3 MSTORE POP POP JUMP JUMPDEST PUSH1 0x0 PUSH1 0x20 DUP3 ADD SWAP1 POP PUSH2 0x2C09 PUSH1 0x0 DUP4 ADD DUP5 PUSH2 0x2BE5 JUMP JUMPDEST SWAP3 SWAP2 POP POP JUMP JUMPDEST PUSH1 0x0 PUSH1 0x20 DUP3 DUP5 SUB SLT ISZERO PUSH2 0x2C25 JUMPI PUSH2 0x2C24 PUSH2 0x251B JUMP JUMPDEST JUMPDEST PUSH1 0x0 PUSH2 0x2C33 DUP5 DUP3 DUP6 ADD PUSH2 0x2546 JUMP JUMPDEST SWAP2 POP POP SWAP3 SWAP2 POP POP JUMP JUMPDEST PUSH1 0x0 DUP3 DUP3 MSTORE PUSH1 0x20 DUP3 ADD SWAP1 POP SWAP3 SWAP2 POP POP JUMP JUMPDEST PUSH1 0x0 PUSH2 0x2C58 DUP3 PUSH2 0x2926 JUMP JUMPDEST PUSH2 0x2C62 DUP2 DUP6 PUSH2 0x2C3C JUMP JUMPDEST SWAP4 POP PUSH2 0x2C72 DUP2 DUP6 PUSH1 0x20 DUP7 ADD PUSH2 0x2942 JUMP JUMPDEST PUSH2 0x2C7B DUP2 PUSH2 0x2565 JUMP JUMPDEST DUP5 ADD SWAP2 POP POP SWAP3 SWAP2 POP POP JUMP JUMPDEST PUSH1 0x0 PUSH1 0x20 DUP3 ADD SWAP1 POP DUP2 DUP2 SUB PUSH1 0x0 DUP4 ADD MSTORE PUSH2 0x2CA0 DUP2 DUP5 PUSH2 0x2C4D JUMP JUMPDEST SWAP1 POP SWAP3 SWAP2 POP POP JUMP JUMPDEST PUSH1 0x0 DUP1 PUSH1 0x0 PUSH1 0x60 DUP5 DUP7 SUB SLT ISZERO PUSH2 0x2CC1 JUMPI PUSH2 0x2CC0 PUSH2 0x251B JUMP JUMPDEST JUMPDEST PUSH1 0x0 PUSH2 0x2CCF DUP7 DUP3 DUP8 ADD PUSH2 0x2546 JUMP JUMPDEST SWAP4 POP POP PUSH1 0x20 DUP5 ADD CALLDATALOAD PUSH8 0xFFFFFFFFFFFFFFFF DUP2 GT ISZERO PUSH2 0x2CF0 JUMPI PUSH2 0x2CEF PUSH2 0x2520 JUMP JUMPDEST JUMPDEST PUSH2 0x2CFC DUP7 DUP3 DUP8 ADD PUSH2 0x2673 JUMP JUMPDEST SWAP3 POP POP PUSH1 0x40 DUP5 ADD CALLDATALOAD PUSH8 0xFFFFFFFFFFFFFFFF DUP2 GT ISZERO PUSH2 0x2D1D JUMPI PUSH2 0x2D1C PUSH2 0x2520 JUMP JUMPDEST JUMPDEST PUSH2 0x2D29 DUP7 DUP3 DUP8 ADD PUSH2 0x2673 JUMP JUMPDEST SWAP2 POP POP SWAP3 POP SWAP3 POP SWAP3 JUMP JUMPDEST PUSH1 0x0 DUP2 MLOAD SWAP1 POP SWAP2 SWAP1 POP JUMP JUMPDEST PUSH1 0x0 DUP3 DUP3 MSTORE PUSH1 0x20 DUP3 ADD SWAP1 POP SWAP3 SWAP2 POP POP JUMP JUMPDEST PUSH1 0x0 DUP2 SWAP1 POP PUSH1 0x20 DUP3 ADD SWAP1 POP SWAP2 SWAP1 POP JUMP JUMPDEST PUSH2 0x2D68 DUP2 PUSH2 0x2525 JUMP JUMPDEST DUP3 MSTORE POP POP JUMP JUMPDEST PUSH1 0x0 PUSH2 0x2D7A DUP4 DUP4 PUSH2 0x2D5F JUMP JUMPDEST PUSH1 0x20 DUP4 ADD SWAP1 POP SWAP3 SWAP2 POP POP JUMP JUMPDEST PUSH1 0x0 PUSH1 0x20 DUP3 ADD SWAP1 POP SWAP2 SWAP1 POP JUMP JUMPDEST PUSH1 0x0 PUSH2 0x2D9E DUP3 PUSH2 0x2D33 JUMP JUMPDEST PUSH2 0x2DA8 DUP2 DUP6 PUSH2 0x2D3E JUMP JUMPDEST SWAP4 POP PUSH2 0x2DB3 DUP4 PUSH2 0x2D4F JUMP JUMPDEST DUP1 PUSH1 0x0 JUMPDEST DUP4 DUP2 LT ISZERO PUSH2 0x2DE4 JUMPI DUP2 MLOAD PUSH2 0x2DCB DUP9 DUP3 PUSH2 0x2D6E JUMP JUMPDEST SWAP8 POP PUSH2 0x2DD6 DUP4 PUSH2 0x2D86 JUMP JUMPDEST SWAP3 POP POP PUSH1 0x1 DUP2 ADD SWAP1 POP PUSH2 0x2DB7 JUMP JUMPDEST POP DUP6 SWAP4 POP POP POP POP SWAP3 SWAP2 POP POP JUMP JUMPDEST PUSH1 0x0 PUSH1 0x20 DUP3 ADD SWAP1 POP DUP2 DUP2 SUB PUSH1 0x0 DUP4 ADD MSTORE PUSH2 0x2E0B DUP2 DUP5 PUSH2 0x2D93 JUMP JUMPDEST SWAP1 POP SWAP3 SWAP2 POP POP JUMP JUMPDEST PUSH1 0x0 PUSH1 0x2 SWAP1 POP SWAP2 SWAP1 POP JUMP JUMPDEST PUSH1 0x0 DUP2 SWAP1 POP SWAP3 SWAP2 POP POP JUMP JUMPDEST PUSH1 0x0 DUP2 SWAP1 POP SWAP2 SWAP1 POP JUMP JUMPDEST PUSH1 0x0 PUSH1 0x20 DUP3 ADD SWAP1 POP SWAP2 SWAP1 POP JUMP JUMPDEST PUSH1 0x0 PUSH2 0x2E4B DUP3 PUSH2 0x2E13 JUMP JUMPDEST PUSH2 0x2E55 DUP2 DUP6 PUSH2 0x2E1E JUMP JUMPDEST SWAP4 POP DUP4 PUSH1 0x20 DUP3 MUL DUP6 ADD PUSH2 0x2E67 DUP6 PUSH2 0x2E29 JUMP JUMPDEST DUP1 PUSH1 0x0 JUMPDEST DUP6 DUP2 LT ISZERO PUSH2 0x2EA3 JUMPI DUP5 DUP5 SUB DUP10 MSTORE DUP2 MLOAD PUSH2 0x2E84 DUP6 DUP3 PUSH2 0x29A5 JUMP JUMPDEST SWAP5 POP PUSH2 0x2E8F DUP4 PUSH2 0x2E33 JUMP JUMPDEST SWAP3 POP PUSH1 0x20 DUP11 ADD SWAP10 POP POP PUSH1 0x1 DUP2 ADD SWAP1 POP PUSH2 0x2E6B JUMP JUMPDEST POP DUP3 SWAP8 POP DUP8 SWAP6 POP POP POP POP POP POP SWAP3 SWAP2 POP POP JUMP JUMPDEST PUSH1 0x0 PUSH1 0x20 DUP3 ADD SWAP1 POP DUP2 DUP2 SUB PUSH1 0x0 DUP4 ADD MSTORE PUSH2 0x2ECF DUP2 DUP5 PUSH2 0x2E40 JUMP JUMPDEST SWAP1 POP SWAP3 SWAP2 POP POP JUMP JUMPDEST PUSH1 0x0 DUP1 PUSH1 0x0 PUSH1 0x60 DUP5 DUP7 SUB SLT ISZERO PUSH2 0x2EF0 JUMPI PUSH2 0x2EEF PUSH2 0x251B JUMP JUMPDEST JUMPDEST PUSH1 0x0 DUP5 ADD CALLDATALOAD PUSH8 0xFFFFFFFFFFFFFFFF DUP2 GT ISZERO PUSH2 0x2F0E JUMPI PUSH2 0x2F0D PUSH2 0x2520 JUMP JUMPDEST JUMPDEST PUSH2 0x2F1A DUP7 DUP3 DUP8 ADD PUSH2 0x2673 JUMP JUMPDEST SWAP4 POP POP PUSH1 0x20 PUSH2 0x2F2B DUP7 DUP3 DUP8 ADD PUSH2 0x2546 JUMP JUMPDEST SWAP3 POP POP PUSH1 0x40 PUSH2 0x2F3C DUP7 DUP3 DUP8 ADD PUSH2 0x2546 JUMP JUMPDEST SWAP2 POP POP SWAP3 POP SWAP3 POP SWAP3 JUMP JUMPDEST PUSH1 0x0 DUP1 PUSH1 0x40 DUP4 DUP6 SUB SLT ISZERO PUSH2 0x2F5D JUMPI PUSH2 0x2F5C PUSH2 0x251B JUMP JUMPDEST JUMPDEST PUSH1 0x0 DUP4 ADD CALLDATALOAD PUSH8 0xFFFFFFFFFFFFFFFF DUP2 GT ISZERO PUSH2 0x2F7B JUMPI PUSH2 0x2F7A PUSH2 0x2520 JUMP JUMPDEST JUMPDEST PUSH2 0x2F87 DUP6 DUP3 DUP7 ADD PUSH2 0x2673 JUMP JUMPDEST SWAP3 POP POP PUSH1 0x20 DUP4 ADD CALLDATALOAD PUSH8 0xFFFFFFFFFFFFFFFF DUP2 GT ISZERO PUSH2 0x2FA8 JUMPI PUSH2 0x2FA7 PUSH2 0x2520 JUMP JUMPDEST JUMPDEST PUSH2 0x2FB4 DUP6 DUP3 DUP7 ADD PUSH2 0x2673 JUMP JUMPDEST SWAP2 POP POP SWAP3 POP SWAP3 SWAP1 POP JUMP JUMPDEST PUSH1 0x0 DUP1 PUSH1 0x0 PUSH1 0x60 DUP5 DUP7 SUB SLT ISZERO PUSH2 0x2FD7 JUMPI PUSH2 0x2FD6 PUSH2 0x251B JUMP JUMPDEST JUMPDEST PUSH1 0x0 PUSH2 0x2FE5 DUP7 DUP3 DUP8 ADD PUSH2 0x2546 JUMP JUMPDEST SWAP4 POP POP PUSH1 0x20 PUSH2 0x2FF6 DUP7 DUP3 DUP8 ADD PUSH2 0x2546 JUMP JUMPDEST SWAP3 POP POP PUSH1 0x40 PUSH2 0x3007 DUP7 DUP3 DUP8 ADD PUSH2 0x2546 JUMP JUMPDEST SWAP2 POP POP SWAP3 POP SWAP3 POP SWAP3 JUMP JUMPDEST PUSH32 0x4E487B7100000000000000000000000000000000000000000000000000000000 PUSH1 0x0 MSTORE PUSH1 0x22 PUSH1 0x4 MSTORE PUSH1 0x24 PUSH1 0x0 REVERT JUMPDEST PUSH1 0x0 PUSH1 0x2 DUP3 DIV SWAP1 POP PUSH1 0x1 DUP3 AND DUP1 PUSH2 0x3058 JUMPI PUSH1 0x7F DUP3 AND SWAP2 POP JUMPDEST PUSH1 0x20 DUP3 LT DUP2 SUB PUSH2 0x306B JUMPI PUSH2 0x306A PUSH2 0x3011 JUMP JUMPDEST JUMPDEST POP SWAP2 SWAP1 POP JUMP JUMPDEST PUSH1 0x0 DUP2 SWAP1 POP DUP2 PUSH1 0x0 MSTORE PUSH1 0x20 PUSH1 0x0 KECCAK256 SWAP1 POP SWAP2 SWAP1 POP JUMP JUMPDEST PUSH1 0x0 PUSH1 0x20 PUSH1 0x1F DUP4 ADD DIV SWAP1 POP SWAP2 SWAP1 POP JUMP JUMPDEST PUSH1 0x0 DUP3 DUP3 SHL SWAP1 POP SWAP3 SWAP2 POP POP JUMP JUMPDEST PUSH1 0x0 PUSH1 0x8 DUP4 MUL PUSH2 0x30D3 PUSH32 0xFFFFFFFFFFFFFFFFFFFFFFFFFFFFFFFFFFFFFFFFFFFFFFFFFFFFFFFFFFFFFFFF DUP3 PUSH2 0x3096 JUMP JUMPDEST PUSH2 0x30DD DUP7 DUP4 PUSH2 0x3096 JUMP JUMPDEST SWAP6 POP DUP1 NOT DUP5 AND SWAP4 POP DUP1 DUP7 AND DUP5 OR SWAP3 POP POP POP SWAP4 SWAP3 POP POP POP JUMP JUMPDEST PUSH1 0x0 DUP2 SWAP1 POP SWAP2 SWAP1 POP JUMP JUMPDEST PUSH1 0x0 PUSH2 0x311A PUSH2 0x3115 PUSH2 0x3110 DUP5 PUSH2 0x2525 JUMP JUMPDEST PUSH2 0x30F5 JUMP JUMPDEST PUSH2 0x2525 JUMP JUMPDEST SWAP1 POP SWAP2 SWAP1 POP JUMP JUMPDEST PUSH1 0x0 DUP2 SWAP1 POP SWAP2 SWAP1 POP JUMP JUMPDEST PUSH2 0x3134 DUP4 PUSH2 0x30FF JUMP JUMPDEST PUSH2 0x3148 PUSH2 0x3140 DUP3 PUSH2 0x3121 JUMP JUMPDEST DUP5 DUP5 SLOAD PUSH2 0x30A3 JUMP JUMPDEST DUP3 SSTORE POP POP POP POP JUMP JUMPDEST PUSH1 0x0 SWAP1 JUMP JUMPDEST PUSH2 0x315D PUSH2 0x3150 JUMP JUMPDEST PUSH2 0x3168 DUP2 DUP5 DUP5 PUSH2 0x312B JUMP JUMPDEST POP POP POP JUMP JUMPDEST JUMPDEST DUP2 DUP2 LT ISZERO PUSH2 0x318C JUMPI PUSH2 0x3181 PUSH1 0x0 DUP3 PUSH2 0x3155 JUMP JUMPDEST PUSH1 0x1 DUP2 ADD SWAP1 POP PUSH2 0x316E JUMP JUMPDEST POP POP JUMP JUMPDEST PUSH1 0x1F DUP3 GT ISZERO PUSH2 0x31D1 JUMPI PUSH2 0x31A2 DUP2 PUSH2 0x3071 JUMP JUMPDEST PUSH2 0x31AB DUP5 PUSH2 0x3086 JUMP JUMPDEST DUP2 ADD PUSH1 0x20 DUP6 LT ISZERO PUSH2 0x31BA JUMPI DUP2 SWAP1 POP JUMPDEST PUSH2 0x31CE PUSH2 0x31C6 DUP6 PUSH2 0x3086 JUMP JUMPDEST DUP4 ADD DUP3 PUSH2 0x316D JUMP JUMPDEST POP POP JUMPDEST POP POP POP JUMP JUMPDEST PUSH1 0x0 DUP3 DUP3 SHR SWAP1 POP SWAP3 SWAP2 POP POP JUMP JUMPDEST PUSH1 0x0 PUSH2 0x31F4 PUSH1 0x0 NOT DUP5 PUSH1 0x8 MUL PUSH2 0x31D6 JUMP JUMPDEST NOT DUP1 DUP4 AND SWAP2 POP POP SWAP3 SWAP2 POP POP JUMP JUMPDEST PUSH1 0x0 PUSH2 0x320D DUP4 DUP4 PUSH2 0x31E3 JUMP JUMPDEST SWAP2 POP DUP3 PUSH1 0x2 MUL DUP3 OR SWAP1 POP SWAP3 SWAP2 POP POP JUMP JUMPDEST PUSH2 0x3226 DUP3 PUSH2 0x2926 JUMP JUMPDEST PUSH8 0xFFFFFFFFFFFFFFFF DUP2 GT ISZERO PUSH2 0x323F JUMPI PUSH2 0x323E PUSH2 0x2576 JUMP JUMPDEST JUMPDEST PUSH2 0x3249 DUP3 SLOAD PUSH2 0x3040 JUMP JUMPDEST PUSH2 0x3254 DUP3 DUP3 DUP6 PUSH2 0x3190 JUMP JUMPDEST PUSH1 0x0 PUSH1 0x20 SWAP1 POP PUSH1 0x1F DUP4 GT PUSH1 0x1 DUP2 EQ PUSH2 0x3287 JUMPI PUSH1 0x0 DUP5 ISZERO PUSH2 0x3275 JUMPI DUP3 DUP8 ADD MLOAD SWAP1 POP JUMPDEST PUSH2 0x327F DUP6 DUP3 PUSH2 0x3201 JUMP JUMPDEST DUP7 SSTORE POP PUSH2 0x32E7 JUMP JUMPDEST PUSH1 0x1F NOT DUP5 AND PUSH2 0x3295 DUP7 PUSH2 0x3071 JUMP JUMPDEST PUSH1 0x0 JUMPDEST DUP3 DUP2 LT ISZERO PUSH2 0x32BD JUMPI DUP5 DUP10 ADD MLOAD DUP3 SSTORE PUSH1 0x1 DUP3 ADD SWAP2 POP PUSH1 0x20 DUP6 ADD SWAP5 POP PUSH1 0x20 DUP2 ADD SWAP1 POP PUSH2 0x3298 JUMP JUMPDEST DUP7 DUP4 LT ISZERO PUSH2 0x32DA JUMPI DUP5 DUP10 ADD MLOAD PUSH2 0x32D6 PUSH1 0x1F DUP10 AND DUP3 PUSH2 0x31E3 JUMP JUMPDEST DUP4 SSTORE POP JUMPDEST PUSH1 0x1 PUSH1 0x2 DUP9 MUL ADD DUP9 SSTORE POP POP POP JUMPDEST POP POP POP POP POP POP JUMP JUMPDEST PUSH32 0x4E487B7100000000000000000000000000000000000000000000000000000000 PUSH1 0x0 MSTORE PUSH1 0x11 PUSH1 0x4 MSTORE PUSH1 0x24 PUSH1 0x0 REVERT JUMPDEST PUSH1 0x0 PUSH2 0x3329 DUP3 PUSH2 0x2525 JUMP JUMPDEST SWAP2 POP PUSH32 0xFFFFFFFFFFFFFFFFFFFFFFFFFFFFFFFFFFFFFFFFFFFFFFFFFFFFFFFFFFFFFFFF DUP3 SUB PUSH2 0x335B JUMPI PUSH2 0x335A PUSH2 0x32EF JUMP JUMPDEST JUMPDEST PUSH1 0x1 DUP3 ADD SWAP1 POP SWAP2 SWAP1 POP JUMP JUMPDEST PUSH32 0x4E487B7100000000000000000000000000000000000000000000000000000000 PUSH1 0x0 MSTORE PUSH1 0x32 PUSH1 0x4 MSTORE PUSH1 0x24 PUSH1 0x0 REVERT JUMPDEST PUSH1 0x0 DUP2 SWAP1 POP SWAP3 SWAP2 POP POP JUMP JUMPDEST PUSH1 0x0 DUP2 SWAP1 POP DUP2 PUSH1 0x0 MSTORE PUSH1 0x20 PUSH1 0x0 KECCAK256 SWAP1 POP SWAP2 SWAP1 POP JUMP JUMPDEST PUSH1 0x0 DUP2 SLOAD PUSH2 0x33C2 DUP2 PUSH2 0x3040 JUMP JUMPDEST PUSH2 0x33CC DUP2 DUP7 PUSH2 0x3395 JUMP JUMPDEST SWAP5 POP PUSH1 0x1 DUP3 AND PUSH1 0x0 DUP2 EQ PUSH2 0x33E7 JUMPI PUSH1 0x1 DUP2 EQ PUSH2 0x33FC JUMPI PUSH2 0x342F JUMP JUMPDEST PUSH1 0xFF NOT DUP4 AND DUP7 MSTORE DUP2 ISZERO ISZERO DUP3 MUL DUP7 ADD SWAP4 POP PUSH2 0x342F JUMP JUMPDEST PUSH2 0x3405 DUP6 PUSH2 0x33A0 JUMP JUMPDEST PUSH1 0x0 JUMPDEST DUP4 DUP2 LT ISZERO PUSH2 0x3427 JUMPI DUP2 SLOAD DUP2 DUP10 ADD MSTORE PUSH1 0x1 DUP3 ADD SWAP2 POP PUSH1 0x20 DUP2 ADD SWAP1 POP PUSH2 0x3408 JUMP JUMPDEST DUP4 DUP9 ADD SWAP6 POP POP POP JUMPDEST POP POP POP SWAP3 SWAP2 POP POP JUMP JUMPDEST PUSH1 0x0 PUSH2 0x3444 DUP3 DUP5 PUSH2 0x33B5 JUMP JUMPDEST SWAP2 POP DUP2 SWAP1 POP SWAP3 SWAP2 POP POP JUMP JUMPDEST PUSH32 0x4E487B7100000000000000000000000000000000000000000000000000000000 PUSH1 0x0 MSTORE PUSH1 0x12 PUSH1 0x4 MSTORE PUSH1 0x24 PUSH1 0x0 REVERT INVALID LOG2 PUSH5 0x6970667358 0x22 SLT KECCAK256 0xC5 BASEFEE CALLDATALOAD INVALID DUP8 0xBC 0xC4 PUSH29 0xC8E4A9BBBC0AABE3655C5BEBE40F6F8769CE17D22203442464736F6C63 NUMBER STOP ADDMOD GT STOP CALLER "
        },
        "gasEstimates": {
          "creation": {
            "codeDepositCost": "2698400",
            "executionCost": "2930",
            "totalCost": "2701330"
          },
          "external": {
            "BidURI(uint256)": "infinite",
            "CreateGrantProject(uint256,uint256)": "infinite",
            "_EventTokenSearchIds()": "2520",
            "_GrantEventIds()": "2496",
            "_GrantEventURIs(uint256)": "infinite",
            "_GrantProjectIds()": "2496",
            "_GrantVoteIds()": "2562",
            "_JudgerURIs(uint256)": "infinite",
            "_SearchedStore(uint256,uint256)": "infinite",
            "_getSearchedTokenURI(uint256)": "infinite",
            "_setBidURI(uint256,string)": "infinite",
            "_setEventRaised(uint256,string)": "infinite",
            "_setEventURI(uint256,string,string)": "infinite",
            "_setGrantEventURI(uint256,string)": "infinite",
            "_setTokenBid(uint256,uint256,string)": "infinite",
            "_setTokenEvent(uint256,uint256,string)": "infinite",
            "_setTokenURI(uint256,string)": "infinite",
            "claimToken(address,string,uint256)": "infinite",
            "createBid(uint256,string,string,uint256,string)": "infinite",
            "createEvent(string,string)": "infinite",
            "createGrantEvent(string)": "infinite",
            "createGrantVote(string,uint256,uint256)": "infinite",
            "eventURI(uint256)": "infinite",
            "getBidIdByUri(string)": "infinite",
            "getBidsSearchToken(uint256)": "infinite",
            "getCheckSubmittedProjectGrant(uint256,uint256)": "infinite",
            "getEventIdByURI(string)": "infinite",
            "getEventRaised(uint256)": "infinite",
            "getGetEventsTokenID(uint256,string)": "infinite",
            "getSearchEventbyWallet(string)": "infinite",
            "getSearchedGrantVoteProject(uint256,uint256)": "infinite",
            "getSearchedProjectByGrantID(uint256)": "infinite",
            "getTotalBid(uint256)": "infinite",
            "gettokenIdByUri(string)": "infinite",
            "gettokenSearchEventTotal(uint256)": "infinite",
            "setGrantProject(uint256,uint256,uint256)": "infinite",
            "setGrantVote(uint256,string,string,string)": "infinite",
            "tokenURI(uint256)": "infinite",
            "totalEvent()": "2483",
            "totalGrantEvent()": "2591",
            "totalSupply()": "2572"
          }
        },
        "methodIdentifiers": {
          "BidURI(uint256)": "446a92e3",
          "CreateGrantProject(uint256,uint256)": "4ef4e80f",
          "_EventTokenSearchIds()": "144cbca6",
          "_GrantEventIds()": "a99bee2e",
          "_GrantEventURIs(uint256)": "dfc5e169",
          "_GrantProjectIds()": "cef80b3a",
          "_GrantVoteIds()": "dcbe2ed9",
          "_JudgerURIs(uint256)": "53c227cc",
          "_SearchedStore(uint256,uint256)": "b10a5dfa",
          "_getSearchedTokenURI(uint256)": "7cedbc1e",
          "_setBidURI(uint256,string)": "e08033d3",
          "_setEventRaised(uint256,string)": "1677bf08",
          "_setEventURI(uint256,string,string)": "61958158",
          "_setGrantEventURI(uint256,string)": "84eb8f68",
          "_setTokenBid(uint256,uint256,string)": "d654e993",
          "_setTokenEvent(uint256,uint256,string)": "3592dd80",
          "_setTokenURI(uint256,string)": "01538868",
          "claimToken(address,string,uint256)": "35011d90",
          "createBid(uint256,string,string,uint256,string)": "1dacc07e",
          "createEvent(string,string)": "e257a94c",
          "createGrantEvent(string)": "52379627",
          "createGrantVote(string,uint256,uint256)": "c08e953d",
          "eventURI(uint256)": "a0fd0c6a",
          "getBidIdByUri(string)": "d45fc516",
          "getBidsSearchToken(uint256)": "aed47961",
          "getCheckSubmittedProjectGrant(uint256,uint256)": "39053271",
          "getEventIdByURI(string)": "304b16db",
          "getEventRaised(uint256)": "4eb083ec",
          "getGetEventsTokenID(uint256,string)": "28520ab7",
          "getSearchEventbyWallet(string)": "1e65e117",
          "getSearchedGrantVoteProject(uint256,uint256)": "912101cf",
          "getSearchedProjectByGrantID(uint256)": "96d5a739",
          "getTotalBid(uint256)": "5154380a",
          "gettokenIdByUri(string)": "932a196b",
          "gettokenSearchEventTotal(uint256)": "eb1d234d",
          "setGrantProject(uint256,uint256,uint256)": "f3275794",
          "setGrantVote(uint256,string,string,string)": "0ae240cf",
          "tokenURI(uint256)": "c87b56dd",
          "totalEvent()": "7eadfa6a",
          "totalGrantEvent()": "f880eb19",
          "totalSupply()": "18160ddd"
        }
      },
      "storageLayout": {
        "storage": [
          {
            "astId": 1204,
            "contract": "contracts/ForGreen.sol:ForGreen",
            "label": "_tokenIds",
            "offset": 0,
            "slot": "0",
            "type": "t_uint256"
          },
          {
            "astId": 1206,
            "contract": "contracts/ForGreen.sol:ForGreen",
            "label": "_bidIds",
            "offset": 0,
            "slot": "1",
            "type": "t_uint256"
          },
          {
            "astId": 1208,
            "contract": "contracts/ForGreen.sol:ForGreen",
            "label": "_eventIds",
            "offset": 0,
            "slot": "2",
            "type": "t_uint256"
          },
          {
            "astId": 1210,
            "contract": "contracts/ForGreen.sol:ForGreen",
            "label": "_GrantEventIds",
            "offset": 0,
            "slot": "3",
            "type": "t_uint256"
          },
          {
            "astId": 1212,
            "contract": "contracts/ForGreen.sol:ForGreen",
            "label": "_GrantProjectIds",
            "offset": 0,
            "slot": "4",
            "type": "t_uint256"
          },
          {
            "astId": 1214,
            "contract": "contracts/ForGreen.sol:ForGreen",
            "label": "_GrantVoteIds",
            "offset": 0,
            "slot": "5",
            "type": "t_uint256"
          },
          {
            "astId": 1216,
            "contract": "contracts/ForGreen.sol:ForGreen",
            "label": "_EventTokenIds",
            "offset": 0,
            "slot": "6",
            "type": "t_uint256"
          },
          {
            "astId": 1218,
            "contract": "contracts/ForGreen.sol:ForGreen",
            "label": "_TokenBidIds",
            "offset": 0,
            "slot": "7",
            "type": "t_uint256"
          },
          {
            "astId": 1220,
            "contract": "contracts/ForGreen.sol:ForGreen",
            "label": "_EventTokenSearchIds",
            "offset": 0,
            "slot": "8",
            "type": "t_uint256"
          },
          {
            "astId": 1226,
            "contract": "contracts/ForGreen.sol:ForGreen",
            "label": "AllEventTokens",
            "offset": 0,
            "slot": "9",
            "type": "t_mapping(t_uint256,t_array(t_string_storage)2_storage)"
          },
          {
            "astId": 1232,
            "contract": "contracts/ForGreen.sol:ForGreen",
            "label": "AllGrantVotes",
            "offset": 0,
            "slot": "10",
            "type": "t_mapping(t_uint256,t_array(t_string_storage)3_storage)"
          },
          {
            "astId": 1238,
            "contract": "contracts/ForGreen.sol:ForGreen",
            "label": "AllGrantProject",
            "offset": 0,
            "slot": "11",
            "type": "t_mapping(t_uint256,t_array(t_uint256)2_storage)"
          },
          {
            "astId": 1244,
            "contract": "contracts/ForGreen.sol:ForGreen",
            "label": "AllTokensBids",
            "offset": 0,
            "slot": "12",
            "type": "t_mapping(t_uint256,t_array(t_string_storage)2_storage)"
          },
          {
            "astId": 1250,
            "contract": "contracts/ForGreen.sol:ForGreen",
            "label": "_SearchedStore",
            "offset": 0,
            "slot": "13",
            "type": "t_mapping(t_uint256,t_array(t_string_storage)2_storage)"
          },
          {
            "astId": 1254,
            "contract": "contracts/ForGreen.sol:ForGreen",
            "label": "_bidURIs",
            "offset": 0,
            "slot": "14",
            "type": "t_mapping(t_uint256,t_string_storage)"
          },
          {
            "astId": 1258,
            "contract": "contracts/ForGreen.sol:ForGreen",
            "label": "_tokenURIs",
            "offset": 0,
            "slot": "15",
            "type": "t_mapping(t_uint256,t_string_storage)"
          },
          {
            "astId": 1264,
            "contract": "contracts/ForGreen.sol:ForGreen",
            "label": "_eventURIs",
            "offset": 0,
            "slot": "16",
            "type": "t_mapping(t_uint256,t_array(t_string_storage)2_storage)"
          },
          {
            "astId": 1268,
            "contract": "contracts/ForGreen.sol:ForGreen",
            "label": "_GrantEventURIs",
            "offset": 0,
            "slot": "17",
            "type": "t_mapping(t_uint256,t_string_storage)"
          },
          {
            "astId": 1272,
            "contract": "contracts/ForGreen.sol:ForGreen",
            "label": "_JudgerURIs",
            "offset": 0,
            "slot": "18",
            "type": "t_mapping(t_uint256,t_string_storage)"
          },
          {
            "astId": 1276,
            "contract": "contracts/ForGreen.sol:ForGreen",
            "label": "_eventRaised",
            "offset": 0,
            "slot": "19",
            "type": "t_mapping(t_uint256,t_string_storage)"
          },
          {
            "astId": 1280,
            "contract": "contracts/ForGreen.sol:ForGreen",
            "label": "_eventTokens",
            "offset": 0,
            "slot": "20",
            "type": "t_mapping(t_string_memory_ptr,t_string_storage)"
          }
        ],
        "types": {
          "t_array(t_string_storage)2_storage": {
            "base": "t_string_storage",
            "encoding": "inplace",
            "label": "string[2]",
            "numberOfBytes": "64"
          },
          "t_array(t_string_storage)3_storage": {
            "base": "t_string_storage",
            "encoding": "inplace",
            "label": "string[3]",
            "numberOfBytes": "96"
          },
          "t_array(t_uint256)2_storage": {
            "base": "t_uint256",
            "encoding": "inplace",
            "label": "uint256[2]",
            "numberOfBytes": "64"
          },
          "t_mapping(t_string_memory_ptr,t_string_storage)": {
            "encoding": "mapping",
            "key": "t_string_memory_ptr",
            "label": "mapping(string => string)",
            "numberOfBytes": "32",
            "value": "t_string_storage"
          },
          "t_mapping(t_uint256,t_array(t_string_storage)2_storage)": {
            "encoding": "mapping",
            "key": "t_uint256",
            "label": "mapping(uint256 => string[2])",
            "numberOfBytes": "32",
            "value": "t_array(t_string_storage)2_storage"
          },
          "t_mapping(t_uint256,t_array(t_string_storage)3_storage)": {
            "encoding": "mapping",
            "key": "t_uint256",
            "label": "mapping(uint256 => string[3])",
            "numberOfBytes": "32",
            "value": "t_array(t_string_storage)3_storage"
          },
          "t_mapping(t_uint256,t_array(t_uint256)2_storage)": {
            "encoding": "mapping",
            "key": "t_uint256",
            "label": "mapping(uint256 => uint256[2])",
            "numberOfBytes": "32",
            "value": "t_array(t_uint256)2_storage"
          },
          "t_mapping(t_uint256,t_string_storage)": {
            "encoding": "mapping",
            "key": "t_uint256",
            "label": "mapping(uint256 => string)",
            "numberOfBytes": "32",
            "value": "t_string_storage"
          },
          "t_string_memory_ptr": {
            "encoding": "bytes",
            "label": "string",
            "numberOfBytes": "32"
          },
          "t_string_storage": {
            "encoding": "bytes",
            "label": "string",
            "numberOfBytes": "32"
          },
          "t_uint256": {
            "encoding": "inplace",
            "label": "uint256",
            "numberOfBytes": "32"
          }
        }
      },
      "userdoc": {
        "kind": "user",
        "methods": {},
        "version": 1
      }
    }
  }
}