{
  "address": "0x0f7439e69AF58179d9cb283E39B99659F1028E3b",
  "abi": [
    {
      "inputs": [
        {
          "internalType": "uint256",
          "name": "BidId",
          "type": "uint256"
        }
      ],
      "name": "BidURI",
      "outputs": [
        {
          "internalType": "string",
          "name": "",
          "type": "string"
        }
      ],
      "stateMutability": "view",
      "type": "function"
    },
    {
      "inputs": [
        {
          "internalType": "uint256",
          "name": "ProjectId",
          "type": "uint256"
        },
        {
          "internalType": "uint256",
          "name": "GranttId",
          "type": "uint256"
        }
      ],
      "name": "CreateGrantProject",
      "outputs": [
        {
          "internalType": "uint256",
          "name": "",
          "type": "uint256"
        }
      ],
      "stateMutability": "nonpayable",
      "type": "function"
    },
    {
      "inputs": [],
      "name": "_EventTokenSearchIds",
      "outputs": [
        {
          "internalType": "uint256",
          "name": "",
          "type": "uint256"
        }
      ],
      "stateMutability": "view",
      "type": "function"
    },
    {
      "inputs": [],
      "name": "_GrantEventIds",
      "outputs": [
        {
          "internalType": "uint256",
          "name": "",
          "type": "uint256"
        }
      ],
      "stateMutability": "view",
      "type": "function"
    },
    {
      "inputs": [
        {
          "internalType": "uint256",
          "name": "",
          "type": "uint256"
        }
      ],
      "name": "_GrantEventURIs",
      "outputs": [
        {
          "internalType": "string",
          "name": "",
          "type": "string"
        }
      ],
      "stateMutability": "view",
      "type": "function"
    },
    {
      "inputs": [],
      "name": "_GrantProjectIds",
      "outputs": [
        {
          "internalType": "uint256",
          "name": "",
          "type": "uint256"
        }
      ],
      "stateMutability": "view",
      "type": "function"
    },
    {
      "inputs": [],
      "name": "_GrantVoteIds",
      "outputs": [
        {
          "internalType": "uint256",
          "name": "",
          "type": "uint256"
        }
      ],
      "stateMutability": "view",
      "type": "function"
    },
    {
      "inputs": [
        {
          "internalType": "uint256",
          "name": "",
          "type": "uint256"
        }
      ],
      "name": "_JudgerURIs",
      "outputs": [
        {
          "internalType": "string",
          "name": "",
          "type": "string"
        }
      ],
      "stateMutability": "view",
      "type": "function"
    },
    {
      "inputs": [
        {
          "internalType": "uint256",
          "name": "",
          "type": "uint256"
        },
        {
          "internalType": "uint256",
          "name": "",
          "type": "uint256"
        }
      ],
      "name": "_SearchedStore",
      "outputs": [
        {
          "internalType": "string",
          "name": "",
          "type": "string"
        }
      ],
      "stateMutability": "view",
      "type": "function"
    },
    {
      "inputs": [
        {
          "internalType": "uint256",
          "name": "_tokenId",
          "type": "uint256"
        }
      ],
      "name": "_getSearchedTokenURI",
      "outputs": [
        {
          "internalType": "string",
          "name": "",
          "type": "string"
        }
      ],
      "stateMutability": "view",
      "type": "function"
    },
    {
      "inputs": [
        {
          "internalType": "uint256",
          "name": "bidId",
          "type": "uint256"
        },
        {
          "internalType": "string",
          "name": "_bidURI",
          "type": "string"
        }
      ],
      "name": "_setBidURI",
      "outputs": [],
      "stateMutability": "nonpayable",
      "type": "function"
    },
    {
      "inputs": [
        {
          "internalType": "uint256",
          "name": "_eventId",
          "type": "uint256"
        },
        {
          "internalType": "string",
          "name": "_raised",
          "type": "string"
        }
      ],
      "name": "_setEventRaised",
      "outputs": [],
      "stateMutability": "nonpayable",
      "type": "function"
    },
    {
      "inputs": [
        {
          "internalType": "uint256",
          "name": "eventId",
          "type": "uint256"
        },
        {
          "internalType": "string",
          "name": "_eventWallet",
          "type": "string"
        },
        {
          "internalType": "string",
          "name": "_eventURI",
          "type": "string"
        }
      ],
      "name": "_setEventURI",
      "outputs": [],
      "stateMutability": "nonpayable",
      "type": "function"
    },
    {
      "inputs": [
        {
          "internalType": "uint256",
          "name": "eventId",
          "type": "uint256"
        },
        {
          "internalType": "string",
          "name": "_eventURI",
          "type": "string"
        }
      ],
      "name": "_setGrantEventURI",
      "outputs": [],
      "stateMutability": "nonpayable",
      "type": "function"
    },
    {
      "inputs": [
        {
          "internalType": "uint256",
          "name": "TokenBidId",
          "type": "uint256"
        },
        {
          "internalType": "uint256",
          "name": "TokenId",
          "type": "uint256"
        },
        {
          "internalType": "string",
          "name": "_BidURI",
          "type": "string"
        }
      ],
      "name": "_setTokenBid",
      "outputs": [],
      "stateMutability": "nonpayable",
      "type": "function"
    },
    {
      "inputs": [
        {
          "internalType": "uint256",
          "name": "EventTokenId",
          "type": "uint256"
        },
        {
          "internalType": "uint256",
          "name": "EventId",
          "type": "uint256"
        },
        {
          "internalType": "string",
          "name": "_tokenURI",
          "type": "string"
        }
      ],
      "name": "_setTokenEvent",
      "outputs": [],
      "stateMutability": "nonpayable",
      "type": "function"
    },
    {
      "inputs": [
        {
          "internalType": "uint256",
          "name": "tokenId",
          "type": "uint256"
        },
        {
          "internalType": "string",
          "name": "_tokenURI",
          "type": "string"
        }
      ],
      "name": "_setTokenURI",
      "outputs": [],
      "stateMutability": "nonpayable",
      "type": "function"
    },
    {
      "inputs": [
        {
          "internalType": "address",
          "name": "_claimer",
          "type": "address"
        },
        {
          "internalType": "string",
          "name": "_tokenURI",
          "type": "string"
        },
        {
          "internalType": "uint256",
          "name": "_eventid",
          "type": "uint256"
        }
      ],
      "name": "claimToken",
      "outputs": [
        {
          "internalType": "uint256",
          "name": "",
          "type": "uint256"
        }
      ],
      "stateMutability": "nonpayable",
      "type": "function"
    },
    {
      "inputs": [
        {
          "internalType": "uint256",
          "name": "_tokenId",
          "type": "uint256"
        },
        {
          "internalType": "string",
          "name": "_bidURI",
          "type": "string"
        },
        {
          "internalType": "string",
          "name": "_updatedURI",
          "type": "string"
        },
        {
          "internalType": "uint256",
          "name": "_eventid",
          "type": "uint256"
        },
        {
          "internalType": "string",
          "name": "_raised",
          "type": "string"
        }
      ],
      "name": "createBid",
      "outputs": [],
      "stateMutability": "nonpayable",
      "type": "function"
    },
    {
      "inputs": [
        {
          "internalType": "string",
          "name": "_eventWallet",
          "type": "string"
        },
        {
          "internalType": "string",
          "name": "_eventURI",
          "type": "string"
        }
      ],
      "name": "createEvent",
      "outputs": [
        {
          "internalType": "uint256",
          "name": "",
          "type": "uint256"
        }
      ],
      "stateMutability": "nonpayable",
      "type": "function"
    },
    {
      "inputs": [
        {
          "internalType": "string",
          "name": "_eventURI",
          "type": "string"
        }
      ],
      "name": "createGrantEvent",
      "outputs": [
        {
          "internalType": "uint256",
          "name": "",
          "type": "uint256"
        }
      ],
      "stateMutability": "nonpayable",
      "type": "function"
    },
    {
      "inputs": [
        {
          "internalType": "string",
          "name": "Wallet",
          "type": "string"
        },
        {
          "internalType": "uint256",
          "name": "ProjectId",
          "type": "uint256"
        },
        {
          "internalType": "uint256",
          "name": "GranttId",
          "type": "uint256"
        }
      ],
      "name": "createGrantVote",
      "outputs": [
        {
          "internalType": "uint256",
          "name": "",
          "type": "uint256"
        }
      ],
      "stateMutability": "nonpayable",
      "type": "function"
    },
    {
      "inputs": [
        {
          "internalType": "uint256",
          "name": "eventId",
          "type": "uint256"
        }
      ],
      "name": "eventURI",
      "outputs": [
        {
          "internalType": "string[2]",
          "name": "",
          "type": "string[2]"
        }
      ],
      "stateMutability": "view",
      "type": "function"
    },
    {
      "inputs": [
        {
          "internalType": "string",
          "name": "_bidURI",
          "type": "string"
        }
      ],
      "name": "getBidIdByUri",
      "outputs": [
        {
          "internalType": "uint256",
          "name": "",
          "type": "uint256"
        }
      ],
      "stateMutability": "view",
      "type": "function"
    },
    {
      "inputs": [
        {
          "internalType": "uint256",
          "name": "TokenID",
          "type": "uint256"
        }
      ],
      "name": "getBidsSearchToken",
      "outputs": [
        {
          "internalType": "string[]",
          "name": "",
          "type": "string[]"
        }
      ],
      "stateMutability": "view",
      "type": "function"
    },
    {
      "inputs": [
        {
          "internalType": "uint256",
          "name": "Grantid",
          "type": "uint256"
        },
        {
          "internalType": "uint256",
          "name": "ProjectId",
          "type": "uint256"
        }
      ],
      "name": "getCheckSubmittedProjectGrant",
      "outputs": [
        {
          "internalType": "bool",
          "name": "",
          "type": "bool"
        }
      ],
      "stateMutability": "view",
      "type": "function"
    },
    {
      "inputs": [
        {
          "internalType": "string",
          "name": "_eventURI",
          "type": "string"
        }
      ],
      "name": "getEventIdByURI",
      "outputs": [
        {
          "internalType": "uint256",
          "name": "",
          "type": "uint256"
        }
      ],
      "stateMutability": "view",
      "type": "function"
    },
    {
      "inputs": [
        {
          "internalType": "uint256",
          "name": "_eventId",
          "type": "uint256"
        }
      ],
      "name": "getEventRaised",
      "outputs": [
        {
          "internalType": "string",
          "name": "",
          "type": "string"
        }
      ],
      "stateMutability": "view",
      "type": "function"
    },
    {
      "inputs": [
        {
          "internalType": "uint256",
          "name": "EventId",
          "type": "uint256"
        },
        {
          "internalType": "string",
          "name": "_tokenURI",
          "type": "string"
        }
      ],
      "name": "getGetEventsTokenID",
      "outputs": [
        {
          "internalType": "uint256",
          "name": "",
          "type": "uint256"
        }
      ],
      "stateMutability": "view",
      "type": "function"
    },
    {
      "inputs": [
        {
          "internalType": "string",
          "name": "Wallet",
          "type": "string"
        }
      ],
      "name": "getSearchEventbyWallet",
      "outputs": [
        {
          "internalType": "string[]",
          "name": "",
          "type": "string[]"
        }
      ],
      "stateMutability": "view",
      "type": "function"
    },
    {
      "inputs": [
        {
          "internalType": "uint256",
          "name": "Grantid",
          "type": "uint256"
        },
        {
          "internalType": "uint256",
          "name": "ProjectId",
          "type": "uint256"
        }
      ],
      "name": "getSearchedGrantVoteProject",
      "outputs": [
        {
          "internalType": "string[]",
          "name": "",
          "type": "string[]"
        }
      ],
      "stateMutability": "view",
      "type": "function"
    },
    {
      "inputs": [
        {
          "internalType": "uint256",
          "name": "Grantid",
          "type": "uint256"
        }
      ],
      "name": "getSearchedProjectByGrantID",
      "outputs": [
        {
          "internalType": "uint256[]",
          "name": "",
          "type": "uint256[]"
        }
      ],
      "stateMutability": "view",
      "type": "function"
    },
    {
      "inputs": [
        {
          "internalType": "uint256",
          "name": "TokenID",
          "type": "uint256"
        }
      ],
      "name": "getTotalBid",
      "outputs": [
        {
          "internalType": "string[]",
          "name": "",
          "type": "string[]"
        }
      ],
      "stateMutability": "view",
      "type": "function"
    },
    {
      "inputs": [
        {
          "internalType": "string",
          "name": "_tokenURI",
          "type": "string"
        }
      ],
      "name": "gettokenIdByUri",
      "outputs": [
        {
          "internalType": "uint256",
          "name": "",
          "type": "uint256"
        }
      ],
      "stateMutability": "view",
      "type": "function"
    },
    {
      "inputs": [
        {
          "internalType": "uint256",
          "name": "EventID",
          "type": "uint256"
        }
      ],
      "name": "gettokenSearchEventTotal",
      "outputs": [
        {
          "internalType": "string[]",
          "name": "",
          "type": "string[]"
        }
      ],
      "stateMutability": "view",
      "type": "function"
    },
    {
      "inputs": [
        {
          "internalType": "uint256",
          "name": "GrantProjectId",
          "type": "uint256"
        },
        {
          "internalType": "uint256",
          "name": "ProjectId",
          "type": "uint256"
        },
        {
          "internalType": "uint256",
          "name": "GranttId",
          "type": "uint256"
        }
      ],
      "name": "setGrantProject",
      "outputs": [],
      "stateMutability": "nonpayable",
      "type": "function"
    },
    {
      "inputs": [
        {
          "internalType": "uint256",
          "name": "GrantVoteId",
          "type": "uint256"
        },
        {
          "internalType": "string",
          "name": "Wallet",
          "type": "string"
        },
        {
          "internalType": "string",
          "name": "ProjectId",
          "type": "string"
        },
        {
          "internalType": "string",
          "name": "GranttId",
          "type": "string"
        }
      ],
      "name": "setGrantVote",
      "outputs": [],
      "stateMutability": "nonpayable",
      "type": "function"
    },
    {
      "inputs": [
        {
          "internalType": "uint256",
          "name": "tokenId",
          "type": "uint256"
        }
      ],
      "name": "tokenURI",
      "outputs": [
        {
          "internalType": "string",
          "name": "",
          "type": "string"
        }
      ],
      "stateMutability": "view",
      "type": "function"
    },
    {
      "inputs": [],
      "name": "totalEvent",
      "outputs": [
        {
          "internalType": "uint256",
          "name": "",
          "type": "uint256"
        }
      ],
      "stateMutability": "view",
      "type": "function"
    },
    {
      "inputs": [],
      "name": "totalGrantEvent",
      "outputs": [
        {
          "internalType": "uint256",
          "name": "",
          "type": "uint256"
        }
      ],
      "stateMutability": "view",
      "type": "function"
    },
    {
      "inputs": [],
      "name": "totalSupply",
      "outputs": [
        {
          "internalType": "uint256",
          "name": "",
          "type": "uint256"
        }
      ],
      "stateMutability": "view",
      "type": "function"
    }
  ],
  "transactionHash": "0x873b3b51fda162b27e9d6bc2b4b7d3d5ac25482ad62187618d05d255f290e58b",
  "args": [],
  "numDeployments": 1,
  "solcInputHash": "2b1f3eb337fa67b05900b85016765311",
  "bytecode": "0x608060405234801561001057600080fd5b5061345e806100206000396000f3fe608060405234801561001057600080fd5b50600436106102535760003560e01c80637eadfa6a11610146578063c87b56dd116100c3578063dfc5e16911610087578063dfc5e169146107dc578063e08033d31461080c578063e257a94c14610828578063eb1d234d14610858578063f327579414610888578063f880eb19146108a457610253565b8063c87b56dd14610724578063cef80b3a14610754578063d45fc51614610772578063d654e993146107a2578063dcbe2ed9146107be57610253565b8063a0fd0c6a1161010a578063a0fd0c6a14610646578063a99bee2e14610676578063aed4796114610694578063b10a5dfa146106c4578063c08e953d146106f457610253565b80637eadfa6a1461057c57806384eb8f681461059a578063912101cf146105b6578063932a196b146105e657806396d5a7391461061657610253565b80633592dd80116101d45780635154380a116101985780635154380a146104a057806352379627146104d057806353c227cc1461050057806361958158146105305780637cedbc1e1461054c57610253565b80633592dd80146103c457806339053271146103e0578063446a92e3146104105780634eb083ec146104405780634ef4e80f1461047057610253565b80631dacc07e1161021b5780631dacc07e146102e85780631e65e1171461030457806328520ab714610334578063304b16db1461036457806335011d901461039457610253565b806301538868146102585780630ae240cf14610274578063144cbca6146102905780631677bf08146102ae57806318160ddd146102ca575b600080fd5b610272600480360381019061026d919061264b565b6108c2565b005b61028e600480360381019061028991906126a7565b6108e7565b005b61029861092a565b6040516102a59190612771565b60405180910390f35b6102c860048036038101906102c3919061264b565b610930565b005b6102d2610955565b6040516102df9190612771565b60405180910390f35b61030260048036038101906102fd919061278c565b61095e565b005b61031e6004803603810190610319919061285b565b610a82565b60405161032b91906129e5565b60405180910390f35b61034e6004803603810190610349919061264b565b610ca4565b60405161035b9190612771565b60405180910390f35b61037e6004803603810190610379919061285b565b610d7d565b60405161038b9190612771565b60405180910390f35b6103ae60048036038101906103a99190612a65565b610dff565b6040516103bb9190612771565b60405180910390f35b6103de60048036038101906103d99190612ad4565b610e55565b005b6103fa60048036038101906103f59190612b43565b610e99565b6040516104079190612b9e565b60405180910390f35b61042a60048036038101906104259190612bb9565b610f35565b6040516104379190612c30565b60405180910390f35b61045a60048036038101906104559190612bb9565b610fda565b6040516104679190612c30565b60405180910390f35b61048a60048036038101906104859190612b43565b61107f565b6040516104979190612771565b60405180910390f35b6104ba60048036038101906104b59190612bb9565b6110b1565b6040516104c791906129e5565b60405180910390f35b6104ea60048036038101906104e5919061285b565b611260565b6040516104f79190612771565b60405180910390f35b61051a60048036038101906105159190612bb9565b611290565b6040516105279190612c30565b60405180910390f35b61054a60048036038101906105459190612c52565b611330565b005b61056660048036038101906105619190612bb9565b61136c565b6040516105739190612c30565b60405180910390f35b610584611425565b6040516105919190612771565b60405180910390f35b6105b460048036038101906105af919061264b565b61142f565b005b6105d060048036038101906105cb9190612b43565b611454565b6040516105dd91906129e5565b60405180910390f35b61060060048036038101906105fb919061285b565b611733565b60405161060d9190612771565b60405180910390f35b610630600480360381019061062b9190612bb9565b6117a1565b60405161063d9190612d9b565b60405180910390f35b610660600480360381019061065b9190612bb9565b611901565b60405161066d9190612e5f565b60405180910390f35b61067e6119e1565b60405161068b9190612771565b60405180910390f35b6106ae60048036038101906106a99190612bb9565b6119e7565b6040516106bb91906129e5565b60405180910390f35b6106de60048036038101906106d99190612b43565b611b96565b6040516106eb9190612c30565b60405180910390f35b61070e60048036038101906107099190612e81565b611c46565b60405161071b9190612771565b60405180910390f35b61073e60048036038101906107399190612bb9565b611c8a565b60405161074b9190612c30565b60405180910390f35b61075c611d2f565b6040516107699190612771565b60405180910390f35b61078c6004803603810190610787919061285b565b611d35565b6040516107999190612771565b60405180910390f35b6107bc60048036038101906107b79190612ad4565b611da3565b005b6107c6611de7565b6040516107d39190612771565b60405180910390f35b6107f660048036038101906107f19190612bb9565b611ded565b6040516108039190612c30565b60405180910390f35b6108266004803603810190610821919061264b565b611e8d565b005b610842600480360381019061083d9190612ef0565b611eb2565b60405161084f9190612771565b60405180910390f35b610872600480360381019061086d9190612bb9565b611f25565b60405161087f91906129e5565b60405180910390f35b6108a2600480360381019061089d9190612f68565b6120d4565b005b6108ac612110565b6040516108b99190612771565b60405180910390f35b80600f600084815260200190815260200160002090816108e291906131c7565b505050565b604051806060016040528082815260200183815260200184815250600a600086815260200190815260200160002090600361092392919061233b565b5050505050565b60085481565b8060136000848152602001908152602001600020908161095091906131c7565b505050565b60008054905090565b6000610a0583600f6000898152602001908152602001600020805461098290612fea565b80601f01602080910402602001604051908101604052809291908181526020018280546109ae90612fea565b80156109fb5780601f106109d0576101008083540402835291602001916109fb565b820191906000526020600020905b8154815290600101906020018083116109de57829003601f168201915b5050505050610ca4565b905083600f60008881526020019081526020016000209081610a2791906131c7565b50610a33818486610e55565b610a3d8383610930565b610a4a6007548787611da3565b60076000815480929190610a5d906132c8565b919050555060016000815480929190610a75906132c8565b9190505550505050505050565b606060008060005b600254811015610aff57848051906020012060106000838152602001908152602001600020600060028110610ac257610ac1613310565b5b01604051610ad091906133e2565b604051809103902003610aec578280610ae8906132c8565b9350505b8080610af7906132c8565b915050610a8a565b5060008267ffffffffffffffff811115610b1c57610b1b612520565b5b604051908082528060200260200182016040528015610b4f57816020015b6060815260200190600190039081610b3a5790505b50905060005b600254811015610c9857858051906020012060106000838152602001908152602001600020600060028110610b8d57610b8c613310565b5b01604051610b9b91906133e2565b604051809103902003610c855760106000828152602001908152602001600020600160028110610bce57610bcd613310565b5b018054610bda90612fea565b80601f0160208091040260200160405190810160405280929190818152602001828054610c0690612fea565b8015610c535780601f10610c2857610100808354040283529160200191610c53565b820191906000526020600020905b815481529060010190602001808311610c3657829003601f168201915b5050505050828481518110610c6b57610c6a613310565b5b60200260200101819052508280610c81906132c8565b9350505b8080610c90906132c8565b915050610b55565b50809350505050919050565b600080600090505b600654811015610d7157610cbf8461211a565b8051906020012060096000838152602001908152602001600020600060028110610cec57610ceb613310565b5b01604051610cfa91906133e2565b6040518091039020148015610d505750828051906020012060096000838152602001908152602001600020600160028110610d3857610d37613310565b5b01604051610d4691906133e2565b6040518091039020145b15610d5e5780915050610d77565b8080610d69906132c8565b915050610cac565b50600090505b92915050565b600080600090505b600254811015610df457828051906020012060106000838152602001908152602001600020600160028110610dbd57610dbc613310565b5b01604051610dcb91906133e2565b604051809103902003610de15780915050610dfa565b8080610dec906132c8565b915050610d85565b50600090505b919050565b6000610e0d600054846108c2565b610e1a6006548385610e55565b600080815480929190610e2c906132c8565b919050555060066000815480929190610e44906132c8565b919050555060005490509392505050565b6040518060400160405280610e698461211a565b81526020018281525060096000858152602001908152602001600020906002610e93929190612387565b50505050565b600080600090505b600454811015610f295783600b6000838152602001908152602001600020600060028110610ed257610ed1613310565b5b0154148015610f07575082600b6000838152602001908152602001600020600160028110610f0357610f02613310565b5b0154145b15610f16576001915050610f2f565b8080610f21906132c8565b915050610ea1565b50600090505b92915050565b6060600e60008381526020019081526020016000208054610f5590612fea565b80601f0160208091040260200160405190810160405280929190818152602001828054610f8190612fea565b8015610fce5780601f10610fa357610100808354040283529160200191610fce565b820191906000526020600020905b815481529060010190602001808311610fb157829003601f168201915b50505050509050919050565b6060601360008381526020019081526020016000208054610ffa90612fea565b80601f016020809104026020016040519081016040528092919081815260200182805461102690612fea565b80156110735780601f1061104857610100808354040283529160200191611073565b820191906000526020600020905b81548152906001019060200180831161105657829003601f168201915b50505050509050919050565b600061108e60045484846120d4565b600460008154809291906110a1906132c8565b9190505550600454905092915050565b60606000600a67ffffffffffffffff8111156110d0576110cf612520565b5b60405190808252806020026020018201604052801561110357816020015b60608152602001906001900390816110ee5790505b5090506000805b6007548110156112555761111d8561211a565b80519060200120600c600083815260200190815260200160002060006002811061114a57611149613310565b5b0160405161115891906133e2565b60405180910390200361124257600c600082815260200190815260200160002060016002811061118b5761118a613310565b5b01805461119790612fea565b80601f01602080910402602001604051908101604052809291908181526020018280546111c390612fea565b80156112105780601f106111e557610100808354040283529160200191611210565b820191906000526020600020905b8154815290600101906020018083116111f357829003601f168201915b505050505083838151811061122857611227613310565b5b6020026020010181905250818061123e906132c8565b9250505b808061124d906132c8565b91505061110a565b508192505050919050565b600061126e6003548361142f565b60036000815480929190611281906132c8565b91905055506003549050919050565b601260205280600052604060002060009150905080546112af90612fea565b80601f01602080910402602001604051908101604052809291908181526020018280546112db90612fea565b80156113285780601f106112fd57610100808354040283529160200191611328565b820191906000526020600020905b81548152906001019060200180831161130b57829003601f168201915b505050505081565b60405180604001604052808381526020018281525060106000858152602001908152602001600020906002611366929190612387565b50505050565b6060600d600083815260200190815260200160002060006002811061139457611393613310565b5b0180546113a090612fea565b80601f01602080910402602001604051908101604052809291908181526020018280546113cc90612fea565b80156114195780601f106113ee57610100808354040283529160200191611419565b820191906000526020600020905b8154815290600101906020018083116113fc57829003601f168201915b50505050509050919050565b6000600254905090565b8060116000848152602001908152602001600020908161144f91906131c7565b505050565b606060008060005b60055481101561152f5761146f8661211a565b80519060200120600a600083815260200190815260200160002060006003811061149c5761149b613310565b5b016040516114aa91906133e2565b604051809103902014801561150857506114c38561211a565b80519060200120600a60008381526020019081526020016000206001600381106114f0576114ef613310565b5b016040516114fe91906133e2565b6040518091039020145b1561151c578280611518906132c8565b9350505b8080611527906132c8565b91505061145c565b5060008267ffffffffffffffff81111561154c5761154b612520565b5b60405190808252806020026020018201604052801561157f57816020015b606081526020019060019003908161156a5790505b50905060005b600554811015611726576115988761211a565b80519060200120600a60008381526020019081526020016000206000600381106115c5576115c4613310565b5b016040516115d391906133e2565b604051809103902014801561163157506115ec8661211a565b80519060200120600a600083815260200190815260200160002060016003811061161957611618613310565b5b0160405161162791906133e2565b6040518091039020145b1561171357600a600082815260200190815260200160002060026003811061165c5761165b613310565b5b01805461166890612fea565b80601f016020809104026020016040519081016040528092919081815260200182805461169490612fea565b80156116e15780601f106116b6576101008083540402835291602001916116e1565b820191906000526020600020905b8154815290600101906020018083116116c457829003601f168201915b50505050508284815181106116f9576116f8613310565b5b6020026020010181905250828061170f906132c8565b9350505b808061171e906132c8565b915050611585565b5080935050505092915050565b600080600090505b600054811015611796578280519060200120600f600083815260200190815260200160002060405161176d91906133e2565b604051809103902003611783578091505061179c565b808061178e906132c8565b91505061173b565b50600090505b919050565b606060008060005b6004548110156118035784600b60008381526020019081526020016000206000600281106117da576117d9613310565b5b0154036117f05782806117ec906132c8565b9350505b80806117fb906132c8565b9150506117a9565b5060008267ffffffffffffffff8111156118205761181f612520565b5b60405190808252806020026020018201604052801561184e5781602001602082028036833780820191505090505b50905060005b6004548110156118f55785600b600083815260200190815260200160002060006002811061188557611884613310565b5b0154036118e257600b60008281526020019081526020016000206001600281106118b2576118b1613310565b5b01548284815181106118c7576118c6613310565b5b60200260200101818152505082806118de906132c8565b9350505b80806118ed906132c8565b915050611854565b50809350505050919050565b6119096123d3565b60106000838152602001908152602001600020600280602002604051908101604052809291906000905b828210156119d657838201805461194990612fea565b80601f016020809104026020016040519081016040528092919081815260200182805461197590612fea565b80156119c25780601f10611997576101008083540402835291602001916119c2565b820191906000526020600020905b8154815290600101906020018083116119a557829003601f168201915b505050505081526020019060010190611933565b505050509050919050565b60035481565b60606000600a67ffffffffffffffff811115611a0657611a05612520565b5b604051908082528060200260200182016040528015611a3957816020015b6060815260200190600190039081611a245790505b5090506000805b600754811015611b8b57611a538561211a565b80519060200120600c6000838152602001908152602001600020600060028110611a8057611a7f613310565b5b01604051611a8e91906133e2565b604051809103902003611b7857600c6000828152602001908152602001600020600160028110611ac157611ac0613310565b5b018054611acd90612fea565b80601f0160208091040260200160405190810160405280929190818152602001828054611af990612fea565b8015611b465780601f10611b1b57610100808354040283529160200191611b46565b820191906000526020600020905b815481529060010190602001808311611b2957829003601f168201915b5050505050838381518110611b5e57611b5d613310565b5b60200260200101819052508180611b74906132c8565b9250505b8080611b83906132c8565b915050611a40565b508192505050919050565b600d6020528160005260406000208160028110611bb257600080fd5b01600091509150508054611bc590612fea565b80601f0160208091040260200160405190810160405280929190818152602001828054611bf190612fea565b8015611c3e5780601f10611c1357610100808354040283529160200191611c3e565b820191906000526020600020905b815481529060010190602001808311611c2157829003601f168201915b505050505081565b6000611c6660055485611c588661211a565b611c618661211a565b6108e7565b60056000815480929190611c79906132c8565b919050555060055490509392505050565b6060600f60008381526020019081526020016000208054611caa90612fea565b80601f0160208091040260200160405190810160405280929190818152602001828054611cd690612fea565b8015611d235780601f10611cf857610100808354040283529160200191611d23565b820191906000526020600020905b815481529060010190602001808311611d0657829003601f168201915b50505050509050919050565b60045481565b600080600090505b600154811015611d98578280519060200120600e6000838152602001908152602001600020604051611d6f91906133e2565b604051809103902003611d855780915050611d9e565b8080611d90906132c8565b915050611d3d565b50600090505b919050565b6040518060400160405280611db78461211a565b815260200182815250600c6000858152602001908152602001600020906002611de1929190612387565b50505050565b60055481565b60116020528060005260406000206000915090508054611e0c90612fea565b80601f0160208091040260200160405190810160405280929190818152602001828054611e3890612fea565b8015611e855780601f10611e5a57610100808354040283529160200191611e85565b820191906000526020600020905b815481529060010190602001808311611e6857829003601f168201915b505050505081565b80600e60008481526020019081526020016000209081611ead91906131c7565b505050565b6000611ec16002548484611330565b611f026002546040518060400160405280600181526020017f3000000000000000000000000000000000000000000000000000000000000000815250610930565b60026000815480929190611f15906132c8565b9190505550600254905092915050565b60606000600a67ffffffffffffffff811115611f4457611f43612520565b5b604051908082528060200260200182016040528015611f7757816020015b6060815260200190600190039081611f625790505b5090506000805b6006548110156120c957611f918561211a565b8051906020012060096000838152602001908152602001600020600060028110611fbe57611fbd613310565b5b01604051611fcc91906133e2565b6040518091039020036120b65760096000828152602001908152602001600020600160028110611fff57611ffe613310565b5b01805461200b90612fea565b80601f016020809104026020016040519081016040528092919081815260200182805461203790612fea565b80156120845780601f1061205957610100808354040283529160200191612084565b820191906000526020600020905b81548152906001019060200180831161206757829003601f168201915b505050505083838151811061209c5761209b613310565b5b602002602001018190525081806120b2906132c8565b9250505b80806120c1906132c8565b915050611f7e565b508192505050919050565b604051806040016040528082815260200183815250600b600085815260200190815260200160002090600261210a9291906123fa565b50505050565b6000600454905090565b606060006001612129846121e8565b01905060008167ffffffffffffffff81111561214857612147612520565b5b6040519080825280601f01601f19166020018201604052801561217a5781602001600182028036833780820191505090505b509050600082602001820190505b6001156121dd578080600190039150507f3031323334353637383961626364656600000000000000000000000000000000600a86061a8153600a85816121d1576121d06133f9565b5b04945060008503612188575b819350505050919050565b600080600090507a184f03e93ff9f4daa797ed6e38ed64bf6a1f0100000000000000008310612246577a184f03e93ff9f4daa797ed6e38ed64bf6a1f010000000000000000838161223c5761223b6133f9565b5b0492506040810190505b6d04ee2d6d415b85acef81000000008310612283576d04ee2d6d415b85acef81000000008381612279576122786133f9565b5b0492506020810190505b662386f26fc1000083106122b257662386f26fc1000083816122a8576122a76133f9565b5b0492506010810190505b6305f5e10083106122db576305f5e10083816122d1576122d06133f9565b5b0492506008810190505b61271083106123005761271083816122f6576122f56133f9565b5b0492506004810190505b606483106123235760648381612319576123186133f9565b5b0492506002810190505b600a8310612332576001810190505b80915050919050565b8260038101928215612376579160200282015b8281111561237557825182908161236591906131c7565b509160200191906001019061234e565b5b509050612383919061243a565b5090565b82600281019282156123c2579160200282015b828111156123c15782518290816123b191906131c7565b509160200191906001019061239a565b5b5090506123cf919061243a565b5090565b60405180604001604052806002905b60608152602001906001900390816123e25790505090565b8260028101928215612429579160200282015b8281111561242857825182559160200191906001019061240d565b5b509050612436919061245e565b5090565b5b8082111561245a5760008181612451919061247b565b5060010161243b565b5090565b5b8082111561247757600081600090555060010161245f565b5090565b50805461248790612fea565b6000825580601f1061249957506124b8565b601f0160209004906000526020600020908101906124b7919061245e565b5b50565b6000604051905090565b600080fd5b600080fd5b6000819050919050565b6124e2816124cf565b81146124ed57600080fd5b50565b6000813590506124ff816124d9565b92915050565b600080fd5b600080fd5b6000601f19601f8301169050919050565b7f4e487b7100000000000000000000000000000000000000000000000000000000600052604160045260246000fd5b6125588261250f565b810181811067ffffffffffffffff8211171561257757612576612520565b5b80604052505050565b600061258a6124bb565b9050612596828261254f565b919050565b600067ffffffffffffffff8211156125b6576125b5612520565b5b6125bf8261250f565b9050602081019050919050565b82818337600083830152505050565b60006125ee6125e98461259b565b612580565b90508281526020810184848401111561260a5761260961250a565b5b6126158482856125cc565b509392505050565b600082601f83011261263257612631612505565b5b81356126428482602086016125db565b91505092915050565b60008060408385031215612662576126616124c5565b5b6000612670858286016124f0565b925050602083013567ffffffffffffffff811115612691576126906124ca565b5b61269d8582860161261d565b9150509250929050565b600080600080608085870312156126c1576126c06124c5565b5b60006126cf878288016124f0565b945050602085013567ffffffffffffffff8111156126f0576126ef6124ca565b5b6126fc8782880161261d565b935050604085013567ffffffffffffffff81111561271d5761271c6124ca565b5b6127298782880161261d565b925050606085013567ffffffffffffffff81111561274a576127496124ca565b5b6127568782880161261d565b91505092959194509250565b61276b816124cf565b82525050565b60006020820190506127866000830184612762565b92915050565b600080600080600060a086880312156127a8576127a76124c5565b5b60006127b6888289016124f0565b955050602086013567ffffffffffffffff8111156127d7576127d66124ca565b5b6127e38882890161261d565b945050604086013567ffffffffffffffff811115612804576128036124ca565b5b6128108882890161261d565b9350506060612821888289016124f0565b925050608086013567ffffffffffffffff811115612842576128416124ca565b5b61284e8882890161261d565b9150509295509295909350565b600060208284031215612871576128706124c5565b5b600082013567ffffffffffffffff81111561288f5761288e6124ca565b5b61289b8482850161261d565b91505092915050565b600081519050919050565b600082825260208201905092915050565b6000819050602082019050919050565b600081519050919050565b600082825260208201905092915050565b60005b8381101561290a5780820151818401526020810190506128ef565b60008484015250505050565b6000612921826128d0565b61292b81856128db565b935061293b8185602086016128ec565b6129448161250f565b840191505092915050565b600061295b8383612916565b905092915050565b6000602082019050919050565b600061297b826128a4565b61298581856128af565b935083602082028501612997856128c0565b8060005b858110156129d357848403895281516129b4858261294f565b94506129bf83612963565b925060208a0199505060018101905061299b565b50829750879550505050505092915050565b600060208201905081810360008301526129ff8184612970565b905092915050565b600073ffffffffffffffffffffffffffffffffffffffff82169050919050565b6000612a3282612a07565b9050919050565b612a4281612a27565b8114612a4d57600080fd5b50565b600081359050612a5f81612a39565b92915050565b600080600060608486031215612a7e57612a7d6124c5565b5b6000612a8c86828701612a50565b935050602084013567ffffffffffffffff811115612aad57612aac6124ca565b5b612ab98682870161261d565b9250506040612aca868287016124f0565b9150509250925092565b600080600060608486031215612aed57612aec6124c5565b5b6000612afb868287016124f0565b9350506020612b0c868287016124f0565b925050604084013567ffffffffffffffff811115612b2d57612b2c6124ca565b5b612b398682870161261d565b9150509250925092565b60008060408385031215612b5a57612b596124c5565b5b6000612b68858286016124f0565b9250506020612b79858286016124f0565b9150509250929050565b60008115159050919050565b612b9881612b83565b82525050565b6000602082019050612bb36000830184612b8f565b92915050565b600060208284031215612bcf57612bce6124c5565b5b6000612bdd848285016124f0565b91505092915050565b600082825260208201905092915050565b6000612c02826128d0565b612c0c8185612be6565b9350612c1c8185602086016128ec565b612c258161250f565b840191505092915050565b60006020820190508181036000830152612c4a8184612bf7565b905092915050565b600080600060608486031215612c6b57612c6a6124c5565b5b6000612c79868287016124f0565b935050602084013567ffffffffffffffff811115612c9a57612c996124ca565b5b612ca68682870161261d565b925050604084013567ffffffffffffffff811115612cc757612cc66124ca565b5b612cd38682870161261d565b9150509250925092565b600081519050919050565b600082825260208201905092915050565b6000819050602082019050919050565b612d12816124cf565b82525050565b6000612d248383612d09565b60208301905092915050565b6000602082019050919050565b6000612d4882612cdd565b612d528185612ce8565b9350612d5d83612cf9565b8060005b83811015612d8e578151612d758882612d18565b9750612d8083612d30565b925050600181019050612d61565b5085935050505092915050565b60006020820190508181036000830152612db58184612d3d565b905092915050565b600060029050919050565b600081905092915050565b6000819050919050565b6000602082019050919050565b6000612df582612dbd565b612dff8185612dc8565b935083602082028501612e1185612dd3565b8060005b85811015612e4d5784840389528151612e2e858261294f565b9450612e3983612ddd565b925060208a01995050600181019050612e15565b50829750879550505050505092915050565b60006020820190508181036000830152612e798184612dea565b905092915050565b600080600060608486031215612e9a57612e996124c5565b5b600084013567ffffffffffffffff811115612eb857612eb76124ca565b5b612ec48682870161261d565b9350506020612ed5868287016124f0565b9250506040612ee6868287016124f0565b9150509250925092565b60008060408385031215612f0757612f066124c5565b5b600083013567ffffffffffffffff811115612f2557612f246124ca565b5b612f318582860161261d565b925050602083013567ffffffffffffffff811115612f5257612f516124ca565b5b612f5e8582860161261d565b9150509250929050565b600080600060608486031215612f8157612f806124c5565b5b6000612f8f868287016124f0565b9350506020612fa0868287016124f0565b9250506040612fb1868287016124f0565b9150509250925092565b7f4e487b7100000000000000000000000000000000000000000000000000000000600052602260045260246000fd5b6000600282049050600182168061300257607f821691505b60208210810361301557613014612fbb565b5b50919050565b60008190508160005260206000209050919050565b60006020601f8301049050919050565b600082821b905092915050565b60006008830261307d7fffffffffffffffffffffffffffffffffffffffffffffffffffffffffffffffff82613040565b6130878683613040565b95508019841693508086168417925050509392505050565b6000819050919050565b60006130c46130bf6130ba846124cf565b61309f565b6124cf565b9050919050565b6000819050919050565b6130de836130a9565b6130f26130ea826130cb565b84845461304d565b825550505050565b600090565b6131076130fa565b6131128184846130d5565b505050565b5b818110156131365761312b6000826130ff565b600181019050613118565b5050565b601f82111561317b5761314c8161301b565b61315584613030565b81016020851015613164578190505b61317861317085613030565b830182613117565b50505b505050565b600082821c905092915050565b600061319e60001984600802613180565b1980831691505092915050565b60006131b7838361318d565b9150826002028217905092915050565b6131d0826128d0565b67ffffffffffffffff8111156131e9576131e8612520565b5b6131f38254612fea565b6131fe82828561313a565b600060209050601f831160018114613231576000841561321f578287015190505b61322985826131ab565b865550613291565b601f19841661323f8661301b565b60005b8281101561326757848901518255600182019150602085019450602081019050613242565b868310156132845784890151613280601f89168261318d565b8355505b6001600288020188555050505b505050505050565b7f4e487b7100000000000000000000000000000000000000000000000000000000600052601160045260246000fd5b60006132d3826124cf565b91507fffffffffffffffffffffffffffffffffffffffffffffffffffffffffffffffff820361330557613304613299565b5b600182019050919050565b7f4e487b7100000000000000000000000000000000000000000000000000000000600052603260045260246000fd5b600081905092915050565b60008190508160005260206000209050919050565b6000815461336c81612fea565b613376818661333f565b9450600182166000811461339157600181146133a6576133d9565b60ff19831686528115158202860193506133d9565b6133af8561334a565b60005b838110156133d1578154818901526001820191506020810190506133b2565b838801955050505b50505092915050565b60006133ee828461335f565b915081905092915050565b7f4e487b7100000000000000000000000000000000000000000000000000000000600052601260045260246000fdfea264697066735822122072175b330676bbc4cdfe9704f7c61611985ed764933e45e170e0efb5209be21a64736f6c63430008110033",
  "devdoc": {
    "kind": "dev",
    "methods": {},
    "version": 1
  },
  "userdoc": {
    "kind": "user",
    "methods": {},
    "version": 1
  },
  "storageLayout": {
    "storage": [
      {
        "astId": 1204,
        "contract": "contracts/DemeterGift.sol:DemeterGift",
        "label": "_tokenIds",
        "offset": 0,
        "slot": "0",
        "type": "t_uint256"
      },
      {
        "astId": 1206,
        "contract": "contracts/DemeterGift.sol:DemeterGift",
        "label": "_bidIds",
        "offset": 0,
        "slot": "1",
        "type": "t_uint256"
      },
      {
        "astId": 1208,
        "contract": "contracts/DemeterGift.sol:DemeterGift",
        "label": "_eventIds",
        "offset": 0,
        "slot": "2",
        "type": "t_uint256"
      },
      {
        "astId": 1210,
        "contract": "contracts/DemeterGift.sol:DemeterGift",
        "label": "_GrantEventIds",
        "offset": 0,
        "slot": "3",
        "type": "t_uint256"
      },
      {
        "astId": 1212,
        "contract": "contracts/DemeterGift.sol:DemeterGift",
        "label": "_GrantProjectIds",
        "offset": 0,
        "slot": "4",
        "type": "t_uint256"
      },
      {
        "astId": 1214,
        "contract": "contracts/DemeterGift.sol:DemeterGift",
        "label": "_GrantVoteIds",
        "offset": 0,
        "slot": "5",
        "type": "t_uint256"
      },
      {
        "astId": 1216,
        "contract": "contracts/DemeterGift.sol:DemeterGift",
        "label": "_EventTokenIds",
        "offset": 0,
        "slot": "6",
        "type": "t_uint256"
      },
      {
        "astId": 1218,
        "contract": "contracts/DemeterGift.sol:DemeterGift",
        "label": "_TokenBidIds",
        "offset": 0,
        "slot": "7",
        "type": "t_uint256"
      },
      {
        "astId": 1220,
        "contract": "contracts/DemeterGift.sol:DemeterGift",
        "label": "_EventTokenSearchIds",
        "offset": 0,
        "slot": "8",
        "type": "t_uint256"
      },
      {
        "astId": 1226,
        "contract": "contracts/DemeterGift.sol:DemeterGift",
        "label": "AllEventTokens",
        "offset": 0,
        "slot": "9",
        "type": "t_mapping(t_uint256,t_array(t_string_storage)2_storage)"
      },
      {
        "astId": 1232,
        "contract": "contracts/DemeterGift.sol:DemeterGift",
        "label": "AllGrantVotes",
        "offset": 0,
        "slot": "10",
        "type": "t_mapping(t_uint256,t_array(t_string_storage)3_storage)"
      },
      {
        "astId": 1238,
        "contract": "contracts/DemeterGift.sol:DemeterGift",
        "label": "AllGrantProject",
        "offset": 0,
        "slot": "11",
        "type": "t_mapping(t_uint256,t_array(t_uint256)2_storage)"
      },
      {
        "astId": 1244,
        "contract": "contracts/DemeterGift.sol:DemeterGift",
        "label": "AllTokensBids",
        "offset": 0,
        "slot": "12",
        "type": "t_mapping(t_uint256,t_array(t_string_storage)2_storage)"
      },
      {
        "astId": 1250,
        "contract": "contracts/DemeterGift.sol:DemeterGift",
        "label": "_SearchedStore",
        "offset": 0,
        "slot": "13",
        "type": "t_mapping(t_uint256,t_array(t_string_storage)2_storage)"
      },
      {
        "astId": 1254,
        "contract": "contracts/DemeterGift.sol:DemeterGift",
        "label": "_bidURIs",
        "offset": 0,
        "slot": "14",
        "type": "t_mapping(t_uint256,t_string_storage)"
      },
      {
        "astId": 1258,
        "contract": "contracts/DemeterGift.sol:DemeterGift",
        "label": "_tokenURIs",
        "offset": 0,
        "slot": "15",
        "type": "t_mapping(t_uint256,t_string_storage)"
      },
      {
        "astId": 1264,
        "contract": "contracts/DemeterGift.sol:DemeterGift",
        "label": "_eventURIs",
        "offset": 0,
        "slot": "16",
        "type": "t_mapping(t_uint256,t_array(t_string_storage)2_storage)"
      },
      {
        "astId": 1268,
        "contract": "contracts/DemeterGift.sol:DemeterGift",
        "label": "_GrantEventURIs",
        "offset": 0,
        "slot": "17",
        "type": "t_mapping(t_uint256,t_string_storage)"
      },
      {
        "astId": 1272,
        "contract": "contracts/DemeterGift.sol:DemeterGift",
        "label": "_JudgerURIs",
        "offset": 0,
        "slot": "18",
        "type": "t_mapping(t_uint256,t_string_storage)"
      },
      {
        "astId": 1276,
        "contract": "contracts/DemeterGift.sol:DemeterGift",
        "label": "_eventRaised",
        "offset": 0,
        "slot": "19",
        "type": "t_mapping(t_uint256,t_string_storage)"
      },
      {
        "astId": 1280,
        "contract": "contracts/DemeterGift.sol:DemeterGift",
        "label": "_eventTokens",
        "offset": 0,
        "slot": "20",
        "type": "t_mapping(t_string_memory_ptr,t_string_storage)"
      }
    ],
    "types": {
      "t_array(t_string_storage)2_storage": {
        "base": "t_string_storage",
        "encoding": "inplace",
        "label": "string[2]",
        "numberOfBytes": "64"
      },
      "t_array(t_string_storage)3_storage": {
        "base": "t_string_storage",
        "encoding": "inplace",
        "label": "string[3]",
        "numberOfBytes": "96"
      },
      "t_array(t_uint256)2_storage": {
        "base": "t_uint256",
        "encoding": "inplace",
        "label": "uint256[2]",
        "numberOfBytes": "64"
      },
      "t_mapping(t_string_memory_ptr,t_string_storage)": {
        "encoding": "mapping",
        "key": "t_string_memory_ptr",
        "label": "mapping(string => string)",
        "numberOfBytes": "32",
        "value": "t_string_storage"
      },
      "t_mapping(t_uint256,t_array(t_string_storage)2_storage)": {
        "encoding": "mapping",
        "key": "t_uint256",
        "label": "mapping(uint256 => string[2])",
        "numberOfBytes": "32",
        "value": "t_array(t_string_storage)2_storage"
      },
      "t_mapping(t_uint256,t_array(t_string_storage)3_storage)": {
        "encoding": "mapping",
        "key": "t_uint256",
        "label": "mapping(uint256 => string[3])",
        "numberOfBytes": "32",
        "value": "t_array(t_string_storage)3_storage"
      },
      "t_mapping(t_uint256,t_array(t_uint256)2_storage)": {
        "encoding": "mapping",
        "key": "t_uint256",
        "label": "mapping(uint256 => uint256[2])",
        "numberOfBytes": "32",
        "value": "t_array(t_uint256)2_storage"
      },
      "t_mapping(t_uint256,t_string_storage)": {
        "encoding": "mapping",
        "key": "t_uint256",
        "label": "mapping(uint256 => string)",
        "numberOfBytes": "32",
        "value": "t_string_storage"
      },
      "t_string_memory_ptr": {
        "encoding": "bytes",
        "label": "string",
        "numberOfBytes": "32"
      },
      "t_string_storage": {
        "encoding": "bytes",
        "label": "string",
        "numberOfBytes": "32"
      },
      "t_uint256": {
        "encoding": "inplace",
        "label": "uint256",
        "numberOfBytes": "32"
      }
    }
  }
}